###############################################################################
#
# IAR C/C++ Compiler V9.30.1.3056 for 8051                09/Oct/2017  10:37:21
# Copyright 2004-2015 IAR Systems AB.
#
#    Core               =  plain
#    Code model         =  banked
#    Data model         =  large
#    Calling convention =  xdata reentrant
#    Constant location  =  data_rom
#    Dptr setup         =  1,16
#                          
#    Source file        =  E:\z-stack1.1.2\smart_wall\Components\mt\MT_ZDO.c
#    Command line       =  
#        -f
#        E:\z-stack1.1.2\smart_wall\Projects\zstack\my_app\SampleLight\CC2530DB\..\..\..\Tools\CC2530DB\f8wCoord.cfg
#        (-DCPU32MHZ -DROOT=__near_func -DMAC_CFG_APP_PENDING_QUEUE=TRUE
#        -DMAC_CFG_TX_DATA_MAX=5 -DMAC_CFG_TX_MAX=8 -DMAC_CFG_RX_MAX=5
#        -DZDO_COORDINATOR -DRTR_NWK) -f
#        E:\z-stack1.1.2\smart_wall\Projects\zstack\my_app\SampleLight\CC2530DB\..\..\..\Tools\CC2530DB\f8wConfig.cfg
#        (-DZIGBEEPRO -DSECURE=1 -DZG_SECURE_DYNAMIC=0 -DREFLECTOR
#        -DDEFAULT_CHANLIST=0x00000800 -DZDAPP_CONFIG_PAN_ID=0xFFFF
#        -DNWK_START_DELAY=100 -DEXTENDED_JOINING_RANDOM_MASK=0x007F
#        -DBEACON_REQUEST_DELAY=100 -DBEACON_REQ_DELAY_MASK=0x00FF
#        -DLINK_STATUS_JITTER_MASK=0x007F -DROUTE_EXPIRY_TIME=30
#        -DAPSC_ACK_WAIT_DURATION_POLLED=3000 -DNWK_INDIRECT_MSG_TIMEOUT=7
#        -DMAX_RREQ_ENTRIES=8 -DAPSC_MAX_FRAME_RETRIES=3
#        -DNWK_MAX_DATA_RETRIES=2 -DMAX_POLL_FAILURE_RETRIES=2 -DMAX_BCAST=9
#        -DAPS_MAX_GROUPS=16 -DMAX_RTG_ENTRIES=40 -DNWK_MAX_BINDING_ENTRIES=4
#        -DMAX_BINDING_CLUSTER_IDS=4 "-DDEFAULT_KEY={0x01, 0x03, 0x05, 0x07,
#        0x09, 0x0B, 0x0D, 0x0F, 0x00, 0x02, 0x04, 0x06, 0x08, 0x0A, 0x0C,
#        0x0D}" -DMAC_MAX_FRAME_SIZE=116 -DZDNWKMGR_MIN_TRANSMISSIONS=20
#        "-DCONST=const __code" -DGENERIC=__generic -DRFD_RCVC_ALWAYS_ON=TRUE
#        -DPOLL_RATE=1000 -DQUEUED_POLL_RATE=100 -DRESPONSE_POLL_RATE=100
#        -DREJOIN_POLL_RATE=440 -DREJOIN_BACKOFF=900000 -DREJOIN_SCAN=900000)
#        -f
#        E:\z-stack1.1.2\smart_wall\Projects\zstack\my_app\SampleLight\CC2530DB\..\..\..\Tools\CC2530DB\f8wZCL.cfg
#        E:\z-stack1.1.2\smart_wall\Components\mt\MT_ZDO.c -D SECURE=0 -D
#        TC_LINKKEY_JOIN -D NV_INIT -D xNV_RESTORE -D xHAL_NET=FALSE -D
#        xUIP=FALSE -D xHOLD_AUTO_START -D ZTOOL_P1 -D MT_TASK -D MT_APP_FUNC
#        -D MT_SYS_FUNC -D MT_ZDO_FUNC -D xLCD_SUPPORTED=DEBUG -D
#        MULTICAST_ENABLED=FALSE -D ZCL_READ -D ZCL_WRITE -D ZCL_REPORT -D
#        ZCL_EZMODE -D ZCL_BASIC -D ZCL_IDENTIFY -D ZCL_ON_OFF -D ZCL_SCENES -D
#        ZCL_GROUPS -D xZCL_LEVEL_CTRL -D ZCL_DIAGNOSTIC -D
#        FEATURE_SYSTEM_STATS -D HAL_UART=TRUE -D HAL_LCD=FALSE -D xUSE_ICALL
#        -lC
#        E:\z-stack1.1.2\smart_wall\Projects\zstack\my_app\SampleLight\CC2530DB\CoordinatorEB\List
#        -lA
#        E:\z-stack1.1.2\smart_wall\Projects\zstack\my_app\SampleLight\CC2530DB\CoordinatorEB\List
#        --diag_suppress Pe001,Pa010 -o
#        E:\z-stack1.1.2\smart_wall\Projects\zstack\my_app\SampleLight\CC2530DB\CoordinatorEB\Obj
#        -e --debug --core=plain --dptr=16,1 --data_model=large
#        --code_model=banked --calling_convention=xdata_reentrant
#        --place_constants=data_rom --nr_virtual_regs 16 -I
#        E:\z-stack1.1.2\smart_wall\Projects\zstack\my_app\SampleLight\CC2530DB\
#        -I
#        E:\z-stack1.1.2\smart_wall\Projects\zstack\my_app\SampleLight\CC2530DB\..\Source\uip\
#        -I
#        E:\z-stack1.1.2\smart_wall\Projects\zstack\my_app\SampleLight\CC2530DB\..\Source\z_protocol\
#        -I
#        E:\z-stack1.1.2\smart_wall\Projects\zstack\my_app\SampleLight\CC2530DB\..\Source\cl_protocol\
#        -I
#        E:\z-stack1.1.2\smart_wall\Projects\zstack\my_app\SampleLight\CC2530DB\..\Source\door_protocol\
#        -I
#        E:\z-stack1.1.2\smart_wall\Projects\zstack\my_app\SampleLight\CC2530DB\..\Source\wprotocol\
#        -I
#        E:\z-stack1.1.2\smart_wall\Projects\zstack\my_app\SampleLight\CC2530DB\..\Source\mqtt\
#        -I
#        E:\z-stack1.1.2\smart_wall\Projects\zstack\my_app\SampleLight\CC2530DB\..\Source\uip_app\
#        -I
#        E:\z-stack1.1.2\smart_wall\Projects\zstack\my_app\SampleLight\CC2530DB\..\..\Source\
#        -I
#        E:\z-stack1.1.2\smart_wall\Projects\zstack\my_app\SampleLight\CC2530DB\..\..\..\ZMain\TI2530DB\
#        -I
#        E:\z-stack1.1.2\smart_wall\Projects\zstack\my_app\SampleLight\CC2530DB\..\..\..\..\..\Components\hal\include\
#        -I
#        E:\z-stack1.1.2\smart_wall\Projects\zstack\my_app\SampleLight\CC2530DB\..\..\..\..\..\Components\hal\target\CC2530EB\
#        -I
#        E:\z-stack1.1.2\smart_wall\Projects\zstack\my_app\SampleLight\CC2530DB\..\..\..\..\..\Components\mac\include\
#        -I
#        E:\z-stack1.1.2\smart_wall\Projects\zstack\my_app\SampleLight\CC2530DB\..\..\..\..\..\Components\mac\high_level\
#        -I
#        E:\z-stack1.1.2\smart_wall\Projects\zstack\my_app\SampleLight\CC2530DB\..\..\..\..\..\Components\mac\low_level\srf04\
#        -I
#        E:\z-stack1.1.2\smart_wall\Projects\zstack\my_app\SampleLight\CC2530DB\..\..\..\..\..\Components\mac\low_level\srf04\single_chip\
#        -I
#        E:\z-stack1.1.2\smart_wall\Projects\zstack\my_app\SampleLight\CC2530DB\..\..\..\..\..\Components\mt\
#        -I
#        E:\z-stack1.1.2\smart_wall\Projects\zstack\my_app\SampleLight\CC2530DB\..\..\..\..\..\Components\osal\include\
#        -I
#        E:\z-stack1.1.2\smart_wall\Projects\zstack\my_app\SampleLight\CC2530DB\..\..\..\..\..\Components\services\saddr\
#        -I
#        E:\z-stack1.1.2\smart_wall\Projects\zstack\my_app\SampleLight\CC2530DB\..\..\..\..\..\Components\services\sdata\
#        -I
#        E:\z-stack1.1.2\smart_wall\Projects\zstack\my_app\SampleLight\CC2530DB\..\..\..\..\..\Components\stack\af\
#        -I
#        E:\z-stack1.1.2\smart_wall\Projects\zstack\my_app\SampleLight\CC2530DB\..\..\..\..\..\Components\stack\nwk\
#        -I
#        E:\z-stack1.1.2\smart_wall\Projects\zstack\my_app\SampleLight\CC2530DB\..\..\..\..\..\Components\stack\sapi\
#        -I
#        E:\z-stack1.1.2\smart_wall\Projects\zstack\my_app\SampleLight\CC2530DB\..\..\..\..\..\Components\stack\sec\
#        -I
#        E:\z-stack1.1.2\smart_wall\Projects\zstack\my_app\SampleLight\CC2530DB\..\..\..\..\..\Components\stack\sys\
#        -I
#        E:\z-stack1.1.2\smart_wall\Projects\zstack\my_app\SampleLight\CC2530DB\..\..\..\..\..\Components\stack\zcl\
#        -I
#        E:\z-stack1.1.2\smart_wall\Projects\zstack\my_app\SampleLight\CC2530DB\..\..\..\..\..\Components\stack\zdo\
#        -I
#        E:\z-stack1.1.2\smart_wall\Projects\zstack\my_app\SampleLight\CC2530DB\..\..\..\..\..\Components\zmac\
#        -I
#        E:\z-stack1.1.2\smart_wall\Projects\zstack\my_app\SampleLight\CC2530DB\..\..\..\..\..\Components\zmac\f8w\
#        -Ohz
#    List file          =  
#        E:\z-stack1.1.2\smart_wall\Projects\zstack\my_app\SampleLight\CC2530DB\CoordinatorEB\List\MT_ZDO.lst
#    Object file        =  
#        E:\z-stack1.1.2\smart_wall\Projects\zstack\my_app\SampleLight\CC2530DB\CoordinatorEB\Obj\MT_ZDO.r51
#
###############################################################################

E:\z-stack1.1.2\smart_wall\Components\mt\MT_ZDO.c
      1          /**************************************************************************************************
      2            Filename:       MT_ZDO.c
      3            Revised:        $Date: 2015-02-05 17:15:13 -0800 (Thu, 05 Feb 2015) $
      4            Revision:       $Revision: 42371 $
      5          
      6            Description:    MonitorTest functions for the ZDO layer.
      7          
      8            Copyright 2004-2015 Texas Instruments Incorporated. All rights reserved.
      9          
     10            IMPORTANT: Your use of this Software is limited to those specific rights
     11            granted under the terms of a software license agreement between the user
     12            who downloaded the software, his/her employer (which must be your employer)
     13            and Texas Instruments Incorporated (the "License"). You may not use this
     14            Software unless you agree to abide by the terms of the License. The License
     15            limits your use, and you acknowledge, that the Software may not be modified,
     16            copied or distributed unless embedded on a Texas Instruments microcontroller
     17            or used solely and exclusively in conjunction with a Texas Instruments radio
     18            frequency transceiver, which is integrated into your product. Other than for
     19            the foregoing purpose, you may not use, reproduce, copy, prepare derivative
     20            works of, modify, distribute, perform, display or sell this Software and/or
     21            its documentation for any purpose.
     22          
     23            YOU FURTHER ACKNOWLEDGE AND AGREE THAT THE SOFTWARE AND DOCUMENTATION ARE
     24            PROVIDED "AS IS" WITHOUT WARRANTY OF ANY KIND, EITHER EXPRESS OR IMPLIED,
     25            INCLUDING WITHOUT LIMITATION, ANY WARRANTY OF MERCHANTABILITY, TITLE,
     26            NON-INFRINGEMENT AND FITNESS FOR A PARTICULAR PURPOSE. IN NO EVENT SHALL
     27            TEXAS INSTRUMENTS OR ITS LICENSORS BE LIABLE OR OBLIGATED UNDER CONTRACT,
     28            NEGLIGENCE, STRICT LIABILITY, CONTRIBUTION, BREACH OF WARRANTY, OR OTHER
     29            LEGAL EQUITABLE THEORY ANY DIRECT OR INDIRECT DAMAGES OR EXPENSES
     30            INCLUDING BUT NOT LIMITED TO ANY INCIDENTAL, SPECIAL, INDIRECT, PUNITIVE
     31            OR CONSEQUENTIAL DAMAGES, LOST PROFITS OR LOST DATA, COST OF PROCUREMENT
     32            OF SUBSTITUTE GOODS, TECHNOLOGY, SERVICES, OR ANY CLAIMS BY THIRD PARTIES
     33            (INCLUDING BUT NOT LIMITED TO ANY DEFENSE THEREOF), OR OTHER SIMILAR COSTS.
     34          
     35            Should you have any questions regarding your right to use this Software,
     36            contact Texas Instruments Incorporated at www.TI.com.
     37          **************************************************************************************************/
     38          
     39          #ifdef MT_ZDO_FUNC
     40          
     41          /**************************************************************************************************
     42           * INCLUDES
     43           **************************************************************************************************/
     44          #include "ZComDef.h"
     45          #include "OSAL.h"
     46          #include "OSAL_Nv.h"
     47          #include "MT.h"
     48          #include "MT_ZDO.h"
     49          #include "AddrMgr.h"
     50          #include "APSMEDE.h"
     51          #include "ZDConfig.h"
     52          #include "ZDProfile.h"
     53          #include "ZDObject.h"
     54          #include "ZDApp.h"
     55          #include "OnBoard.h"
     56          #include "aps_groups.h"
     57          
     58          #if defined ( MT_ZDO_EXTENSIONS )
     59            #include "rtg.h"
     60          #endif
     61          #if defined ( MT_SYS_KEY_MANAGEMENT ) || defined ( MT_ZDO_EXTENSIONS )
     62            #include "ZDSecMgr.h"
     63          #endif
     64          
     65          #include "nwk_util.h"
     66          
     67          /**************************************************************************************************
     68           * CONSTANTS
     69           **************************************************************************************************/
     70          #define MT_ZDO_END_DEVICE_ANNCE_IND_LEN   0x0D
     71          #define MT_ZDO_ADDR_RSP_LEN               0x0D
     72          #define MT_ZDO_BIND_UNBIND_RSP_LEN        0x03
     73          #define MT_ZDO_BEACON_IND_LEN             21
     74          #define MT_ZDO_BEACON_IND_PACK_LEN        (MT_UART_TX_BUFF_MAX - SPI_0DATA_MSG_LEN)
     75          #define MT_ZDO_JOIN_CNF_LEN               5
     76          
     77          // Message must pack nwk addr, entire (not just pointer to) ieee addr, and packet cost, so the
     78          // sizeof(zdoConcentratorInd_t) is not usable.
     79          #define MT_ZDO_CONCENTRATOR_IND_LEN      (2 + Z_EXTADDR_LEN + 1)
     80          
     81          #define MTZDO_RESPONSE_BUFFER_LEN   100
     82          
     83          #define MTZDO_MAX_MATCH_CLUSTERS    16
     84          #define MTZDO_MAX_ED_BIND_CLUSTERS  15
     85          
     86          // Conversion from ZDO Cluster Id to the RPC AREQ Id is direct as follows:
     87          #define MT_ZDO_CID_TO_AREQ_ID(CId)  ((uint8)(CId) | 0x80)
     88          
     89          #define MT_ZDO_STATUS_LEN   1
     90          
     91          #if defined ( MT_ZDO_EXTENSIONS )
     92          typedef struct
     93          {
     94            uint16            ami;
     95            uint16            keyNvId;   // index to the Link Key table in NV
     96            ZDSecMgr_Authentication_Option authenticateOption;
     97          } ZDSecMgrEntry_t;
     98          #endif  // MT_ZDO_EXTENSIONS
     99          
    100          /**************************************************************************************************
    101           * GLOBAL VARIABLES
    102           **************************************************************************************************/

   \                                 In  segment XDATA_Z, align 1, keep-with-next
    103          uint32 _zdoCallbackSub;
   \                     _zdoCallbackSub:
   \   000000                DS 4
   \   000004                REQUIRE __INIT_XDATA_Z

   \                                 In  segment XDATA_Z, align 1, keep-with-next
    104          uint8 *pBeaconIndBuf = NULL;
   \                     pBeaconIndBuf:
   \   000000                DS 2
   \   000002                REQUIRE __INIT_XDATA_Z
    105          
    106          /**************************************************************************************************
    107           * LOCAL VARIABLES
    108           **************************************************************************************************/

   \                                 In  segment XDATA_Z, align 1, keep-with-next
    109          bool ignoreIndication = FALSE;
   \                     ignoreIndication:
   \   000000                DS 1
   \   000001                REQUIRE __INIT_XDATA_Z
    110          
    111          /**************************************************************************************************
    112           * LOCAL FUNCTIONS
    113           **************************************************************************************************/
    114          #if defined (MT_ZDO_FUNC)
    115          static void MT_ZdoNWKAddressRequest(uint8 *pBuf);
    116          static void MT_ZdoIEEEAddrRequest(uint8 *pBuf);
    117          static void MT_ZdoNodeDescRequest(uint8 *pBuf);
    118          static void MT_ZdoPowerDescRequest(uint8 *pBuf);
    119          static void MT_ZdoSimpleDescRequest(uint8 *pBuf);
    120          static void MT_ZdoActiveEpRequest(uint8 *pBuf);
    121          static void MT_ZdoMatchDescRequest(uint8 *pBuf);
    122          static void MT_ZdoComplexDescRequest(uint8 *pBuf);
    123          static void MT_ZdoUserDescRequest(uint8 *pBuf);
    124          static void MT_ZdoEndDevAnnce(uint8 *pBuf);
    125          static void MT_ZdoUserDescSet(uint8 *pBuf);
    126          static void MT_ZdoServiceDiscRequest(uint8 *pBuf);
    127          static void MT_ZdoEndDevBindRequest(uint8 *pBuf);
    128          static void MT_ZdoBindRequest(uint8 *pBuf);
    129          static void MT_ZdoUnbindRequest(uint8 *pBuf);
    130          #if defined ( MT_SYS_KEY_MANAGEMENT )
    131          static void MT_ZdoSetLinkKey(uint8 *pBuf);
    132          static void MT_ZdoRemoveLinkKey(uint8 *pBuf);
    133          static void MT_ZdoGetLinkKey(uint8 *pBuf);
    134          #endif /* MT_SYS_KEY_MANAGEMENT */
    135          static void MT_ZdoNetworkDiscoveryReq(uint8 *pBuf);
    136          static void MT_ZdoJoinReq(uint8 *pBuf);
    137          /* Call back function */
    138          void *MT_ZdoNwkDiscoveryCnfCB ( void *pStr );
    139          void *MT_ZdoBeaconIndCB ( void *pStr );
    140          void *MT_ZdoJoinCnfCB ( void *pStr );
    141          #if defined (MT_ZDO_MGMT)
    142          static void MT_ZdoMgmtLqiRequest(uint8 *pBuf);
    143          static void MT_ZdoMgmtRtgRequest(uint8 *pBuf);
    144          static void MT_ZdoMgmtBindRequest(uint8 *pBuf);
    145          static void MT_ZdoMgmtLeaveRequest(uint8 *pBuf);
    146          static void MT_ZdoMgmtDirectJoinRequest(uint8 *pBuf);
    147          static void MT_ZdoMgmtPermitJoinRequest(uint8 *pBuf);
    148          static void MT_ZdoMgmtNwkUpdateRequest(uint8 *pBuf);
    149          static void MT_ZdoMgmtNwkDiscRequest(uint8 *pBuf);
    150          #endif /* MT_ZDO_MGMT */
    151          static void MT_ZdoSendData( uint8 *pBuf );
    152          static void MT_ZdoNwkAddrOfInterestReq( uint8 *pBuf );
    153          static void MT_ZdoStartupFromApp(uint8 *pBuf);
    154          static void MT_ZdoRegisterForZDOMsg(uint8 *pBuf);
    155          static void MT_ZdoRemoveRegisteredCB(uint8 *pBuf);
    156          static void MT_ZdoSetRejoinParameters(uint8 *pBuf);
    157          #endif /* MT_ZDO_FUNC */
    158          
    159          #if defined (MT_ZDO_CB_FUNC)
    160          uint8 MT_ZdoHandleExceptions( afIncomingMSGPacket_t *pData, zdoIncomingMsg_t *inMsg );
    161          void MT_ZdoAddrRspCB( ZDO_NwkIEEEAddrResp_t *pMsg, uint16 clusterID );
    162          void MT_ZdoEndDevAnnceCB( ZDO_DeviceAnnce_t *pMsg, uint16 srcAddr );
    163          void MT_ZdoBindUnbindRspCB( uint16 clusterID, uint16 srcAddr, uint8 status );
    164          void* MT_ZdoSrcRtgCB( void *pStr );
    165          static void *MT_ZdoConcentratorIndCB(void *pStr);
    166          static void *MT_ZdoLeaveInd(void *vPtr);
    167          void *MT_ZdoTcDeviceInd( void *params );
    168          void *MT_ZdoPermitJoinInd( void *duration );
    169          #endif /* MT_ZDO_CB_FUNC */
    170          
    171          #if defined ( MT_ZDO_EXTENSIONS )
    172          #if ( ZG_BUILD_COORDINATOR_TYPE )
    173          static void MT_ZdoSecUpdateNwkKey( uint8 *pBuf );
    174          static void MT_ZdoSecSwitchNwkKey( uint8 *pBuf );
    175          #endif // ZDO_COORDINATOR
    176          static void MT_ZdoSecAddLinkKey( uint8 *pBuf );
    177          static void MT_ZdoSecEntryLookupExt( uint8 *pBuf );
    178          static void MT_ZdoSecDeviceRemove( uint8 *pBuf );
    179          static void MT_ZdoExtRouteDisc( uint8 *pBuf );
    180          static void MT_ZdoExtRouteCheck( uint8 *pBuf );
    181          static void MT_ZdoExtRemoveGroup( uint8 *pBuf );
    182          static void MT_ZdoExtRemoveAllGroup( uint8 *pBuf );
    183          static void MT_ZdoExtFindAllGroupsEndpoint( uint8 *pBuf );
    184          static void MT_ZdoExtFindGroup( uint8 *pBuf );
    185          static void MT_ZdoExtAddGroup( uint8 *pBuf );
    186          static void MT_ZdoExtCountAllGroups( uint8 *pBuf );
    187          static void MT_ZdoExtRxIdle( uint8 *pBuf );
    188          static void MT_ZdoExtNwkInfo( uint8 *pBuf );
    189          static void MT_ZdoExtSecApsRemoveReq( uint8 *pBuf );
    190          static void MT_ZdoExtSetParams( uint8 *pBuf );
    191          extern ZStatus_t ZDSecMgrEntryLookupExt( uint8* extAddr, ZDSecMgrEntry_t** entry );
    192          #endif // MT_ZDO_EXTENSIONS
    193          
    194          #if defined (MT_ZDO_FUNC)
    195          /***************************************************************************************************
    196           * @fn      MT_ZdoInit
    197           *
    198           * @brief   MT ZDO initialization
    199           *
    200           * @param   none
    201           *
    202           * @return  none
    203           ***************************************************************************************************/

   \                                 In  segment BANKED_CODE, align 1, keep-with-next
    204          void MT_ZdoInit(void)
   \                     MT_ZdoInit:
    205          {
   \   000000                ; Saved register size: 0
   \   000000                ; Auto size: 0
    206          #ifdef MT_ZDO_CB_FUNC
    207            /* Register with ZDO for indication callbacks */
    208            ZDO_RegisterForZdoCB(ZDO_SRC_RTG_IND_CBID, &MT_ZdoSrcRtgCB);
    209            ZDO_RegisterForZdoCB(ZDO_CONCENTRATOR_IND_CBID, &MT_ZdoConcentratorIndCB);
    210            ZDO_RegisterForZdoCB(ZDO_LEAVE_IND_CBID, &MT_ZdoLeaveInd);
    211            ZDO_RegisterForZdoCB(ZDO_PERMIT_JOIN_CBID, &MT_ZdoPermitJoinInd);
    212            ZDO_RegisterForZdoCB(ZDO_TC_DEVICE_CBID, &MT_ZdoTcDeviceInd);
    213          #endif
    214          }
   \   000000   02....       LJMP    ?BRET
    215          
    216          /***************************************************************************************************
    217           * @fn      MT_ZdoCommandProcessing
    218           *
    219           * @brief
    220           *
    221           *   Process all the ZDO commands that are issued by test tool
    222           *
    223           * @param   pBuf - pointer to the msg buffer
    224           *
    225           *          | LEN  | CMD0  | CMD1  |  DATA  |
    226           *          |  1   |   1   |   1   |  0-255 |
    227           *
    228           * @return  status
    229           ***************************************************************************************************/

   \                                 In  segment BANKED_CODE, align 1, keep-with-next
    230          uint8 MT_ZdoCommandProcessing(uint8* pBuf)
   \                     MT_ZdoCommandProcessing:
    231          {
   \   000000                REQUIRE ?V0
   \   000000                REQUIRE ?V1
   \   000000                REQUIRE ?V2
   \   000000                REQUIRE ?V3
   \   000000                REQUIRE ?V4
   \   000000                REQUIRE ?V5
   \   000000                REQUIRE ?V6
   \   000000                REQUIRE ?V7
   \   000000                REQUIRE ?V8
   \   000000                REQUIRE ?V9
   \   000000                REQUIRE ?V10
   \   000000                REQUIRE ?V11
   \   000000                REQUIRE ?V12
   \   000000                REQUIRE ?V13
   \   000000                REQUIRE ?V14
   \   000000                REQUIRE ?V15
   \   000000   74E8         MOV     A,#-0x18
   \   000002   12....       LCALL   ?BANKED_ENTER_XDATA
   \   000005                ; Saved register size: 24
   \   000005                ; Auto size: 28
   \   000005   74E4         MOV     A,#-0x1c
   \   000007   12....       LCALL   ?ALLOC_XSTACK8
    232            uint8 status = MT_RPC_SUCCESS;
   \   00000A   75..00       MOV     ?V12,#0x0
    233          
    234            switch (pBuf[MT_RPC_POS_CMD1])
   \   00000D   EA           MOV     A,R2
   \   00000E   2402         ADD     A,#0x2
   \   000010   F8           MOV     R0,A
   \   000011   E4           CLR     A
   \   000012   3B           ADDC    A,R3
   \   000013   F9           MOV     R1,A
   \   000014   E8           MOV     A,R0
   \   000015   FC           MOV     R4,A
   \   000016   E9           MOV     A,R1
   \   000017   FD           MOV     R5,A
   \   000018   8C82         MOV     DPL,R4
   \   00001A   8D83         MOV     DPH,R5
   \   00001C   E0           MOVX    A,@DPTR
   \   00001D   FF           MOV     R7,A
   \   00001E   EA           MOV     A,R2
   \   00001F   2403         ADD     A,#0x3
   \   000021   08           INC     R0
   \   000022   E4           CLR     A
   \   000023   3B           ADDC    A,R3
   \   000024   F9           MOV     R1,A
   \   000025   EF           MOV     A,R7
   \   000026   7003         JNZ     $+5
   \   000028   02....       LJMP    ??MT_ZdoCommandProcessing_0 & 0xFFFF
   \   00002B   14           DEC     A
   \   00002C   7003         JNZ     $+5
   \   00002E   02....       LJMP    ??MT_ZdoCommandProcessing_1 & 0xFFFF
   \   000031   14           DEC     A
   \   000032   7003         JNZ     $+5
   \   000034   02....       LJMP    ??MT_ZdoCommandProcessing_2 & 0xFFFF
   \   000037   14           DEC     A
   \   000038   7003         JNZ     $+5
   \   00003A   02....       LJMP    ??MT_ZdoCommandProcessing_3 & 0xFFFF
   \   00003D   14           DEC     A
   \   00003E   7003         JNZ     $+5
   \   000040   02....       LJMP    ??MT_ZdoCommandProcessing_4 & 0xFFFF
   \   000043   14           DEC     A
   \   000044   7003         JNZ     $+5
   \   000046   02....       LJMP    ??MT_ZdoCommandProcessing_5 & 0xFFFF
   \   000049   14           DEC     A
   \   00004A   7003         JNZ     $+5
   \   00004C   02....       LJMP    ??MT_ZdoCommandProcessing_6 & 0xFFFF
   \   00004F   14           DEC     A
   \   000050   7003         JNZ     $+5
   \   000052   02....       LJMP    ??MT_ZdoCommandProcessing_7 & 0xFFFF
   \   000055   14           DEC     A
   \   000056   7003         JNZ     $+5
   \   000058   02....       LJMP    ??MT_ZdoCommandProcessing_8 & 0xFFFF
   \   00005B   24FE         ADD     A,#-0x2
   \   00005D   7003         JNZ     $+5
   \   00005F   02....       LJMP    ??MT_ZdoCommandProcessing_9 & 0xFFFF
   \   000062   14           DEC     A
   \   000063   7003         JNZ     $+5
   \   000065   02....       LJMP    ??MT_ZdoCommandProcessing_10 & 0xFFFF
   \   000068   14           DEC     A
   \   000069   7003         JNZ     $+5
   \   00006B   02....       LJMP    ??MT_ZdoCommandProcessing_11 & 0xFFFF
   \   00006E   24EC         ADD     A,#-0x14
   \   000070   7003         JNZ     $+5
   \   000072   02....       LJMP    ??MT_ZdoCommandProcessing_12 & 0xFFFF
   \   000075   14           DEC     A
   \   000076   7003         JNZ     $+5
   \   000078   02....       LJMP    ??MT_ZdoCommandProcessing_13 & 0xFFFF
   \   00007B   14           DEC     A
   \   00007C   7003         JNZ     $+5
   \   00007E   02....       LJMP    ??MT_ZdoCommandProcessing_14 & 0xFFFF
   \   000081   24FC         ADD     A,#-0x4
   \   000083   7003         JNZ     $+5
   \   000085   02....       LJMP    ??MT_ZdoCommandProcessing_15 & 0xFFFF
   \   000088   14           DEC     A
   \   000089   7003         JNZ     $+5
   \   00008B   02....       LJMP    ??MT_ZdoCommandProcessing_16 & 0xFFFF
   \   00008E   14           DEC     A
   \   00008F   7003         JNZ     $+5
   \   000091   02....       LJMP    ??MT_ZdoCommandProcessing_17 & 0xFFFF
   \   000094   14           DEC     A
   \   000095   7003         JNZ     $+5
   \   000097   02....       LJMP    ??MT_ZdoCommandProcessing_18 & 0xFFFF
   \   00009A   24EB         ADD     A,#-0x15
   \   00009C   7003         JNZ     $+5
   \   00009E   02....       LJMP    ??MT_ZdoCommandProcessing_19 & 0xFFFF
   \   0000A1   14           DEC     A
   \   0000A2   7003         JNZ     $+5
   \   0000A4   02....       LJMP    ??MT_ZdoCommandProcessing_20 & 0xFFFF
   \   0000A7   14           DEC     A
   \   0000A8   7003         JNZ     $+5
   \   0000AA   02....       LJMP    ??MT_ZdoCommandProcessing_21 & 0xFFFF
   \   0000AD   2474         ADD     A,#0x74
   \   0000AF   7003         JNZ     $+5
   \   0000B1   02....       LJMP    ??MT_ZdoCommandProcessing_22 & 0xFFFF
   \   0000B4   02....       LJMP    ??MT_ZdoCommandProcessing_23 & 0xFFFF
    235            {
    236          #if defined ( ZDO_NWKADDR_REQUEST )
    237              case MT_ZDO_NWK_ADDR_REQ:
    238                MT_ZdoNWKAddressRequest(pBuf);
   \                     ??MT_ZdoCommandProcessing_0:
   \   0000B7   7401         MOV     A,#0x1
   \   0000B9   12....       LCALL   ?XSTACK_DISP0_8
   \   0000BC   EF           MOV     A,R7
   \   0000BD   F0           MOVX    @DPTR,A
   \   0000BE   0A           INC     R2
   \   0000BF   0A           INC     R2
   \   0000C0   0A           INC     R2
   \   0000C1   E9           MOV     A,R1
   \   0000C2   FB           MOV     R3,A
   \   0000C3   EA           MOV     A,R2
   \   0000C4   2408         ADD     A,#0x8
   \   0000C6   F8           MOV     R0,A
   \   0000C7   E4           CLR     A
   \   0000C8   3B           ADDC    A,R3
   \   0000C9   F9           MOV     R1,A
   \   0000CA                ; Setup parameters for call to function ZDP_NwkAddrReq
   \   0000CA   7D00         MOV     R5,#0x0
   \   0000CC   8882         MOV     DPL,R0
   \   0000CE   8983         MOV     DPH,R1
   \   0000D0   A3           INC     DPTR
   \   0000D1   E0           MOVX    A,@DPTR
   \   0000D2   FC           MOV     R4,A
   \   0000D3   8882         MOV     DPL,R0
   \   0000D5   8983         MOV     DPH,R1
   \   0000D7   E0           MOVX    A,@DPTR
   \   0000D8   F9           MOV     R1,A
   \   0000D9   12....       LCALL   `??ZDP_NwkAddrReq::?relay`; Banked call to: ZDP_NwkAddrReq
   \   0000DC   02....       LJMP    ??MT_ZdoCommandProcessing_24 & 0xFFFF
    239                break;
    240          #endif
    241          
    242          #if defined ( ZDO_IEEEADDR_REQUEST )
    243              case MT_ZDO_IEEE_ADDR_REQ:
    244                MT_ZdoIEEEAddrRequest(pBuf);
   \                     ??MT_ZdoCommandProcessing_1:
   \   0000DF   7401         MOV     A,#0x1
   \   0000E1   12....       LCALL   ?XSTACK_DISP0_8
   \   0000E4   EF           MOV     A,R7
   \   0000E5   F0           MOVX    @DPTR,A
   \   0000E6   E8           MOV     A,R0
   \   0000E7   FE           MOV     R6,A
   \   0000E8   E9           MOV     A,R1
   \   0000E9   FF           MOV     R7,A
   \   0000EA                ; Setup parameters for call to function osal_build_uint16
   \   0000EA   0A           INC     R2
   \   0000EB   0A           INC     R2
   \   0000EC   0A           INC     R2
   \   0000ED   FB           MOV     R3,A
   \   0000EE   12....       LCALL   `??osal_build_uint16::?relay`; Banked call to: osal_build_uint16
   \   0000F1                ; Setup parameters for call to function ZDP_IEEEAddrReq
   \   0000F1   7D00         MOV     R5,#0x0
   \   0000F3   8E82         MOV     DPL,R6
   \   0000F5   8F83         MOV     DPH,R7
   \   0000F7   A3           INC     DPTR
   \   0000F8   A3           INC     DPTR
   \   0000F9   A3           INC     DPTR
   \   0000FA   E0           MOVX    A,@DPTR
   \   0000FB   FC           MOV     R4,A
   \   0000FC   8E82         MOV     DPL,R6
   \   0000FE   8F83         MOV     DPH,R7
   \   000100   A3           INC     DPTR
   \   000101   A3           INC     DPTR
   \   000102   E0           MOVX    A,@DPTR
   \   000103   F9           MOV     R1,A
   \   000104   12....       LCALL   `??ZDP_IEEEAddrReq::?relay`; Banked call to: ZDP_IEEEAddrReq
   \   000107   02....       LJMP    ??MT_ZdoCommandProcessing_24 & 0xFFFF
    245                break;
    246          #endif
    247          
    248          #if defined ( ZDO_NODEDESC_REQUEST )
    249              case MT_ZDO_NODE_DESC_REQ:
    250                MT_ZdoNodeDescRequest(pBuf);
   \                     ??MT_ZdoCommandProcessing_2:
   \   00010A   7401         MOV     A,#0x1
   \   00010C   12....       LCALL   ?XSTACK_DISP0_8
   \   00010F   12....       LCALL   ?Subroutine20 & 0xFFFF
   \                     ??CrossCallReturnLabel_41:
   \   000112   12....       LCALL   ?XSTACK_DISP0_8
   \   000115   12....       LCALL   ?Subroutine19 & 0xFFFF
   \                     ??CrossCallReturnLabel_30:
   \   000118   12....       LCALL   `??osal_build_uint16::?relay`; Banked call to: osal_build_uint16
   \   00011B   7402         MOV     A,#0x2
   \   00011D   12....       LCALL   ?XSTACK_DISP0_8
   \   000120   12....       LCALL   ?Subroutine5 & 0xFFFF
   \                     ??CrossCallReturnLabel_4:
   \   000123   12....       LCALL   `??osal_build_uint16::?relay`; Banked call to: osal_build_uint16
   \   000126   8A..         MOV     ?V0,R2
   \   000128   8B..         MOV     ?V1,R3
   \   00012A   AC..         MOV     R4,?V0
   \   00012C   AD..         MOV     R5,?V1
   \   00012E                ; Setup parameters for call to function ZDP_NWKAddrOfInterestReq
   \   00012E   75..00       MOV     ?V0,#0x0
   \   000131   78..         MOV     R0,#?V0
   \   000133   12....       LCALL   ?PUSH_XSTACK_I_ONE
   \   000136   7902         MOV     R1,#0x2
   \   000138   02....       LJMP    ??MT_ZdoCommandProcessing_25 & 0xFFFF
    251                break;
    252          #endif
    253          
    254          #if defined ( ZDO_POWERDESC_REQUEST )
    255              case MT_ZDO_POWER_DESC_REQ:
    256                MT_ZdoPowerDescRequest(pBuf);
   \                     ??MT_ZdoCommandProcessing_3:
   \   00013B   7401         MOV     A,#0x1
   \   00013D   12....       LCALL   ?XSTACK_DISP0_8
   \   000140   12....       LCALL   ?Subroutine20 & 0xFFFF
   \                     ??CrossCallReturnLabel_42:
   \   000143   12....       LCALL   ?XSTACK_DISP0_8
   \   000146   12....       LCALL   ?Subroutine19 & 0xFFFF
   \                     ??CrossCallReturnLabel_31:
   \   000149   12....       LCALL   `??osal_build_uint16::?relay`; Banked call to: osal_build_uint16
   \   00014C   7402         MOV     A,#0x2
   \   00014E   12....       LCALL   ?XSTACK_DISP0_8
   \   000151   12....       LCALL   ?Subroutine5 & 0xFFFF
   \                     ??CrossCallReturnLabel_5:
   \   000154   12....       LCALL   `??osal_build_uint16::?relay`; Banked call to: osal_build_uint16
   \   000157   8A..         MOV     ?V0,R2
   \   000159   8B..         MOV     ?V1,R3
   \   00015B   AC..         MOV     R4,?V0
   \   00015D   AD..         MOV     R5,?V1
   \   00015F                ; Setup parameters for call to function ZDP_NWKAddrOfInterestReq
   \   00015F   75..00       MOV     ?V0,#0x0
   \   000162   78..         MOV     R0,#?V0
   \   000164   12....       LCALL   ?PUSH_XSTACK_I_ONE
   \   000167   7903         MOV     R1,#0x3
   \   000169   E9           MOV     A,R1
   \   00016A   02....       LJMP    ??MT_ZdoCommandProcessing_26 & 0xFFFF
    257                break;
    258          #endif
    259          
    260          #if defined ( ZDO_SIMPLEDESC_REQUEST )
    261              case MT_ZDO_SIMPLE_DESC_REQ:
    262                MT_ZdoSimpleDescRequest(pBuf);
   \                     ??MT_ZdoCommandProcessing_4:
   \   00016D   7401         MOV     A,#0x1
   \   00016F   12....       LCALL   ?XSTACK_DISP0_8
   \   000172   12....       LCALL   ?Subroutine20 & 0xFFFF
   \                     ??CrossCallReturnLabel_43:
   \   000175   12....       LCALL   ?XSTACK_DISP0_8
   \   000178   12....       LCALL   ?Subroutine19 & 0xFFFF
   \                     ??CrossCallReturnLabel_32:
   \   00017B   12....       LCALL   `??osal_build_uint16::?relay`; Banked call to: osal_build_uint16
   \   00017E   7402         MOV     A,#0x2
   \   000180   12....       LCALL   ?XSTACK_DISP0_8
   \   000183   12....       LCALL   ??Subroutine40_0 & 0xFFFF
   \                     ??CrossCallReturnLabel_84:
   \   000186   5001         JNC     ??MT_ZdoCommandProcessing_27
   \   000188   0F           INC     R7
   \                     ??MT_ZdoCommandProcessing_27:
   \   000189                ; Setup parameters for call to function osal_build_uint16
   \   000189   FA           MOV     R2,A
   \   00018A   EF           MOV     A,R7
   \   00018B   FB           MOV     R3,A
   \   00018C   12....       LCALL   `??osal_build_uint16::?relay`; Banked call to: osal_build_uint16
   \   00018F   8A..         MOV     ?V0,R2
   \   000191   8B..         MOV     ?V1,R3
   \   000193   AC..         MOV     R4,?V0
   \   000195   AD..         MOV     R5,?V1
   \   000197                ; Setup parameters for call to function ZDP_SimpleDescReq
   \   000197   75..00       MOV     ?V0,#0x0
   \   00019A   78..         MOV     R0,#?V0
   \   00019C   12....       LCALL   ?PUSH_XSTACK_I_ONE
   \   00019F   8E82         MOV     DPL,R6
   \   0001A1   8F83         MOV     DPH,R7
   \   0001A3   A3           INC     DPTR
   \   0001A4   A3           INC     DPTR
   \   0001A5   E0           MOVX    A,@DPTR
   \   0001A6   F9           MOV     R1,A
   \   0001A7   7403         MOV     A,#0x3
   \   0001A9   12....       LCALL   ?XSTACK_DISP101_8
   \   0001AC   12....       LCALL   `??ZDP_SimpleDescReq::?relay`; Banked call to: ZDP_SimpleDescReq
   \   0001AF   02....       LJMP    ??MT_ZdoCommandProcessing_28 & 0xFFFF
    263                break;
    264          #endif
    265          
    266          #if defined ( ZDO_ACTIVEEP_REQUEST )
    267              case MT_ZDO_ACTIVE_EP_REQ:
    268                MT_ZdoActiveEpRequest(pBuf);
   \                     ??MT_ZdoCommandProcessing_5:
   \   0001B2   7401         MOV     A,#0x1
   \   0001B4   12....       LCALL   ?XSTACK_DISP0_8
   \   0001B7   12....       LCALL   ?Subroutine20 & 0xFFFF
   \                     ??CrossCallReturnLabel_44:
   \   0001BA   12....       LCALL   ?XSTACK_DISP0_8
   \   0001BD   12....       LCALL   ?Subroutine19 & 0xFFFF
   \                     ??CrossCallReturnLabel_33:
   \   0001C0   12....       LCALL   `??osal_build_uint16::?relay`; Banked call to: osal_build_uint16
   \   0001C3   7402         MOV     A,#0x2
   \   0001C5   12....       LCALL   ?XSTACK_DISP0_8
   \   0001C8   12....       LCALL   ?Subroutine5 & 0xFFFF
   \                     ??CrossCallReturnLabel_6:
   \   0001CB   12....       LCALL   `??osal_build_uint16::?relay`; Banked call to: osal_build_uint16
   \   0001CE   8A..         MOV     ?V0,R2
   \   0001D0   8B..         MOV     ?V1,R3
   \   0001D2   AC..         MOV     R4,?V0
   \   0001D4   AD..         MOV     R5,?V1
   \   0001D6                ; Setup parameters for call to function ZDP_NWKAddrOfInterestReq
   \   0001D6   75..00       MOV     ?V0,#0x0
   \   0001D9   78..         MOV     R0,#?V0
   \   0001DB   12....       LCALL   ?PUSH_XSTACK_I_ONE
   \   0001DE   7905         MOV     R1,#0x5
   \   0001E0   8064         SJMP    ??MT_ZdoCommandProcessing_25
    269                break;
    270          #endif
    271          
    272          #if defined ( ZDO_MATCH_REQUEST )
    273              case MT_ZDO_MATCH_DESC_REQ:
    274                MT_ZdoMatchDescRequest(pBuf);
   \                     ??MT_ZdoCommandProcessing_6:
   \   0001E2                ; Setup parameters for call to function MT_ZdoMatchDescRequest
   \   0001E2   12....       LCALL   `??MT_ZdoMatchDescRequest::?relay`; Banked call to: MT_ZdoMatchDescRequest
    275                break;
   \   0001E5   02....       LJMP    ??MT_ZdoCommandProcessing_29 & 0xFFFF
    276          #endif
    277          
    278          #if defined ( ZDO_COMPLEXDESC_REQUEST )
    279              case MT_ZDO_COMPLEX_DESC_REQ:
    280                MT_ZdoComplexDescRequest(pBuf);
   \                     ??MT_ZdoCommandProcessing_7:
   \   0001E8   7401         MOV     A,#0x1
   \   0001EA   12....       LCALL   ?XSTACK_DISP0_8
   \   0001ED   12....       LCALL   ?Subroutine20 & 0xFFFF
   \                     ??CrossCallReturnLabel_45:
   \   0001F0   12....       LCALL   ?XSTACK_DISP0_8
   \   0001F3   12....       LCALL   ?Subroutine19 & 0xFFFF
   \                     ??CrossCallReturnLabel_34:
   \   0001F6   12....       LCALL   `??osal_build_uint16::?relay`; Banked call to: osal_build_uint16
   \   0001F9   7402         MOV     A,#0x2
   \   0001FB   12....       LCALL   ?XSTACK_DISP0_8
   \   0001FE   12....       LCALL   ?Subroutine5 & 0xFFFF
   \                     ??CrossCallReturnLabel_7:
   \   000201   12....       LCALL   `??osal_build_uint16::?relay`; Banked call to: osal_build_uint16
   \   000204   8A..         MOV     ?V0,R2
   \   000206   8B..         MOV     ?V1,R3
   \   000208   AC..         MOV     R4,?V0
   \   00020A   AD..         MOV     R5,?V1
   \   00020C                ; Setup parameters for call to function ZDP_NWKAddrOfInterestReq
   \   00020C   75..00       MOV     ?V0,#0x0
   \   00020F   78..         MOV     R0,#?V0
   \   000211   12....       LCALL   ?PUSH_XSTACK_I_ONE
   \   000214   7910         MOV     R1,#0x10
   \   000216   802E         SJMP    ??MT_ZdoCommandProcessing_25
    281                break;
    282          #endif
    283          
    284          #if defined ( ZDO_USERDESC_REQUEST )
    285              case MT_ZDO_USER_DESC_REQ:
    286                MT_ZdoUserDescRequest(pBuf);
   \                     ??MT_ZdoCommandProcessing_8:
   \   000218   7401         MOV     A,#0x1
   \   00021A   12....       LCALL   ?XSTACK_DISP0_8
   \   00021D   12....       LCALL   ?Subroutine20 & 0xFFFF
   \                     ??CrossCallReturnLabel_46:
   \   000220   12....       LCALL   ?XSTACK_DISP0_8
   \   000223   12....       LCALL   ?Subroutine19 & 0xFFFF
   \                     ??CrossCallReturnLabel_35:
   \   000226   12....       LCALL   `??osal_build_uint16::?relay`; Banked call to: osal_build_uint16
   \   000229   7402         MOV     A,#0x2
   \   00022B   12....       LCALL   ?XSTACK_DISP0_8
   \   00022E   12....       LCALL   ?Subroutine5 & 0xFFFF
   \                     ??CrossCallReturnLabel_8:
   \   000231   12....       LCALL   `??osal_build_uint16::?relay`; Banked call to: osal_build_uint16
   \   000234   8A..         MOV     ?V0,R2
   \   000236   8B..         MOV     ?V1,R3
   \   000238   AC..         MOV     R4,?V0
   \   00023A   AD..         MOV     R5,?V1
   \   00023C                ; Setup parameters for call to function ZDP_NWKAddrOfInterestReq
   \   00023C   75..00       MOV     ?V0,#0x0
   \   00023F   78..         MOV     R0,#?V0
   \   000241   12....       LCALL   ?PUSH_XSTACK_I_ONE
   \   000244   7911         MOV     R1,#0x11
   \                     ??MT_ZdoCommandProcessing_25:
   \   000246   7403         MOV     A,#0x3
   \                     ??MT_ZdoCommandProcessing_26:
   \   000248   12....       LCALL   ?XSTACK_DISP101_8
   \   00024B   12....       LCALL   `??ZDP_NWKAddrOfInterestReq::?relay`; Banked call to: ZDP_NWKAddrOfInterestReq
   \                     ??MT_ZdoCommandProcessing_28:
   \   00024E   7401         MOV     A,#0x1
   \   000250   12....       LCALL   ?DEALLOC_XSTACK8
   \                     ??MT_ZdoCommandProcessing_24:
   \   000253   12....       LCALL   ?Subroutine21 & 0xFFFF
   \                     ??CrossCallReturnLabel_91:
   \   000256   EB           MOV     A,R3
   \   000257   12....       LCALL   ?XSTACK_DISP0_8
   \   00025A   E0           MOVX    A,@DPTR
   \   00025B   FA           MOV     R2,A
   \   00025C   02....       LJMP    ??MT_ZdoCommandProcessing_30 & 0xFFFF
    287                break;
    288          #endif
    289          
    290          #if defined ( ZDO_ENDDEVICE_ANNCE )
    291              case MT_ZDO_END_DEV_ANNCE:
    292                MT_ZdoEndDevAnnce(pBuf);
   \                     ??MT_ZdoCommandProcessing_9:
   \   00025F   8F..         MOV     ?V15,R7
   \   000261   E8           MOV     A,R0
   \   000262   FE           MOV     R6,A
   \   000263   E9           MOV     A,R1
   \   000264   FF           MOV     R7,A
   \   000265                ; Setup parameters for call to function osal_build_uint16
   \   000265   0A           INC     R2
   \   000266   0A           INC     R2
   \   000267   0A           INC     R2
   \   000268   FB           MOV     R3,A
   \   000269   12....       LCALL   `??osal_build_uint16::?relay`; Banked call to: osal_build_uint16
   \   00026C   EE           MOV     A,R6
   \   00026D   2402         ADD     A,#0x2
   \   00026F   FE           MOV     R6,A
   \   000270   5001         JNC     ??MT_ZdoCommandProcessing_31
   \   000272   0F           INC     R7
   \                     ??MT_ZdoCommandProcessing_31:
   \   000273                ; Setup parameters for call to function ZDP_DeviceAnnce
   \   000273   75..00       MOV     ?V0,#0x0
   \   000276   78..         MOV     R0,#?V0
   \   000278   12....       LCALL   ?PUSH_XSTACK_I_ONE
   \   00027B   8E82         MOV     DPL,R6
   \   00027D   8F83         MOV     DPH,R7
   \   00027F   A3           INC     DPTR
   \   000280   A3           INC     DPTR
   \   000281   A3           INC     DPTR
   \   000282   A3           INC     DPTR
   \   000283   A3           INC     DPTR
   \   000284   A3           INC     DPTR
   \   000285   A3           INC     DPTR
   \   000286   A3           INC     DPTR
   \   000287   E0           MOVX    A,@DPTR
   \   000288   F9           MOV     R1,A
   \   000289   EE           MOV     A,R6
   \   00028A   FC           MOV     R4,A
   \   00028B   EF           MOV     A,R7
   \   00028C   FD           MOV     R5,A
   \   00028D   12....       LCALL   `??ZDP_DeviceAnnce::?relay`; Banked call to: ZDP_DeviceAnnce
   \   000290   7401         MOV     A,#0x1
   \   000292   12....       LCALL   ?DEALLOC_XSTACK8
   \   000295   12....       LCALL   ?Subroutine21 & 0xFFFF
   \                     ??CrossCallReturnLabel_92:
   \   000298   AA..         MOV     R2,?V15
   \   00029A   02....       LJMP    ??MT_ZdoCommandProcessing_30 & 0xFFFF
    293                break;
    294          #endif
    295          
    296          #if defined ( ZDO_USERDESCSET_REQUEST )
    297              case MT_ZDO_USER_DESC_SET:
    298                MT_ZdoUserDescSet(pBuf);
   \                     ??MT_ZdoCommandProcessing_10:
   \   00029D   8F..         MOV     ?V14,R7
   \   00029F   88..         MOV     ?V0,R0
   \   0002A1   89..         MOV     ?V1,R1
   \   0002A3   740A         MOV     A,#0xa
   \   0002A5   12....       LCALL   ?XSTACK_DISP0_8
   \   0002A8   7402         MOV     A,#0x2
   \   0002AA   F0           MOVX    @DPTR,A
   \   0002AB                ; Setup parameters for call to function osal_build_uint16
   \   0002AB   0A           INC     R2
   \   0002AC   0A           INC     R2
   \   0002AD   0A           INC     R2
   \   0002AE   AB..         MOV     R3,?V1
   \   0002B0   12....       LCALL   `??osal_build_uint16::?relay`; Banked call to: osal_build_uint16
   \   0002B3   7402         MOV     A,#0x2
   \   0002B5   12....       LCALL   ?XSTACK_DISP0_8
   \   0002B8   EA           MOV     A,R2
   \   0002B9   F0           MOVX    @DPTR,A
   \   0002BA   A3           INC     DPTR
   \   0002BB   EB           MOV     A,R3
   \   0002BC   F0           MOVX    @DPTR,A
   \   0002BD   E5..         MOV     A,?V0
   \   0002BF   2402         ADD     A,#0x2
   \   0002C1   F5..         MOV     ?V0,A
   \   0002C3   5002         JNC     ??MT_ZdoCommandProcessing_32
   \   0002C5   05..         INC     ?V1
   \                     ??MT_ZdoCommandProcessing_32:
   \   0002C7                ; Setup parameters for call to function osal_build_uint16
   \   0002C7   FA           MOV     R2,A
   \   0002C8   AB..         MOV     R3,?V1
   \   0002CA   12....       LCALL   `??osal_build_uint16::?relay`; Banked call to: osal_build_uint16
   \   0002CD   8A..         MOV     ?V2,R2
   \   0002CF   8B..         MOV     ?V3,R3
   \   0002D1   AE..         MOV     R6,?V2
   \   0002D3   85..82       MOV     DPL,?V0
   \   0002D6   85..83       MOV     DPH,?V1
   \   0002D9   A3           INC     DPTR
   \   0002DA   A3           INC     DPTR
   \   0002DB   E0           MOVX    A,@DPTR
   \   0002DC   C0E0         PUSH    A
   \   0002DE   740B         MOV     A,#0xb
   \   0002E0   12....       LCALL   ?XSTACK_DISP0_8
   \   0002E3   D0E0         POP     A
   \   0002E5   12....       LCALL   ?Subroutine23 & 0xFFFF
   \                     ??CrossCallReturnLabel_49:
   \   0002E8   A3           INC     DPTR
   \   0002E9   A982         MOV     R1,DPL
   \   0002EB   AA83         MOV     R2,DPH
   \   0002ED   89..         MOV     ?V0,R1
   \   0002EF   8A..         MOV     ?V1,R2
   \   0002F1   75..00       MOV     ?V2,#0x0
   \   0002F4   78..         MOV     R0,#?V0
   \   0002F6   12....       LCALL   ?PUSH_XSTACK_I_THREE
   \   0002F9   740E         MOV     A,#0xe
   \   0002FB   12....       LCALL   ?XSTACK_DISP0_8
   \   0002FE   E0           MOVX    A,@DPTR
   \   0002FF   FC           MOV     R4,A
   \   000300   7D00         MOV     R5,#0x0
   \   000302   740F         MOV     A,#0xf
   \   000304   12....       LCALL   ?XSTACK_DISP0_8
   \   000307   AA82         MOV     R2,DPL
   \   000309   AB83         MOV     R3,DPH
   \   00030B   12....       LCALL   `??osal_memcpy::?relay`; Banked call to: osal_memcpy
   \   00030E   7403         MOV     A,#0x3
   \   000310   12....       LCALL   ?DEALLOC_XSTACK8
   \   000313                ; Setup parameters for call to function ZDP_UserDescSet
   \   000313   740B         MOV     A,#0xb
   \   000315   12....       LCALL   ?XSTACK_DISP100_8
   \   000318   88..         MOV     ?V0,R0
   \   00031A   89..         MOV     ?V1,R1
   \   00031C   78..         MOV     R0,#?V0
   \   00031E   12....       LCALL   ?PUSH_XSTACK_I_TWO
   \   000321   7900         MOV     R1,#0x0
   \   000323   EE           MOV     A,R6
   \   000324   FC           MOV     R4,A
   \   000325   AD..         MOV     R5,?V3
   \   000327   7404         MOV     A,#0x4
   \   000329   12....       LCALL   ?XSTACK_DISP101_8
   \   00032C   12....       LCALL   `??ZDP_UserDescSet::?relay`; Banked call to: ZDP_UserDescSet
   \   00032F   7402         MOV     A,#0x2
   \   000331   12....       LCALL   ?DEALLOC_XSTACK8
   \   000334   12....       LCALL   ?Subroutine21 & 0xFFFF
   \                     ??CrossCallReturnLabel_93:
   \   000337   AA..         MOV     R2,?V14
   \   000339   02....       LJMP    ??MT_ZdoCommandProcessing_30 & 0xFFFF
    299                break;
    300          #endif
    301          
    302          #if defined ( ZDO_SERVERDISC_REQUEST )
    303              case MT_ZDO_SERVICE_DISC_REQ:
    304                MT_ZdoServiceDiscRequest(pBuf);
   \                     ??MT_ZdoCommandProcessing_11:
   \   00033C   8F..         MOV     ?V13,R7
   \   00033E                ; Setup parameters for call to function osal_build_uint16
   \   00033E   0A           INC     R2
   \   00033F   0A           INC     R2
   \   000340   0A           INC     R2
   \   000341   E9           MOV     A,R1
   \   000342   FB           MOV     R3,A
   \   000343   12....       LCALL   `??osal_build_uint16::?relay`; Banked call to: osal_build_uint16
   \   000346                ; Setup parameters for call to function ZDP_ServerDiscReq
   \   000346   7900         MOV     R1,#0x0
   \   000348   12....       LCALL   `??ZDP_ServerDiscReq::?relay`; Banked call to: ZDP_ServerDiscReq
   \   00034B   12....       LCALL   ?Subroutine21 & 0xFFFF
   \                     ??CrossCallReturnLabel_94:
   \   00034E   AA..         MOV     R2,?V13
   \   000350   02....       LJMP    ??MT_ZdoCommandProcessing_30 & 0xFFFF
    305                break;
    306          #endif
    307          
    308          #if defined ( ZDO_ENDDEVICEBIND_REQUEST )
    309              case MT_ZDO_END_DEV_BIND_REQ:
    310                MT_ZdoEndDevBindRequest(pBuf);
   \                     ??MT_ZdoCommandProcessing_12:
   \   000353                ; Setup parameters for call to function MT_ZdoEndDevBindRequest
   \   000353   12....       LCALL   `??MT_ZdoEndDevBindRequest::?relay`; Banked call to: MT_ZdoEndDevBindRequest
    311                break;
   \   000356   02....       LJMP    ??MT_ZdoCommandProcessing_29 & 0xFFFF
    312          #endif
    313          
    314          #if defined ( ZDO_BIND_UNBIND_REQUEST )
    315              case MT_ZDO_BIND_REQ:
    316                MT_ZdoBindRequest(pBuf);
   \                     ??MT_ZdoCommandProcessing_13:
   \   000359                ; Setup parameters for call to function MT_ZdoBindRequest
   \   000359   12....       LCALL   `??MT_ZdoBindRequest::?relay`; Banked call to: MT_ZdoBindRequest
    317                break;
   \   00035C   02....       LJMP    ??MT_ZdoCommandProcessing_29 & 0xFFFF
    318          #endif
    319          
    320          #if defined ( ZDO_BIND_UNBIND_REQUEST )
    321              case MT_ZDO_UNBIND_REQ:
    322                MT_ZdoUnbindRequest(pBuf);
   \                     ??MT_ZdoCommandProcessing_14:
   \   00035F                ; Setup parameters for call to function MT_ZdoUnbindRequest
   \   00035F   12....       LCALL   `??MT_ZdoUnbindRequest::?relay`; Banked call to: MT_ZdoUnbindRequest
    323                break;
   \   000362   02....       LJMP    ??MT_ZdoCommandProcessing_29 & 0xFFFF
    324          #endif
    325          
    326          #if defined ( MT_SYS_KEY_MANAGEMENT )
    327              case MT_ZDO_SET_LINK_KEY:
    328                MT_ZdoSetLinkKey(pBuf);
    329                break;
    330          
    331              case MT_ZDO_REMOVE_LINK_KEY:
    332                MT_ZdoRemoveLinkKey(pBuf);
    333                break;
    334          
    335              case MT_ZDO_GET_LINK_KEY:
    336                MT_ZdoGetLinkKey(pBuf);
    337                break;
    338          #endif // MT_SYS_KEY_MANAGEMENT
    339          
    340          #if defined ( ZDO_MANUAL_JOIN )
    341              case MT_ZDO_NWK_DISCOVERY_REQ:
    342                MT_ZdoNetworkDiscoveryReq(pBuf);
   \                     ??MT_ZdoCommandProcessing_15:
   \   000365   85..82       MOV     DPL,?XSP + 0
   \   000368   85..83       MOV     DPH,?XSP + 1
   \   00036B   7401         MOV     A,#0x1
   \   00036D   F0           MOVX    @DPTR,A
   \   00036E   8C82         MOV     DPL,R4
   \   000370   8D83         MOV     DPH,R5
   \   000372   E0           MOVX    A,@DPTR
   \   000373   F5..         MOV     ?V0,A
   \   000375   E8           MOV     A,R0
   \   000376   FE           MOV     R6,A
   \   000377   E9           MOV     A,R1
   \   000378   FF           MOV     R7,A
   \   000379                ; Setup parameters for call to function osal_build_uint32
   \   000379   7904         MOV     R1,#0x4
   \   00037B   0A           INC     R2
   \   00037C   0A           INC     R2
   \   00037D   0A           INC     R2
   \   00037E   FB           MOV     R3,A
   \   00037F   12....       LCALL   `??osal_build_uint32::?relay`; Banked call to: osal_build_uint32
   \   000382                ; Setup parameters for call to function ZDApp_NetworkDiscoveryReq
   \   000382   8E82         MOV     DPL,R6
   \   000384   8F83         MOV     DPH,R7
   \   000386   A3           INC     DPTR
   \   000387   A3           INC     DPTR
   \   000388   A3           INC     DPTR
   \   000389   A3           INC     DPTR
   \   00038A   E0           MOVX    A,@DPTR
   \   00038B   F9           MOV     R1,A
   \   00038C   12....       LCALL   `??ZDApp_NetworkDiscoveryReq::?relay`; Banked call to: ZDApp_NetworkDiscoveryReq
   \   00038F   E9           MOV     A,R1
   \   000390   85..82       MOV     DPL,?XSP + 0
   \   000393   85..83       MOV     DPH,?XSP + 1
   \   000396   F0           MOVX    @DPTR,A
   \   000397                ; Setup parameters for call to function ZDO_RegisterForZdoCB
   \   000397   7A..         MOV     R2,#`??MT_ZdoNwkDiscoveryCnfCB::?relay` & 0xff
   \   000399   7B..         MOV     R3,#(`??MT_ZdoNwkDiscoveryCnfCB::?relay` >> 8) & 0xff
   \   00039B   7902         MOV     R1,#0x2
   \   00039D   12....       LCALL   `??ZDO_RegisterForZdoCB::?relay`; Banked call to: ZDO_RegisterForZdoCB
   \   0003A0                ; Setup parameters for call to function ZDO_RegisterForZdoCB
   \   0003A0   7A..         MOV     R2,#`??MT_ZdoBeaconIndCB::?relay` & 0xff
   \   0003A2   7B..         MOV     R3,#(`??MT_ZdoBeaconIndCB::?relay` >> 8) & 0xff
   \   0003A4   7903         MOV     R1,#0x3
   \   0003A6   12....       LCALL   `??ZDO_RegisterForZdoCB::?relay`; Banked call to: ZDO_RegisterForZdoCB
   \   0003A9                ; Setup parameters for call to function MT_BuildAndSendZToolResponse
   \   0003A9   AC..         MOV     R4,?XSP + 0
   \   0003AB   AD..         MOV     R5,?XSP + 1
   \   0003AD   7B01         MOV     R3,#0x1
   \   0003AF   AA..         MOV     R2,?V0
   \   0003B1   02....       LJMP    ??MT_ZdoCommandProcessing_30 & 0xFFFF
    343                break;
    344          
    345              case MT_ZDO_JOIN_REQ:
    346                MT_ZdoJoinReq(pBuf);
   \                     ??MT_ZdoCommandProcessing_16:
   \   0003B4   85..82       MOV     DPL,?XSP + 0
   \   0003B7   85..83       MOV     DPH,?XSP + 1
   \   0003BA   7401         MOV     A,#0x1
   \   0003BC   F0           MOVX    @DPTR,A
   \   0003BD   8C82         MOV     DPL,R4
   \   0003BF   8D83         MOV     DPH,R5
   \   0003C1   E0           MOVX    A,@DPTR
   \   0003C2   F5..         MOV     ?V2,A
   \   0003C4   E8           MOV     A,R0
   \   0003C5   FE           MOV     R6,A
   \   0003C6   E9           MOV     A,R1
   \   0003C7   FF           MOV     R7,A
   \   0003C8                ; Setup parameters for call to function osal_build_uint16
   \   0003C8   8E82         MOV     DPL,R6
   \   0003CA   8F83         MOV     DPH,R7
   \   0003CC   A3           INC     DPTR
   \   0003CD   AA82         MOV     R2,DPL
   \   0003CF   AB83         MOV     R3,DPH
   \   0003D1   12....       LCALL   `??osal_build_uint16::?relay`; Banked call to: osal_build_uint16
   \   0003D4   8A..         MOV     ?V0,R2
   \   0003D6   8B..         MOV     ?V1,R3
   \   0003D8                ; Setup parameters for call to function osal_build_uint16
   \   0003D8   EE           MOV     A,R6
   \   0003D9   240B         ADD     A,#0xb
   \   0003DB   FA           MOV     R2,A
   \   0003DC   E4           CLR     A
   \   0003DD   3F           ADDC    A,R7
   \   0003DE   FB           MOV     R3,A
   \   0003DF   12....       LCALL   `??osal_build_uint16::?relay`; Banked call to: osal_build_uint16
   \   0003E2   8A..         MOV     ?V4,R2
   \   0003E4   8B..         MOV     ?V5,R3
   \   0003E6                ; Setup parameters for call to function ZDApp_JoinReq
   \   0003E6   EE           MOV     A,R6
   \   0003E7   240E         ADD     A,#0xe
   \   0003E9   12....       LCALL   ?Subroutine30 & 0xFFFF
   \                     ??CrossCallReturnLabel_64:
   \   0003EC   12....       LCALL   ?PUSH_XSTACK_I_ONE
   \   0003EF   EE           MOV     A,R6
   \   0003F0   240D         ADD     A,#0xd
   \   0003F2   12....       LCALL   ?Subroutine30 & 0xFFFF
   \                     ??CrossCallReturnLabel_65:
   \   0003F5   12....       LCALL   ?PUSH_XSTACK_I_ONE
   \   0003F8   78..         MOV     R0,#?V4
   \   0003FA   12....       LCALL   ?PUSH_XSTACK_I_TWO
   \   0003FD   EE           MOV     A,R6
   \   0003FE   2403         ADD     A,#0x3
   \   000400   FC           MOV     R4,A
   \   000401   E4           CLR     A
   \   000402   3F           ADDC    A,R7
   \   000403   FD           MOV     R5,A
   \   000404   AA..         MOV     R2,?V0
   \   000406   AB..         MOV     R3,?V1
   \   000408   8E82         MOV     DPL,R6
   \   00040A   8F83         MOV     DPH,R7
   \   00040C   E0           MOVX    A,@DPTR
   \   00040D   F9           MOV     R1,A
   \   00040E   12....       LCALL   `??ZDApp_JoinReq::?relay`; Banked call to: ZDApp_JoinReq
   \   000411   7404         MOV     A,#0x4
   \   000413   12....       LCALL   ?DEALLOC_XSTACK8
   \   000416   E9           MOV     A,R1
   \   000417   85..82       MOV     DPL,?XSP + 0
   \   00041A   85..83       MOV     DPH,?XSP + 1
   \   00041D   F0           MOVX    @DPTR,A
   \   00041E                ; Setup parameters for call to function ZDO_RegisterForZdoCB
   \   00041E   7A..         MOV     R2,#`??MT_ZdoJoinCnfCB::?relay` & 0xff
   \   000420   7B..         MOV     R3,#(`??MT_ZdoJoinCnfCB::?relay` >> 8) & 0xff
   \   000422   7904         MOV     R1,#0x4
   \   000424   12....       LCALL   `??ZDO_RegisterForZdoCB::?relay`; Banked call to: ZDO_RegisterForZdoCB
   \   000427                ; Setup parameters for call to function MT_BuildAndSendZToolResponse
   \   000427   AC..         MOV     R4,?XSP + 0
   \   000429   AD..         MOV     R5,?XSP + 1
   \   00042B   7B01         MOV     R3,#0x1
   \   00042D   AA..         MOV     R2,?V2
   \   00042F   02....       LJMP    ??MT_ZdoCommandProcessing_30 & 0xFFFF
    347                break;
    348          #endif
    349          
    350          #if defined ( ZDO_MGMT_NWKDISC_REQUEST )
    351              case MT_ZDO_MGMT_NWKDISC_REQ:
    352                MT_ZdoMgmtNwkDiscRequest(pBuf);
    353                break;
    354          #endif
    355          
    356          #if defined ( ZDO_MGMT_LQI_REQUEST )
    357              case MT_ZDO_MGMT_LQI_REQ:
    358                MT_ZdoMgmtLqiRequest(pBuf);
    359                break;
    360          #endif
    361          
    362          #if defined ( ZDO_MGMT_RTG_REQUEST )
    363              case MT_ZDO_MGMT_RTG_REQ:
    364                MT_ZdoMgmtRtgRequest(pBuf);
    365                break;
    366          #endif
    367          
    368          #if defined ( ZDO_MGMT_BIND_REQUEST )
    369              case MT_ZDO_MGMT_BIND_REQ:
    370                MT_ZdoMgmtBindRequest(pBuf);
    371                break;
    372          #endif
    373          
    374          #if defined ( ZDO_MGMT_LEAVE_REQUEST )
    375              case MT_ZDO_MGMT_LEAVE_REQ:
    376                MT_ZdoMgmtLeaveRequest(pBuf);
    377                break;
    378          #endif
    379          
    380          #if defined ( ZDO_MGMT_JOINDIRECT_REQUEST )
    381              case MT_ZDO_MGMT_DIRECT_JOIN_REQ:
    382                MT_ZdoMgmtDirectJoinRequest(pBuf);
    383                break;
    384          #endif
    385          
    386          #if defined ( ZDO_MGMT_PERMIT_JOIN_REQUEST )
    387              case MT_ZDO_MGMT_PERMIT_JOIN_REQ:
    388                MT_ZdoMgmtPermitJoinRequest(pBuf);
    389                break;
    390          #endif
    391          
    392          #if defined ( ZDO_MGMT_NWKUPDATE_REQUEST )
    393              case MT_ZDO_MGMT_NWK_UPDATE_REQ:
    394                MT_ZdoMgmtNwkUpdateRequest(pBuf);
    395                break;
    396          #endif
    397          
    398          #if defined ( ZDO_NETWORKSTART_REQUEST )
    399              case MT_ZDO_STARTUP_FROM_APP:
    400                MT_ZdoStartupFromApp(pBuf);
   \                     ??MT_ZdoCommandProcessing_21:
   \   000432   8A82         MOV     DPL,R2
   \   000434   8B83         MOV     DPH,R3
   \   000436   A3           INC     DPTR
   \   000437   E0           MOVX    A,@DPTR
   \   000438   FE           MOV     R6,A
   \   000439   8F..         MOV     ?V7,R7
   \   00043B                ; Setup parameters for call to function ZDOInitDevice
   \   00043B   7A64         MOV     R2,#0x64
   \   00043D   7B00         MOV     R3,#0x0
   \   00043F   12....       LCALL   `??ZDOInitDevice::?relay`; Banked call to: ZDOInitDevice
   \   000442   12....       LCALL   ?Subroutine24 & 0xFFFF
   \                     ??CrossCallReturnLabel_51:
   \   000445   6003         JZ      $+5
   \   000447   02....       LJMP    ??MT_ZdoCommandProcessing_29 & 0xFFFF
   \   00044A                ; Setup parameters for call to function MT_BuildAndSendZToolResponse
   \   00044A   AC..         MOV     R4,?XSP + 0
   \   00044C   AD..         MOV     R5,?XSP + 1
   \   00044E   7B01         MOV     R3,#0x1
   \   000450   AA..         MOV     R2,?V7
   \   000452   02....       LJMP    ??MT_ZdoCommandProcessing_30 & 0xFFFF
    401                break;
    402          #endif
    403          
    404              case MT_ZDO_SEND_DATA:
    405                MT_ZdoSendData( pBuf );
   \                     ??MT_ZdoCommandProcessing_17:
   \   000455                ; Setup parameters for call to function MT_ZdoSendData
   \   000455   12....       LCALL   `??MT_ZdoSendData::?relay`; Banked call to: MT_ZdoSendData
    406                break;
   \   000458   02....       LJMP    ??MT_ZdoCommandProcessing_29 & 0xFFFF
    407          
    408              case MT_ZDO_NWK_ADDR_OF_INTEREST_REQ:
    409                MT_ZdoNwkAddrOfInterestReq( pBuf );
   \                     ??MT_ZdoCommandProcessing_18:
   \   00045B                ; Setup parameters for call to function MT_ZdoNwkAddrOfInterestReq
   \   00045B   12....       LCALL   `??MT_ZdoNwkAddrOfInterestReq::?relay`; Banked call to: MT_ZdoNwkAddrOfInterestReq
    410                break;
   \   00045E   02....       LJMP    ??MT_ZdoCommandProcessing_29 & 0xFFFF
    411          
    412              case MT_ZDO_MSG_CB_REGISTER:
    413                MT_ZdoRegisterForZDOMsg(pBuf);
   \                     ??MT_ZdoCommandProcessing_19:
   \   000461   8A82         MOV     DPL,R2
   \   000463   8B83         MOV     DPH,R3
   \   000465   A3           INC     DPTR
   \   000466   E0           MOVX    A,@DPTR
   \   000467   FE           MOV     R6,A
   \   000468   8F..         MOV     ?V6,R7
   \   00046A                ; Setup parameters for call to function osal_build_uint16
   \   00046A   0A           INC     R2
   \   00046B   0A           INC     R2
   \   00046C   0A           INC     R2
   \   00046D   E9           MOV     A,R1
   \   00046E   FB           MOV     R3,A
   \   00046F   12....       LCALL   `??osal_build_uint16::?relay`; Banked call to: osal_build_uint16
   \   000472                ; Setup parameters for call to function ZDO_RegisterForZDOMsg
   \   000472   90....       MOV     DPTR,#MT_TaskID
   \   000475   E0           MOVX    A,@DPTR
   \   000476   F9           MOV     R1,A
   \   000477   12....       LCALL   `??ZDO_RegisterForZDOMsg::?relay`; Banked call to: ZDO_RegisterForZDOMsg
   \   00047A   12....       LCALL   ?Subroutine24 & 0xFFFF
   \                     ??CrossCallReturnLabel_52:
   \   00047D   7078         JNZ     ??MT_ZdoCommandProcessing_29
   \   00047F                ; Setup parameters for call to function MT_BuildAndSendZToolResponse
   \   00047F   AC..         MOV     R4,?XSP + 0
   \   000481   AD..         MOV     R5,?XSP + 1
   \   000483   7B01         MOV     R3,#0x1
   \   000485   AA..         MOV     R2,?V6
   \   000487   8064         SJMP    ??MT_ZdoCommandProcessing_30
    414                break;
    415          
    416              case MT_ZDO_MSG_CB_REMOVE:
    417                MT_ZdoRemoveRegisteredCB(pBuf);
   \                     ??MT_ZdoCommandProcessing_20:
   \   000489   8A82         MOV     DPL,R2
   \   00048B   8B83         MOV     DPH,R3
   \   00048D   A3           INC     DPTR
   \   00048E   E0           MOVX    A,@DPTR
   \   00048F   FE           MOV     R6,A
   \   000490   8F..         MOV     ?V5,R7
   \   000492                ; Setup parameters for call to function osal_build_uint16
   \   000492   0A           INC     R2
   \   000493   0A           INC     R2
   \   000494   0A           INC     R2
   \   000495   E9           MOV     A,R1
   \   000496   FB           MOV     R3,A
   \   000497   12....       LCALL   `??osal_build_uint16::?relay`; Banked call to: osal_build_uint16
   \   00049A                ; Setup parameters for call to function ZDO_RemoveRegisteredCB
   \   00049A   90....       MOV     DPTR,#MT_TaskID
   \   00049D   E0           MOVX    A,@DPTR
   \   00049E   F9           MOV     R1,A
   \   00049F   12....       LCALL   `??ZDO_RemoveRegisteredCB::?relay`; Banked call to: ZDO_RemoveRegisteredCB
   \   0004A2   12....       LCALL   ?Subroutine24 & 0xFFFF
   \                     ??CrossCallReturnLabel_53:
   \   0004A5   7050         JNZ     ??MT_ZdoCommandProcessing_29
   \   0004A7                ; Setup parameters for call to function MT_BuildAndSendZToolResponse
   \   0004A7   AC..         MOV     R4,?XSP + 0
   \   0004A9   AD..         MOV     R5,?XSP + 1
   \   0004AB   7B01         MOV     R3,#0x1
   \   0004AD   AA..         MOV     R2,?V5
   \   0004AF   803C         SJMP    ??MT_ZdoCommandProcessing_30
    418                break;
    419          
    420              case MT_ZDO_SET_REJOIN_PARAMS:
    421                MT_ZdoSetRejoinParameters(pBuf);
   \                     ??MT_ZdoCommandProcessing_22:
   \   0004B1   8F..         MOV     ?V4,R7
   \   0004B3   E8           MOV     A,R0
   \   0004B4   FE           MOV     R6,A
   \   0004B5   E9           MOV     A,R1
   \   0004B6   FF           MOV     R7,A
   \   0004B7                ; Setup parameters for call to function osal_build_uint32
   \   0004B7   7904         MOV     R1,#0x4
   \   0004B9   0A           INC     R2
   \   0004BA   0A           INC     R2
   \   0004BB   0A           INC     R2
   \   0004BC   FB           MOV     R3,A
   \   0004BD   12....       LCALL   `??osal_build_uint32::?relay`; Banked call to: osal_build_uint32
   \   0004C0   8A..         MOV     ?V0,R2
   \   0004C2   8B..         MOV     ?V1,R3
   \   0004C4   8C..         MOV     ?V2,R4
   \   0004C6   8D..         MOV     ?V3,R5
   \   0004C8                ; Setup parameters for call to function osal_build_uint32
   \   0004C8   7904         MOV     R1,#0x4
   \   0004CA   EE           MOV     A,R6
   \   0004CB   29           ADD     A,R1
   \   0004CC   FA           MOV     R2,A
   \   0004CD   E4           CLR     A
   \   0004CE   3F           ADDC    A,R7
   \   0004CF   FB           MOV     R3,A
   \   0004D0   12....       LCALL   `??osal_build_uint32::?relay`; Banked call to: osal_build_uint32
   \   0004D3                ; Setup parameters for call to function ZDApp_SetRejoinScanDuration
   \   0004D3   12....       LCALL   `??ZDApp_SetRejoinScanDuration::?relay`; Banked call to: ZDApp_SetRejoinScanDuration
   \   0004D6                ; Setup parameters for call to function ZDApp_SetRejoinBackoffDuration
   \   0004D6   AA..         MOV     R2,?V0
   \   0004D8   AB..         MOV     R3,?V1
   \   0004DA   AC..         MOV     R4,?V2
   \   0004DC   AD..         MOV     R5,?V3
   \   0004DE   12....       LCALL   `??ZDApp_SetRejoinBackoffDuration::?relay`; Banked call to: ZDApp_SetRejoinBackoffDuration
   \   0004E1   85..82       MOV     DPL,?XSP + 0
   \   0004E4   85..83       MOV     DPH,?XSP + 1
   \   0004E7   E4           CLR     A
   \   0004E8   12....       LCALL   ??Subroutine41_0 & 0xFFFF
   \                     ??CrossCallReturnLabel_96:
   \   0004EB   AA..         MOV     R2,?V4
   \                     ??MT_ZdoCommandProcessing_30:
   \   0004ED   7965         MOV     R1,#0x65
   \   0004EF   12....       LCALL   `??MT_BuildAndSendZToolResponse::?relay`; Banked call to: MT_BuildAndSendZToolResponse
    422                break;
   \   0004F2   8003         SJMP    ??MT_ZdoCommandProcessing_29
    423          
    424          #if defined ( MT_ZDO_EXTENSIONS )
    425          #if ( ZG_BUILD_COORDINATOR_TYPE )
    426              case MT_ZDO_EXT_UPDATE_NWK_KEY:
    427                MT_ZdoSecUpdateNwkKey( pBuf );
    428                break;
    429          
    430              case MT_ZDO_EXT_SWITCH_NWK_KEY:
    431                MT_ZdoSecSwitchNwkKey( pBuf );
    432                break;
    433          #endif // ZDO_COORDINATOR
    434              case MT_ZDO_SEC_ADD_LINK_KEY:
    435                MT_ZdoSecAddLinkKey( pBuf );
    436                break;
    437          
    438              case MT_ZDO_SEC_ENTRY_LOOKUP_EXT:
    439                MT_ZdoSecEntryLookupExt( pBuf );
    440                break;
    441          
    442              case MT_ZDO_SEC_DEVICE_REMOVE:
    443                 MT_ZdoSecDeviceRemove( pBuf );
    444                 break;
    445          
    446              case MT_ZDO_EXT_ROUTE_DISC:
    447                 MT_ZdoExtRouteDisc( pBuf );
    448                 break;
    449          
    450              case MT_ZDO_EXT_ROUTE_CHECK:
    451                 MT_ZdoExtRouteCheck( pBuf );
    452                 break;
    453          
    454              case MT_ZDO_EXT_REMOVE_GROUP:
    455                MT_ZdoExtRemoveGroup( pBuf );
    456                break;
    457          
    458              case MT_ZDO_EXT_REMOVE_ALL_GROUP:
    459                MT_ZdoExtRemoveAllGroup( pBuf );
    460                break;
    461          
    462              case MT_ZDO_EXT_FIND_ALL_GROUPS_ENDPOINT:
    463                MT_ZdoExtFindAllGroupsEndpoint( pBuf );
    464                break;
    465          
    466              case MT_ZDO_EXT_FIND_GROUP:
    467                MT_ZdoExtFindGroup( pBuf );
    468                break;
    469          
    470              case MT_ZDO_EXT_ADD_GROUP:
    471                MT_ZdoExtAddGroup( pBuf );
    472                break;
    473          
    474              case MT_ZDO_EXT_COUNT_ALL_GROUPS:
    475                MT_ZdoExtCountAllGroups( pBuf );
    476                break;
    477          
    478              case MT_ZDO_EXT_RX_IDLE:
    479                MT_ZdoExtRxIdle( pBuf );
    480                break;
    481          
    482              case MT_ZDO_EXT_NWK_INFO:
    483                MT_ZdoExtNwkInfo( pBuf );
    484                break;
    485          
    486              case MT_ZDO_EXT_SEC_APS_REMOVE_REQ:
    487                MT_ZdoExtSecApsRemoveReq( pBuf );
    488                break;
    489          
    490              case MT_ZDO_FORCE_CONCENTRATOR_CHANGE:
    491                ZDApp_ForceConcentratorChange();
    492                break;
    493          
    494              case MT_ZDO_EXT_SET_PARAMS:
    495                MT_ZdoExtSetParams( pBuf );
    496                break;
    497          #endif  // MT_ZDO_EXTENSIONS
    498          
    499              default:
    500                status = MT_RPC_ERR_COMMAND_ID;
   \                     ??MT_ZdoCommandProcessing_23:
   \   0004F4   75..02       MOV     ?V12,#0x2
    501                break;
    502            }
    503          
    504            return status;
   \                     ??MT_ZdoCommandProcessing_29:
   \   0004F7   A9..         MOV     R1,?V12
   \   0004F9   741C         MOV     A,#0x1c
   \   0004FB   12....       LCALL   ?DEALLOC_XSTACK8
   \   0004FE   7F10         MOV     R7,#0x10
   \   000500   02....       LJMP    ?BANKED_LEAVE_XDATA
    505          }

   \                                 In  segment BANKED_CODE, align 1, keep-with-next
   \                     ?Subroutine24:
   \   000000   E9           MOV     A,R1
   \   000001   85..82       MOV     DPL,?XSP + 0
   \   000004   85..83       MOV     DPH,?XSP + 1
   \   000007   F0           MOVX    @DPTR,A
   \   000008   74E0         MOV     A,#-0x20
   \   00000A   5E           ANL     A,R6
   \   00000B   6420         XRL     A,#0x20
   \   00000D   22           RET
    506          
    507          /***************************************************************************************************
    508           * @fn      MT_ZdoNwkAddrReq
    509           *
    510           * @brief   Handle a nwk address request.
    511           *
    512           * @param   pData  - MT message data
    513           *
    514           * @return  void
    515           ***************************************************************************************************/
    516          static void MT_ZdoNWKAddressRequest(uint8 *pBuf)
    517          {
    518            uint8 cmdId;
    519            uint8 retValue;
    520            uint8 reqType;
    521            uint8 startIndex;
    522            uint8 *pExtAddr;
    523          
    524            /* parse header */
    525            cmdId = pBuf[MT_RPC_POS_CMD1];
    526            pBuf += MT_RPC_FRAME_HDR_SZ;
    527          
    528            /* parse parameters */
    529            pExtAddr = pBuf;
    530            pBuf += Z_EXTADDR_LEN;
    531          
    532            /* Request type */
    533            reqType = *pBuf++;
    534          
    535            /* Start index */
    536            startIndex = *pBuf;
    537          
    538            retValue = (uint8)ZDP_NwkAddrReq(pExtAddr, reqType, startIndex, 0);
    539          
    540            /* Build and send back the response */
    541            MT_BuildAndSendZToolResponse(((uint8)MT_RPC_CMD_SRSP | (uint8)MT_RPC_SYS_ZDO), cmdId, 1, &retValue);
    542          
    543          #if defined ( MT_ZDO_EXTENSIONS )
    544            {
    545              // Force a response message if the ext address matches a child of this device
    546              associated_devices_t *pAssoc;
    547              uint8 buf[21];
    548              uint8 *pBuf = buf;
    549          
    550              if ( (ZSTACK_ROUTER_BUILD)
    551                && (((pAssoc = AssocGetWithExt( pExtAddr )) != NULL)
    552                       && (pAssoc->nodeRelation == CHILD_RFD)) )
    553              {
    554                uint16 nwkAddr = NLME_GetShortAddr();
    555          
    556                *pBuf++ = LO_UINT16(nwkAddr);
    557                *pBuf++ = HI_UINT16(nwkAddr);
    558                *pBuf++ = 0;
    559                *pBuf++ = LO_UINT16(NWK_addr_rsp);
    560                *pBuf++ = HI_UINT16(NWK_addr_rsp);
    561                *pBuf++ = 0;
    562                *pBuf++ = 0;
    563                *pBuf++ = LO_UINT16(nwkAddr);
    564                *pBuf++ = HI_UINT16(nwkAddr);
    565          
    566                *pBuf++ = ZSuccess;
    567          
    568                pBuf = osal_cpyExtAddr( pBuf, pExtAddr );
    569          
    570                *pBuf++ = LO_UINT16( pAssoc->shortAddr );
    571                *pBuf++ = HI_UINT16( pAssoc->shortAddr );
    572                *pBuf = 0;
    573          
    574                MT_BuildAndSendZToolResponse( ((uint8)MT_RPC_CMD_AREQ | (uint8)MT_RPC_SYS_ZDO),
    575                                            MT_ZDO_MSG_CB_INCOMING, 21, buf );
    576              }
    577            }
    578          #endif
    579          }
    580          
    581          /***************************************************************************************************
    582           * @fn      MT_ZdoIEEEAddrRequest
    583           *
    584           * @brief   Handle a IEEE address request.
    585           *
    586           * @param   pData  - MT message data
    587           *
    588           * @return  void
    589           ***************************************************************************************************/
    590          static void MT_ZdoIEEEAddrRequest (uint8 *pBuf)
    591          {
    592            uint8 cmdId;
    593            uint8 retValue;
    594            uint16 shortAddr;
    595            uint8 reqType;
    596            uint8 startIndex;
    597          
    598            /* parse header */
    599            cmdId = pBuf[MT_RPC_POS_CMD1];
    600            pBuf += MT_RPC_FRAME_HDR_SZ;
    601          
    602            /* Dev address */
    603            shortAddr = osal_build_uint16( pBuf );
    604            pBuf += 2;
    605          
    606            /* request type */
    607            reqType = *pBuf++;
    608          
    609            /* start index */
    610            startIndex = *pBuf;
    611          
    612            retValue = (uint8)ZDP_IEEEAddrReq(shortAddr, reqType, startIndex, 0);
    613          
    614            MT_BuildAndSendZToolResponse(((uint8)MT_RPC_CMD_SRSP | (uint8)MT_RPC_SYS_ZDO), cmdId, 1, &retValue);
    615          }
    616          
    617          /***************************************************************************************************
    618           * @fn      MT_ZdoNodeDescRequest
    619           *
    620           * @brief   Handle a Node Descriptor request.
    621           *
    622           * @param   pData  - MT message data
    623           *
    624           * @return  void
    625           ***************************************************************************************************/
    626          static void MT_ZdoNodeDescRequest (uint8 *pBuf)
    627          {
    628            uint8 cmdId;
    629            uint8 retValue;
    630            zAddrType_t destAddr;
    631            uint16 shortAddr;
    632          
    633            /* parse header */
    634            cmdId = pBuf[MT_RPC_POS_CMD1];
    635            pBuf += MT_RPC_FRAME_HDR_SZ;
    636          
    637            /* Destination address */
    638            destAddr.addrMode = Addr16Bit;
    639            destAddr.addr.shortAddr = osal_build_uint16( pBuf );
    640            pBuf += 2;
    641          
    642            /* Network address of interest */
    643            shortAddr = osal_build_uint16( pBuf );
    644          
    645            retValue = (uint8)ZDP_NodeDescReq( &destAddr, shortAddr, 0);
    646          
    647            MT_BuildAndSendZToolResponse(((uint8)MT_RPC_CMD_SRSP | (uint8)MT_RPC_SYS_ZDO), cmdId, 1, &retValue);
    648          }
    649          
    650          /***************************************************************************************************
    651           * @fn      MT_ZdoPowerDescRequest
    652           *
    653           * @brief   Handle a Power Descriptor request.
    654           *
    655           * @param   pData  - MT message data
    656           *
    657           * @return  void
    658           ***************************************************************************************************/
    659          static void MT_ZdoPowerDescRequest(uint8 *pBuf)
    660          {
    661            uint8 cmdId;
    662            uint8 retValue;
    663            zAddrType_t destAddr;
    664            uint16 shortAddr;
    665          
    666            /* parse header */
    667            cmdId = pBuf[MT_RPC_POS_CMD1];
    668            pBuf += MT_RPC_FRAME_HDR_SZ;
    669          
    670            /* Dev address */
    671            destAddr.addrMode = Addr16Bit;
    672            destAddr.addr.shortAddr = osal_build_uint16( pBuf );
    673            pBuf += 2;
    674          
    675            /* Network address of interest */
    676            shortAddr = osal_build_uint16( pBuf );
    677          
    678            retValue = (uint8)ZDP_PowerDescReq( &destAddr, shortAddr, 0);
    679          
    680            MT_BuildAndSendZToolResponse(((uint8)MT_RPC_CMD_SRSP | (uint8)MT_RPC_SYS_ZDO), cmdId, 1, &retValue);
    681          }
    682          
    683          /***************************************************************************************************
    684           * @fn      MT_ZdoSimpleDescRequest
    685           *
    686           * @brief   Handle a Simple Descriptor request.
    687           *
    688           * @param   pBuf  - MT message data
    689           *
    690           * @return  void
    691           ***************************************************************************************************/
    692          static void MT_ZdoSimpleDescRequest(uint8 *pBuf)
    693          {
    694            uint8 cmdId;
    695            uint8 retValue;
    696            uint8 epInt;
    697            zAddrType_t destAddr;
    698            uint16 shortAddr;
    699          
    700            /* parse header */
    701            cmdId = pBuf[MT_RPC_POS_CMD1];
    702            pBuf += MT_RPC_FRAME_HDR_SZ;
    703          
    704            /* Dev address */
    705            destAddr.addrMode = Addr16Bit;
    706            destAddr.addr.shortAddr = osal_build_uint16( pBuf );
    707            pBuf += 2;
    708          
    709            /* Network address of interest */
    710            shortAddr = osal_build_uint16( pBuf );
    711            pBuf += 2;
    712          
    713            /* endpoint/interface */
    714            epInt = *pBuf;
    715          
    716            retValue = (uint8)ZDP_SimpleDescReq( &destAddr, shortAddr, epInt, 0);
    717          
    718            MT_BuildAndSendZToolResponse(((uint8)MT_RPC_CMD_SRSP | (uint8)MT_RPC_SYS_ZDO), cmdId, 1, &retValue);
    719          }
    720          
    721          /***************************************************************************************************
    722           * @fn      MT_ZdoActiveEpRequest
    723           *
    724           * @brief   Handle a Active EP request.
    725           *
    726           * @param   pBuf  - MT message data
    727           *
    728           * @return  void
    729           ***************************************************************************************************/
    730          static void MT_ZdoActiveEpRequest(uint8 *pBuf)
    731          {
    732            uint8 cmdId;
    733            uint8 retValue;
    734            zAddrType_t destAddr;
    735            uint16 shortAddr;
    736          
    737            /* parse header */
    738            cmdId = pBuf[MT_RPC_POS_CMD1];
    739            pBuf += MT_RPC_FRAME_HDR_SZ;
    740          
    741            /* Dev address */
    742            destAddr.addrMode = Addr16Bit;
    743            destAddr.addr.shortAddr = osal_build_uint16( pBuf );
    744            pBuf += 2;
    745          
    746            /* Network address of interest */
    747            shortAddr = osal_build_uint16( pBuf );
    748          
    749            retValue = (uint8)ZDP_ActiveEPReq( &destAddr, shortAddr, 0);
    750          
    751            MT_BuildAndSendZToolResponse(((uint8)MT_RPC_CMD_SRSP | (uint8)MT_RPC_SYS_ZDO), cmdId, 1, &retValue);
    752          }
    753          
    754          /***************************************************************************************************
    755           * @fn      MT_ZdoMatchDescRequest
    756           *
    757           * @brief   Handle a Match Descriptor request.
    758           *
    759           * @param   pBuf  - MT message data
    760           *
    761           * @return  void
    762           ***************************************************************************************************/

   \                                 In  segment BANKED_CODE, align 1, keep-with-next
    763          static void MT_ZdoMatchDescRequest(uint8 *pBuf)
   \                     MT_ZdoMatchDescRequest:
    764          {
   \   000000                REQUIRE ?V0
   \   000000                REQUIRE ?V1
   \   000000                REQUIRE ?V2
   \   000000                REQUIRE ?V3
   \   000000                REQUIRE ?V4
   \   000000                REQUIRE ?V5
   \   000000                REQUIRE ?V6
   \   000000                REQUIRE ?V7
   \   000000                REQUIRE ?V8
   \   000000                REQUIRE ?V9
   \   000000   74EE         MOV     A,#-0x12
   \   000002   12....       LCALL   ?BANKED_ENTER_XDATA
   \   000005                ; Saved register size: 18
   \   000005                ; Auto size: 74
   \   000005   74B6         MOV     A,#-0x4a
   \   000007   12....       LCALL   ?ALLOC_XSTACK8
   \   00000A   12....       LCALL   ?Subroutine27 & 0xFFFF
    765            uint8 cmdId;
    766            uint8 retValue = 0;
    767            uint8 i, numInClusters, numOutClusters;
    768            uint16 profileId;
    769            zAddrType_t destAddr;
    770            uint16 shortAddr;
    771            uint16 inClusters[MTZDO_MAX_MATCH_CLUSTERS], outClusters[MTZDO_MAX_MATCH_CLUSTERS];
    772          
    773            /* parse header */
    774            cmdId = pBuf[MT_RPC_POS_CMD1];
   \                     ??CrossCallReturnLabel_59:
   \   00000D   F5..         MOV     ?V3,A
    775            pBuf += MT_RPC_FRAME_HDR_SZ;
   \   00000F   EE           MOV     A,R6
   \   000010   2403         ADD     A,#0x3
   \   000012   FE           MOV     R6,A
   \   000013   5001         JNC     ??MT_ZdoMatchDescRequest_0
   \   000015   0F           INC     R7
    776          
    777            /* Dev address */
    778            destAddr.addrMode = Addr16Bit;
   \                     ??MT_ZdoMatchDescRequest_0:
   \   000016   7409         MOV     A,#0x9
   \   000018   12....       LCALL   ?XSTACK_DISP0_8
   \   00001B   12....       LCALL   ?Subroutine19 & 0xFFFF
    779            destAddr.addr.shortAddr = osal_build_uint16( pBuf );
   \                     ??CrossCallReturnLabel_36:
   \   00001E   12....       LCALL   `??osal_build_uint16::?relay`; Banked call to: osal_build_uint16
   \   000021   7401         MOV     A,#0x1
   \   000023   12....       LCALL   ?XSTACK_DISP0_8
   \   000026   12....       LCALL   ??Subroutine40_0 & 0xFFFF
    780            pBuf += 2;
   \                     ??CrossCallReturnLabel_85:
   \   000029   5001         JNC     ??MT_ZdoMatchDescRequest_1
   \   00002B   0F           INC     R7
    781          
    782            /* Network address of interest */
    783            shortAddr = osal_build_uint16( pBuf );
   \                     ??MT_ZdoMatchDescRequest_1:
   \   00002C                ; Setup parameters for call to function osal_build_uint16
   \   00002C   FA           MOV     R2,A
   \   00002D   EF           MOV     A,R7
   \   00002E   FB           MOV     R3,A
   \   00002F   12....       LCALL   `??osal_build_uint16::?relay`; Banked call to: osal_build_uint16
   \   000032   8A..         MOV     ?V0,R2
   \   000034   8B..         MOV     ?V1,R3
    784            pBuf += 2;
   \   000036   EE           MOV     A,R6
   \   000037   2402         ADD     A,#0x2
   \   000039   FE           MOV     R6,A
   \   00003A   5001         JNC     ??MT_ZdoMatchDescRequest_2
   \   00003C   0F           INC     R7
    785          
    786            /* Profile ID */
    787            profileId = osal_build_uint16( pBuf );
   \                     ??MT_ZdoMatchDescRequest_2:
   \   00003D                ; Setup parameters for call to function osal_build_uint16
   \   00003D   FA           MOV     R2,A
   \   00003E   EF           MOV     A,R7
   \   00003F   FB           MOV     R3,A
   \   000040   12....       LCALL   `??osal_build_uint16::?relay`; Banked call to: osal_build_uint16
   \   000043   8A..         MOV     ?V4,R2
   \   000045   8B..         MOV     ?V5,R3
    788            pBuf += 2;
    789          
    790            /* NumInClusters */
    791            numInClusters = *pBuf++;
   \   000047   8E82         MOV     DPL,R6
   \   000049   8F83         MOV     DPH,R7
   \   00004B   A3           INC     DPTR
   \   00004C   A3           INC     DPTR
   \   00004D   E0           MOVX    A,@DPTR
   \   00004E   F5..         MOV     ?V6,A
   \   000050   EE           MOV     A,R6
   \   000051   2403         ADD     A,#0x3
   \   000053   FE           MOV     R6,A
   \   000054   5001         JNC     ??MT_ZdoMatchDescRequest_3
   \   000056   0F           INC     R7
    792            if ( numInClusters <= MTZDO_MAX_MATCH_CLUSTERS )
   \                     ??MT_ZdoMatchDescRequest_3:
   \   000057   E5..         MOV     A,?V6
   \   000059   C3           CLR     C
   \   00005A   9411         SUBB    A,#0x11
   \   00005C   5023         JNC     ??MT_ZdoMatchDescRequest_4
    793            {
    794              /* IN clusters */
    795              for ( i = 0; i < numInClusters; i++ )
   \   00005E   75..00       MOV     ?V2,#0x0
   \                     ??MT_ZdoMatchDescRequest_5:
   \   000061   E5..         MOV     A,?V2
   \   000063   C3           CLR     C
   \   000064   95..         SUBB    A,?V6
   \   000066   5022         JNC     ??MT_ZdoMatchDescRequest_6
    796              {
    797                inClusters[i] = osal_build_uint16( pBuf );
   \   000068                ; Setup parameters for call to function osal_build_uint16
   \   000068   EE           MOV     A,R6
   \   000069   FA           MOV     R2,A
   \   00006A   EF           MOV     A,R7
   \   00006B   FB           MOV     R3,A
   \   00006C   12....       LCALL   `??osal_build_uint16::?relay`; Banked call to: osal_build_uint16
   \   00006F   12....       LCALL   ?Subroutine29 & 0xFFFF
    798                pBuf += 2;
    799              }
   \                     ??CrossCallReturnLabel_78:
   \   000072   742A         MOV     A,#0x2a
   \   000074   12....       LCALL   ?XSTACK_DISP0_8
   \   000077   12....       LCALL   ?Subroutine18 & 0xFFFF
   \                     ??CrossCallReturnLabel_80:
   \   00007A   5001         JNC     ??MT_ZdoMatchDescRequest_7
   \   00007C   0F           INC     R7
   \                     ??MT_ZdoMatchDescRequest_7:
   \   00007D   05..         INC     ?V2
   \   00007F   80E0         SJMP    ??MT_ZdoMatchDescRequest_5
    800            }
    801            else
    802            {
    803              retValue = ZDP_INVALID_REQTYPE;
   \                     ??MT_ZdoMatchDescRequest_4:
   \   000081   85..82       MOV     DPL,?XSP + 0
   \   000084   85..83       MOV     DPH,?XSP + 1
   \   000087   7480         MOV     A,#-0x80
   \   000089   F0           MOVX    @DPTR,A
    804            }
    805          
    806            /* NumOutClusters */
    807            numOutClusters = *pBuf++;
   \                     ??MT_ZdoMatchDescRequest_6:
   \   00008A   8E82         MOV     DPL,R6
   \   00008C   8F83         MOV     DPH,R7
   \   00008E   E0           MOVX    A,@DPTR
   \   00008F   F5..         MOV     ?V7,A
   \   000091   A3           INC     DPTR
   \   000092   AE82         MOV     R6,DPL
   \   000094   AF83         MOV     R7,DPH
    808            if ( numOutClusters <= MTZDO_MAX_MATCH_CLUSTERS )
   \   000096   C3           CLR     C
   \   000097   9411         SUBB    A,#0x11
   \   000099   5023         JNC     ??MT_ZdoMatchDescRequest_8
    809            {
    810              /* OUT Clusters */
    811              for ( i = 0; i < numOutClusters; i++ )
   \   00009B   75..00       MOV     ?V2,#0x0
   \                     ??MT_ZdoMatchDescRequest_9:
   \   00009E   E5..         MOV     A,?V2
   \   0000A0   C3           CLR     C
   \   0000A1   95..         SUBB    A,?V7
   \   0000A3   5023         JNC     ??MT_ZdoMatchDescRequest_10
    812              {
    813                outClusters[i] = osal_build_uint16( pBuf );
   \   0000A5                ; Setup parameters for call to function osal_build_uint16
   \   0000A5   EE           MOV     A,R6
   \   0000A6   FA           MOV     R2,A
   \   0000A7   EF           MOV     A,R7
   \   0000A8   FB           MOV     R3,A
   \   0000A9   12....       LCALL   `??osal_build_uint16::?relay`; Banked call to: osal_build_uint16
   \   0000AC   12....       LCALL   ?Subroutine29 & 0xFFFF
    814                pBuf += 2;
    815              }
   \                     ??CrossCallReturnLabel_79:
   \   0000AF   740A         MOV     A,#0xa
   \   0000B1   12....       LCALL   ?XSTACK_DISP0_8
   \   0000B4   12....       LCALL   ?Subroutine18 & 0xFFFF
   \                     ??CrossCallReturnLabel_81:
   \   0000B7   5001         JNC     ??MT_ZdoMatchDescRequest_11
   \   0000B9   0F           INC     R7
   \                     ??MT_ZdoMatchDescRequest_11:
   \   0000BA   05..         INC     ?V2
   \   0000BC   80E0         SJMP    ??MT_ZdoMatchDescRequest_9
    816            }
    817            else
    818            {
    819              retValue = ZDP_INVALID_REQTYPE;
   \                     ??MT_ZdoMatchDescRequest_8:
   \   0000BE   85..82       MOV     DPL,?XSP + 0
   \   0000C1   85..83       MOV     DPH,?XSP + 1
   \   0000C4   7480         MOV     A,#-0x80
   \   0000C6   8055         SJMP    ??MT_ZdoMatchDescRequest_12
    820            }
    821          
    822            if ( retValue == 0 )
   \                     ??MT_ZdoMatchDescRequest_10:
   \   0000C8   85..82       MOV     DPL,?XSP + 0
   \   0000CB   85..83       MOV     DPH,?XSP + 1
   \   0000CE   E0           MOVX    A,@DPTR
   \   0000CF   704D         JNZ     ??MT_ZdoMatchDescRequest_13
    823            {
    824              retValue = (uint8)ZDP_MatchDescReq( &destAddr, shortAddr, profileId, numInClusters,
    825                                                 inClusters, numOutClusters, outClusters, 0);
   \   0000D1                ; Setup parameters for call to function ZDP_MatchDescReq
   \   0000D1   75..00       MOV     ?V2,#0x0
   \   0000D4   78..         MOV     R0,#?V2
   \   0000D6   12....       LCALL   ?PUSH_XSTACK_I_ONE
   \   0000D9   740B         MOV     A,#0xb
   \   0000DB   12....       LCALL   ?XSTACK_DISP100_8
   \   0000DE   88..         MOV     ?V8,R0
   \   0000E0   89..         MOV     ?V9,R1
   \   0000E2   78..         MOV     R0,#?V8
   \   0000E4   12....       LCALL   ?PUSH_XSTACK_I_TWO
   \   0000E7   E5..         MOV     A,?V7
   \   0000E9   F5..         MOV     ?V2,A
   \   0000EB   78..         MOV     R0,#?V2
   \   0000ED   12....       LCALL   ?PUSH_XSTACK_I_ONE
   \   0000F0   742E         MOV     A,#0x2e
   \   0000F2   12....       LCALL   ?XSTACK_DISP100_8
   \   0000F5   88..         MOV     ?V8,R0
   \   0000F7   89..         MOV     ?V9,R1
   \   0000F9   78..         MOV     R0,#?V8
   \   0000FB   12....       LCALL   ?PUSH_XSTACK_I_TWO
   \   0000FE   78..         MOV     R0,#?V4
   \   000100   12....       LCALL   ?PUSH_XSTACK_I_TWO
   \   000103   A9..         MOV     R1,?V6
   \   000105   AC..         MOV     R4,?V0
   \   000107   AD..         MOV     R5,?V1
   \   000109   7409         MOV     A,#0x9
   \   00010B   12....       LCALL   ?XSTACK_DISP101_8
   \   00010E   12....       LCALL   `??ZDP_MatchDescReq::?relay`; Banked call to: ZDP_MatchDescReq
   \   000111   7408         MOV     A,#0x8
   \   000113   12....       LCALL   ?DEALLOC_XSTACK8
   \   000116   E9           MOV     A,R1
   \   000117   85..82       MOV     DPL,?XSP + 0
   \   00011A   85..83       MOV     DPH,?XSP + 1
   \                     ??MT_ZdoMatchDescRequest_12:
   \   00011D   F0           MOVX    @DPTR,A
    826            }
    827          
    828            MT_BuildAndSendZToolResponse(((uint8)MT_RPC_CMD_SRSP | (uint8)MT_RPC_SYS_ZDO), cmdId, 1, &retValue);
   \                     ??MT_ZdoMatchDescRequest_13:
   \   00011E                ; Setup parameters for call to function MT_BuildAndSendZToolResponse
   \   00011E   AC..         MOV     R4,?XSP + 0
   \   000120   AD..         MOV     R5,?XSP + 1
   \   000122   7B01         MOV     R3,#0x1
   \   000124   AA..         MOV     R2,?V3
   \   000126   7965         MOV     R1,#0x65
   \   000128   12....       LCALL   `??MT_BuildAndSendZToolResponse::?relay`; Banked call to: MT_BuildAndSendZToolResponse
    829          }
   \   00012B   744A         MOV     A,#0x4a
   \   00012D   12....       LCALL   ?DEALLOC_XSTACK8
   \   000130   7F0A         MOV     R7,#0xa
   \   000132   02....       LJMP    ?BANKED_LEAVE_XDATA

   \                                 In  segment BANKED_CODE, align 1, keep-with-next
   \                     ?Subroutine29:
   \   000000   A8..         MOV     R0,?V2
   \   000002                REQUIRE ??Subroutine39_0
   \   000002                ; // Fall through to label ??Subroutine39_0

   \                                 In  segment BANKED_CODE, align 1, keep-with-next
   \                     ??Subroutine39_0:
   \   000000   E8           MOV     A,R0
   \   000001   28           ADD     A,R0
   \   000002   F8           MOV     R0,A
   \   000003   E4           CLR     A
   \   000004   33           RLC     A
   \   000005   F9           MOV     R1,A
   \   000006   22           RET

   \                                 In  segment BANKED_CODE, align 1, keep-with-next
   \                     ?Subroutine27:
   \   000000   EA           MOV     A,R2
   \   000001   FE           MOV     R6,A
   \   000002   EB           MOV     A,R3
   \   000003   FF           MOV     R7,A
   \   000004   85..82       MOV     DPL,?XSP + 0
   \   000007   85..83       MOV     DPH,?XSP + 1
   \   00000A   E4           CLR     A
   \   00000B   F0           MOVX    @DPTR,A
   \   00000C   8E82         MOV     DPL,R6
   \   00000E   8F83         MOV     DPH,R7
   \   000010   A3           INC     DPTR
   \   000011   A3           INC     DPTR
   \   000012   E0           MOVX    A,@DPTR
   \   000013   22           RET

   \                                 In  segment BANKED_CODE, align 1, keep-with-next
   \                     ?Subroutine18:
   \   000000   E582         MOV     A,DPL
   \   000002   28           ADD     A,R0
   \   000003   F582         MOV     DPL,A
   \   000005   E583         MOV     A,DPH
   \   000007   39           ADDC    A,R1
   \   000008   F583         MOV     DPH,A
   \   00000A                REQUIRE ??Subroutine40_0
   \   00000A                ; // Fall through to label ??Subroutine40_0

   \                                 In  segment BANKED_CODE, align 1, keep-with-next
   \                     ??Subroutine40_0:
   \   000000   12....       LCALL   ?Subroutine36 & 0xFFFF
   \                     ??CrossCallReturnLabel_89:
   \   000003   FE           MOV     R6,A
   \   000004   22           RET

   \                                 In  segment BANKED_CODE, align 1, keep-with-next
   \                     ?Subroutine36:
   \   000000   EA           MOV     A,R2
   \   000001   F0           MOVX    @DPTR,A
   \   000002   A3           INC     DPTR
   \   000003   EB           MOV     A,R3
   \   000004   F0           MOVX    @DPTR,A
   \   000005                ; Setup parameters for call to function osal_build_uint16
   \   000005                ; Setup parameters for call to function osal_build_uint16
   \   000005                ; Setup parameters for call to function osal_build_uint16
   \   000005                ; Setup parameters for call to function osal_build_uint16
   \   000005                ; Setup parameters for call to function osal_build_uint16
   \   000005   EE           MOV     A,R6
   \   000006   2402         ADD     A,#0x2
   \   000008   22           RET

   \                                 In  segment BANKED_CODE, align 1, keep-with-next
   \                     ?Subroutine19:
   \   000000   7402         MOV     A,#0x2
   \   000002   F0           MOVX    @DPTR,A
   \   000003                ; Setup parameters for call to function osal_build_uint16
   \   000003                ; Setup parameters for call to function osal_build_uint16
   \   000003                ; Setup parameters for call to function osal_build_uint16
   \   000003                ; Setup parameters for call to function osal_build_uint16
   \   000003                ; Setup parameters for call to function osal_build_uint16
   \   000003                ; Setup parameters for call to function osal_build_uint16
   \   000003                ; Setup parameters for call to function osal_build_uint16
   \   000003                ; Setup parameters for call to function osal_build_uint16
   \   000003                ; Setup parameters for call to function osal_build_uint16
   \   000003                ; Setup parameters for call to function osal_build_uint16
   \   000003                ; Setup parameters for call to function osal_build_uint16
   \   000003   0A           INC     R2
   \   000004   0A           INC     R2
   \   000005   0A           INC     R2
   \   000006   EF           MOV     A,R7
   \   000007   FB           MOV     R3,A
   \   000008   22           RET
    830          
    831          /***************************************************************************************************
    832           * @fn      MT_ZdoComplexDescRequest
    833           *
    834           * @brief   Handle a Complex Descriptor request.
    835           *
    836           * @param   pBuf  - MT message data
    837           *
    838           * @return  void
    839           ***************************************************************************************************/
    840          static void MT_ZdoComplexDescRequest(uint8 *pBuf)
    841          {
    842            uint8 cmdId;
    843            uint8 retValue;
    844            zAddrType_t destAddr;
    845            uint16 shortAddr;
    846          
    847            /* parse header */
    848            cmdId = pBuf[MT_RPC_POS_CMD1];
    849            pBuf += MT_RPC_FRAME_HDR_SZ;
    850          
    851            /* Dev address */
    852            destAddr.addrMode = Addr16Bit;
    853            destAddr.addr.shortAddr = osal_build_uint16( pBuf );
    854            pBuf += 2;
    855          
    856            /* Network address of interest */
    857            shortAddr = osal_build_uint16( pBuf );
    858          
    859            retValue = (uint8)ZDP_ComplexDescReq( &destAddr, shortAddr, 0);
    860          
    861            MT_BuildAndSendZToolResponse(((uint8)MT_RPC_CMD_SRSP | (uint8)MT_RPC_SYS_ZDO), cmdId, 1, &retValue);
    862          }
    863          
    864          /***************************************************************************************************
    865           * @fn      MT_ZdoUserDescRequest
    866           *
    867           * @brief   Handle a User Descriptor request.
    868           *
    869           * @param   pBuf  - MT message data
    870           *
    871           * @return  void
    872           ***************************************************************************************************/
    873          static void MT_ZdoUserDescRequest(uint8 *pBuf)
    874          {
    875            uint8 cmdId;
    876            uint8 retValue;
    877            zAddrType_t destAddr;
    878            uint16 shortAddr;
    879          
    880            /* parse header */
    881            cmdId = pBuf[MT_RPC_POS_CMD1];
    882            pBuf += MT_RPC_FRAME_HDR_SZ;
    883          
    884            /* Dev address */
    885            destAddr.addrMode = Addr16Bit;
    886            destAddr.addr.shortAddr = osal_build_uint16( pBuf );
    887            pBuf += 2;
    888          
    889            /* Network address of interest */
    890            shortAddr = osal_build_uint16( pBuf );
    891          
    892            retValue = (uint8)ZDP_UserDescReq( &destAddr, shortAddr, 0);
    893          
    894            MT_BuildAndSendZToolResponse(((uint8)MT_RPC_CMD_SRSP | (uint8)MT_RPC_SYS_ZDO), cmdId, 1, &retValue);
    895          }
    896          
    897          /***************************************************************************************************
    898           * @fn      MT_ZdoEndDevAnnce
    899           *
    900           * @brief   Handle a End Device Announce Descriptor request.
    901           *
    902           * @param   pBuf  - MT message data
    903           *
    904           * @return  void
    905           ***************************************************************************************************/
    906          static void MT_ZdoEndDevAnnce(uint8 *pBuf)
    907          {
    908            uint8 cmdId;
    909            uint8 retValue;
    910            uint16 shortAddr;
    911            uint8 *pIEEEAddr;
    912          
    913            /* parse header */
    914            cmdId = pBuf[MT_RPC_POS_CMD1];
    915            pBuf += MT_RPC_FRAME_HDR_SZ;
    916          
    917            /* network address */
    918            shortAddr = osal_build_uint16( pBuf );
    919            pBuf += 2;
    920          
    921            /* extended address */
    922            pIEEEAddr = pBuf;
    923            pBuf += Z_EXTADDR_LEN;
    924          
    925            retValue = (uint8)ZDP_DeviceAnnce( shortAddr, pIEEEAddr, *pBuf, 0);
    926          
    927            MT_BuildAndSendZToolResponse(((uint8)MT_RPC_CMD_SRSP | (uint8)MT_RPC_SYS_ZDO), cmdId, 1, &retValue);
    928          }
    929          
    930          /***************************************************************************************************
    931           * @fn      MT_ZdoUserDescSet
    932           *
    933           * @brief   Handle a User Descriptor Set.
    934           *
    935           * @param   pBuf  - MT message data
    936           *
    937           * @return  void
    938           ***************************************************************************************************/
    939          static void MT_ZdoUserDescSet(uint8 *pBuf)
    940          {
    941            uint8 cmdId;
    942            uint8 retValue;
    943            zAddrType_t destAddr;
    944            uint16 shortAddr;
    945            UserDescriptorFormat_t userDesc;
    946          
    947            /* parse header */
    948            cmdId = pBuf[MT_RPC_POS_CMD1];
    949            pBuf += MT_RPC_FRAME_HDR_SZ;
    950          
    951            /* Dev address */
    952            destAddr.addrMode = Addr16Bit;
    953            destAddr.addr.shortAddr = osal_build_uint16( pBuf );
    954            pBuf += 2;
    955          
    956            /* Network address of interest */
    957            shortAddr = osal_build_uint16( pBuf );
    958            pBuf += 2;
    959          
    960            /* User descriptor */
    961            userDesc.len = *pBuf++;
    962            osal_memcpy( userDesc.desc, pBuf, userDesc.len );
    963          
    964            retValue = (uint8)ZDP_UserDescSet( &destAddr, shortAddr, &userDesc, 0);
    965          
    966            MT_BuildAndSendZToolResponse(((uint8)MT_RPC_CMD_SRSP | (uint8)MT_RPC_SYS_ZDO), cmdId, 1, &retValue);
    967          }
    968          
    969          /***************************************************************************************************
    970           * @fn      MT_ZdoServiceDiscRequest
    971           *
    972           * @brief   Handle a Server Discovery request.
    973           *
    974           * @param   pBuf  - MT message data
    975           *
    976           * @return  void
    977           ***************************************************************************************************/
    978          static void MT_ZdoServiceDiscRequest(uint8 *pBuf)
    979          {
    980            uint8 cmdId;
    981            uint8 retValue;
    982            uint16 serviceMask;
    983          
    984            /* parse header */
    985            cmdId = pBuf[MT_RPC_POS_CMD1];
    986            pBuf += MT_RPC_FRAME_HDR_SZ;
    987          
    988            /* Service Mask */
    989            serviceMask = osal_build_uint16( pBuf );
    990          
    991            retValue = (uint8)ZDP_ServerDiscReq( serviceMask, 0);
    992          
    993            MT_BuildAndSendZToolResponse(((uint8)MT_RPC_CMD_SRSP | (uint8)MT_RPC_SYS_ZDO), cmdId, 1, &retValue);
    994          }
    995          
    996          /***************************************************************************************************
    997           * @fn      MT_ZdoEndDevBindRequest
    998           *
    999           * @brief   Handle a End Device Bind request.
   1000           *
   1001           * @param   pBuf  - MT message data
   1002           *
   1003           * @return  void
   1004           ***************************************************************************************************/

   \                                 In  segment BANKED_CODE, align 1, keep-with-next
   1005          static void MT_ZdoEndDevBindRequest(uint8 *pBuf)
   \                     MT_ZdoEndDevBindRequest:
   1006          {
   \   000000                REQUIRE ?V0
   \   000000                REQUIRE ?V1
   \   000000                REQUIRE ?V2
   \   000000                REQUIRE ?V3
   \   000000                REQUIRE ?V4
   \   000000                REQUIRE ?V5
   \   000000                REQUIRE ?V6
   \   000000                REQUIRE ?V7
   \   000000                REQUIRE ?V8
   \   000000                REQUIRE ?V9
   \   000000                REQUIRE ?V10
   \   000000                REQUIRE ?V11
   \   000000   74EC         MOV     A,#-0x14
   \   000002   12....       LCALL   ?BANKED_ENTER_XDATA
   \   000005                ; Saved register size: 20
   \   000005                ; Auto size: 70
   \   000005   74BA         MOV     A,#-0x46
   \   000007   12....       LCALL   ?ALLOC_XSTACK8
   \   00000A   12....       LCALL   ?Subroutine27 & 0xFFFF
   1007            uint8 cmdId;
   1008            uint8 retValue = 0;
   1009            uint8 i, epInt, numInClusters, numOutClusters;
   1010            zAddrType_t destAddr;
   1011            uint16 shortAddr;
   1012            uint16 profileID, inClusters[MTZDO_MAX_ED_BIND_CLUSTERS], outClusters[MTZDO_MAX_ED_BIND_CLUSTERS];
   1013          
   1014            /* parse header */
   1015            cmdId = pBuf[MT_RPC_POS_CMD1];
   \                     ??CrossCallReturnLabel_60:
   \   00000D   F5..         MOV     ?V2,A
   1016            pBuf += MT_RPC_FRAME_HDR_SZ;
   \   00000F   EE           MOV     A,R6
   \   000010   2403         ADD     A,#0x3
   \   000012   FE           MOV     R6,A
   \   000013   5001         JNC     ??MT_ZdoEndDevBindRequest_0
   \   000015   0F           INC     R7
   1017          
   1018            /* Dev address */
   1019            destAddr.addrMode = Addr16Bit;
   \                     ??MT_ZdoEndDevBindRequest_0:
   \   000016   7409         MOV     A,#0x9
   \   000018   12....       LCALL   ?XSTACK_DISP0_8
   \   00001B   12....       LCALL   ?Subroutine19 & 0xFFFF
   1020            destAddr.addr.shortAddr = osal_build_uint16( pBuf );
   \                     ??CrossCallReturnLabel_37:
   \   00001E   12....       LCALL   `??osal_build_uint16::?relay`; Banked call to: osal_build_uint16
   \   000021   7401         MOV     A,#0x1
   \   000023   12....       LCALL   ?XSTACK_DISP0_8
   \   000026   12....       LCALL   ??Subroutine40_0 & 0xFFFF
   1021            pBuf += 2;
   \                     ??CrossCallReturnLabel_86:
   \   000029   5001         JNC     ??MT_ZdoEndDevBindRequest_1
   \   00002B   0F           INC     R7
   1022          
   1023            /* Local coordinator of the binding */
   1024            shortAddr = osal_build_uint16( pBuf );
   \                     ??MT_ZdoEndDevBindRequest_1:
   \   00002C                ; Setup parameters for call to function osal_build_uint16
   \   00002C   FA           MOV     R2,A
   \   00002D   EF           MOV     A,R7
   \   00002E   FB           MOV     R3,A
   \   00002F   12....       LCALL   `??osal_build_uint16::?relay`; Banked call to: osal_build_uint16
   \   000032   8A..         MOV     ?V0,R2
   \   000034   8B..         MOV     ?V1,R3
   1025            pBuf += 2;
   1026          
   1027            /* For now, skip past the extended address */
   1028            pBuf += Z_EXTADDR_LEN;
   1029          
   1030            /* Endpoint */
   1031            epInt = *pBuf++;
   \   000036   8E82         MOV     DPL,R6
   \   000038   8F83         MOV     DPH,R7
   \   00003A   A3           INC     DPTR
   \   00003B   A3           INC     DPTR
   \   00003C   A3           INC     DPTR
   \   00003D   A3           INC     DPTR
   \   00003E   A3           INC     DPTR
   \   00003F   A3           INC     DPTR
   \   000040   A3           INC     DPTR
   \   000041   A3           INC     DPTR
   \   000042   A3           INC     DPTR
   \   000043   A3           INC     DPTR
   \   000044   E0           MOVX    A,@DPTR
   \   000045   F5..         MOV     ?V3,A
   \   000047   EE           MOV     A,R6
   \   000048   240B         ADD     A,#0xb
   \   00004A   FE           MOV     R6,A
   \   00004B   5001         JNC     ??MT_ZdoEndDevBindRequest_2
   \   00004D   0F           INC     R7
   1032          
   1033            /* Profile ID */
   1034            profileID = osal_build_uint16( pBuf );
   \                     ??MT_ZdoEndDevBindRequest_2:
   \   00004E                ; Setup parameters for call to function osal_build_uint16
   \   00004E   FA           MOV     R2,A
   \   00004F   EF           MOV     A,R7
   \   000050   FB           MOV     R3,A
   \   000051   12....       LCALL   `??osal_build_uint16::?relay`; Banked call to: osal_build_uint16
   \   000054   8A..         MOV     ?V6,R2
   \   000056   8B..         MOV     ?V7,R3
   1035            pBuf += 2;
   1036          
   1037            /* NumInClusters */
   1038            numInClusters = *pBuf++;
   \   000058   8E82         MOV     DPL,R6
   \   00005A   8F83         MOV     DPH,R7
   \   00005C   A3           INC     DPTR
   \   00005D   A3           INC     DPTR
   \   00005E   E0           MOVX    A,@DPTR
   \   00005F   F5..         MOV     ?V4,A
   \   000061   EE           MOV     A,R6
   \   000062   2403         ADD     A,#0x3
   \   000064   FE           MOV     R6,A
   \   000065   5001         JNC     ??MT_ZdoEndDevBindRequest_3
   \   000067   0F           INC     R7
   1039            if ( numInClusters <= MTZDO_MAX_ED_BIND_CLUSTERS )
   \                     ??MT_ZdoEndDevBindRequest_3:
   \   000068   E5..         MOV     A,?V4
   \   00006A   C3           CLR     C
   \   00006B   9410         SUBB    A,#0x10
   \   00006D   5025         JNC     ??MT_ZdoEndDevBindRequest_4
   1040            {
   1041              for ( i = 0; i < numInClusters; i++ )
   \   00006F   75..00       MOV     ?V5,#0x0
   \                     ??MT_ZdoEndDevBindRequest_5:
   \   000072   E5..         MOV     A,?V5
   \   000074   C3           CLR     C
   \   000075   95..         SUBB    A,?V4
   \   000077   5024         JNC     ??MT_ZdoEndDevBindRequest_6
   1042              {
   1043                inClusters[i] = osal_build_uint16( pBuf );
   \   000079                ; Setup parameters for call to function osal_build_uint16
   \   000079   EE           MOV     A,R6
   \   00007A   FA           MOV     R2,A
   \   00007B   EF           MOV     A,R7
   \   00007C   FB           MOV     R3,A
   \   00007D   12....       LCALL   `??osal_build_uint16::?relay`; Banked call to: osal_build_uint16
   \   000080   A8..         MOV     R0,?V5
   \   000082   12....       LCALL   ??Subroutine39_0 & 0xFFFF
   1044                pBuf += 2;
   1045              }
   \                     ??CrossCallReturnLabel_76:
   \   000085   7428         MOV     A,#0x28
   \   000087   12....       LCALL   ?XSTACK_DISP0_8
   \   00008A   12....       LCALL   ?Subroutine18 & 0xFFFF
   \                     ??CrossCallReturnLabel_82:
   \   00008D   5001         JNC     ??MT_ZdoEndDevBindRequest_7
   \   00008F   0F           INC     R7
   \                     ??MT_ZdoEndDevBindRequest_7:
   \   000090   05..         INC     ?V5
   \   000092   80DE         SJMP    ??MT_ZdoEndDevBindRequest_5
   1046            }
   1047            else
   1048            {
   1049              retValue = ZDP_INVALID_REQTYPE;
   \                     ??MT_ZdoEndDevBindRequest_4:
   \   000094   85..82       MOV     DPL,?XSP + 0
   \   000097   85..83       MOV     DPH,?XSP + 1
   \   00009A   7480         MOV     A,#-0x80
   \   00009C   F0           MOVX    @DPTR,A
   1050            }
   1051          
   1052            /* NumOutClusters */
   1053            numOutClusters = *pBuf++;
   \                     ??MT_ZdoEndDevBindRequest_6:
   \   00009D   8E82         MOV     DPL,R6
   \   00009F   8F83         MOV     DPH,R7
   \   0000A1   E0           MOVX    A,@DPTR
   \   0000A2   F5..         MOV     ?V8,A
   \   0000A4   A3           INC     DPTR
   \   0000A5   AE82         MOV     R6,DPL
   \   0000A7   AF83         MOV     R7,DPH
   1054            if ( numOutClusters <= MTZDO_MAX_ED_BIND_CLUSTERS )
   \   0000A9   C3           CLR     C
   \   0000AA   9410         SUBB    A,#0x10
   \   0000AC   5025         JNC     ??MT_ZdoEndDevBindRequest_8
   1055            {
   1056              for ( i = 0; i < numOutClusters; i++ )
   \   0000AE   75..00       MOV     ?V5,#0x0
   \                     ??MT_ZdoEndDevBindRequest_9:
   \   0000B1   E5..         MOV     A,?V5
   \   0000B3   C3           CLR     C
   \   0000B4   95..         SUBB    A,?V8
   \   0000B6   5025         JNC     ??MT_ZdoEndDevBindRequest_10
   1057              {
   1058                outClusters[i] = osal_build_uint16( pBuf );
   \   0000B8                ; Setup parameters for call to function osal_build_uint16
   \   0000B8   EE           MOV     A,R6
   \   0000B9   FA           MOV     R2,A
   \   0000BA   EF           MOV     A,R7
   \   0000BB   FB           MOV     R3,A
   \   0000BC   12....       LCALL   `??osal_build_uint16::?relay`; Banked call to: osal_build_uint16
   \   0000BF   A8..         MOV     R0,?V5
   \   0000C1   12....       LCALL   ??Subroutine39_0 & 0xFFFF
   1059                pBuf += 2;
   1060              }
   \                     ??CrossCallReturnLabel_77:
   \   0000C4   740A         MOV     A,#0xa
   \   0000C6   12....       LCALL   ?XSTACK_DISP0_8
   \   0000C9   12....       LCALL   ?Subroutine18 & 0xFFFF
   \                     ??CrossCallReturnLabel_83:
   \   0000CC   5001         JNC     ??MT_ZdoEndDevBindRequest_11
   \   0000CE   0F           INC     R7
   \                     ??MT_ZdoEndDevBindRequest_11:
   \   0000CF   05..         INC     ?V5
   \   0000D1   80DE         SJMP    ??MT_ZdoEndDevBindRequest_9
   1061            }
   1062            else
   1063            {
   1064              retValue = ZDP_INVALID_REQTYPE;
   \                     ??MT_ZdoEndDevBindRequest_8:
   \   0000D3   85..82       MOV     DPL,?XSP + 0
   \   0000D6   85..83       MOV     DPH,?XSP + 1
   \   0000D9   7480         MOV     A,#-0x80
   \   0000DB   805A         SJMP    ??MT_ZdoEndDevBindRequest_12
   1065            }
   1066          
   1067            if ( retValue == 0 )
   \                     ??MT_ZdoEndDevBindRequest_10:
   \   0000DD   85..82       MOV     DPL,?XSP + 0
   \   0000E0   85..83       MOV     DPH,?XSP + 1
   \   0000E3   E0           MOVX    A,@DPTR
   \   0000E4   7052         JNZ     ??MT_ZdoEndDevBindRequest_13
   1068            {
   1069              retValue = (uint8)ZDP_EndDeviceBindReq( &destAddr, shortAddr, epInt, profileID,
   1070                                                    numInClusters, inClusters, numOutClusters, outClusters, 0);
   \   0000E6                ; Setup parameters for call to function ZDP_EndDeviceBindReq
   \   0000E6   75..00       MOV     ?V5,#0x0
   \   0000E9   78..         MOV     R0,#?V5
   \   0000EB   12....       LCALL   ?PUSH_XSTACK_I_ONE
   \   0000EE   740B         MOV     A,#0xb
   \   0000F0   12....       LCALL   ?XSTACK_DISP100_8
   \   0000F3   88..         MOV     ?V10,R0
   \   0000F5   89..         MOV     ?V11,R1
   \   0000F7   78..         MOV     R0,#?V10
   \   0000F9   12....       LCALL   ?PUSH_XSTACK_I_TWO
   \   0000FC   E5..         MOV     A,?V8
   \   0000FE   F5..         MOV     ?V5,A
   \   000100   78..         MOV     R0,#?V5
   \   000102   12....       LCALL   ?PUSH_XSTACK_I_ONE
   \   000105   742C         MOV     A,#0x2c
   \   000107   12....       LCALL   ?XSTACK_DISP100_8
   \   00010A   88..         MOV     ?V8,R0
   \   00010C   89..         MOV     ?V9,R1
   \   00010E   78..         MOV     R0,#?V8
   \   000110   12....       LCALL   ?PUSH_XSTACK_I_TWO
   \   000113   78..         MOV     R0,#?V4
   \   000115   12....       LCALL   ?PUSH_XSTACK_I_ONE
   \   000118   78..         MOV     R0,#?V6
   \   00011A   12....       LCALL   ?PUSH_XSTACK_I_TWO
   \   00011D   A9..         MOV     R1,?V3
   \   00011F   AC..         MOV     R4,?V0
   \   000121   AD..         MOV     R5,?V1
   \   000123   740A         MOV     A,#0xa
   \   000125   12....       LCALL   ?XSTACK_DISP101_8
   \   000128   12....       LCALL   `??ZDP_EndDeviceBindReq::?relay`; Banked call to: ZDP_EndDeviceBindReq
   \   00012B   7409         MOV     A,#0x9
   \   00012D   12....       LCALL   ?DEALLOC_XSTACK8
   \   000130   E9           MOV     A,R1
   \   000131   85..82       MOV     DPL,?XSP + 0
   \   000134   85..83       MOV     DPH,?XSP + 1
   \                     ??MT_ZdoEndDevBindRequest_12:
   \   000137   F0           MOVX    @DPTR,A
   1071            }
   1072          
   1073            MT_BuildAndSendZToolResponse(((uint8)MT_RPC_CMD_SRSP | (uint8)MT_RPC_SYS_ZDO), cmdId, 1, &retValue);
   \                     ??MT_ZdoEndDevBindRequest_13:
   \   000138                ; Setup parameters for call to function MT_BuildAndSendZToolResponse
   \   000138   AC..         MOV     R4,?XSP + 0
   \   00013A   AD..         MOV     R5,?XSP + 1
   \   00013C   7B01         MOV     R3,#0x1
   \   00013E   AA..         MOV     R2,?V2
   \   000140   7965         MOV     R1,#0x65
   \   000142   12....       LCALL   `??MT_BuildAndSendZToolResponse::?relay`; Banked call to: MT_BuildAndSendZToolResponse
   1074          }
   \   000145   7446         MOV     A,#0x46
   \   000147   12....       LCALL   ?DEALLOC_XSTACK8
   \   00014A   7F0C         MOV     R7,#0xc
   \   00014C   02....       LJMP    ?BANKED_LEAVE_XDATA
   1075          
   1076          /***************************************************************************************************
   1077           * @fn      MT_ZdoBindRequest
   1078           *
   1079           * @brief   Handle a Bind request.
   1080           *
   1081           * @param   pBuf  - MT message data
   1082           *
   1083           * @return  void
   1084           ***************************************************************************************************/

   \                                 In  segment BANKED_CODE, align 1, keep-with-next
   1085          static void MT_ZdoBindRequest(uint8 *pBuf)
   \                     MT_ZdoBindRequest:
   1086          {
   \   000000                REQUIRE ?V0
   \   000000                REQUIRE ?V1
   \   000000                REQUIRE ?V2
   \   000000                REQUIRE ?V3
   \   000000                REQUIRE ?V4
   \   000000                REQUIRE ?V5
   \   000000                REQUIRE ?V6
   \   000000                REQUIRE ?V7
   \   000000   74F0         MOV     A,#-0x10
   \   000002   12....       LCALL   ?BANKED_ENTER_XDATA
   \   000005                ; Saved register size: 16
   \   000005                ; Auto size: 19
   \   000005   74ED         MOV     A,#-0x13
   \   000007   12....       LCALL   ?ALLOC_XSTACK8
   \   00000A   EA           MOV     A,R2
   \   00000B   FE           MOV     R6,A
   \   00000C   EB           MOV     A,R3
   \   00000D   FF           MOV     R7,A
   1087            uint8 cmdId;
   1088            uint8 retValue;
   1089            zAddrType_t destAddr, devAddr;
   1090            uint8 *pSrcAddr, *ptr;
   1091            uint8 srcEPInt, dstEPInt;
   1092            uint16 clusterID;
   1093          
   1094            /* parse header */
   1095            cmdId = pBuf[MT_RPC_POS_CMD1];
   \   00000E   8E82         MOV     DPL,R6
   \   000010   8F83         MOV     DPH,R7
   \   000012   A3           INC     DPTR
   \   000013   A3           INC     DPTR
   \   000014   E0           MOVX    A,@DPTR
   \   000015   F5..         MOV     ?V0,A
   1096            pBuf += MT_RPC_FRAME_HDR_SZ;
   \   000017   EE           MOV     A,R6
   \   000018   2403         ADD     A,#0x3
   \   00001A   FE           MOV     R6,A
   \   00001B   5001         JNC     ??MT_ZdoBindRequest_0
   \   00001D   0F           INC     R7
   1097          
   1098            /* Dev address */
   1099            destAddr.addrMode = Addr16Bit;
   \                     ??MT_ZdoBindRequest_0:
   \   00001E   7412         MOV     A,#0x12
   \   000020   12....       LCALL   ?XSTACK_DISP0_8
   \   000023   12....       LCALL   ?Subroutine19 & 0xFFFF
   1100            destAddr.addr.shortAddr = osal_build_uint16( pBuf );
   \                     ??CrossCallReturnLabel_38:
   \   000026   12....       LCALL   `??osal_build_uint16::?relay`; Banked call to: osal_build_uint16
   \   000029   740A         MOV     A,#0xa
   \   00002B   12....       LCALL   ?XSTACK_DISP0_8
   \   00002E   12....       LCALL   ?Subroutine3 & 0xFFFF
   1101            pBuf += 2;
   1102          
   1103            /* SrcAddress */
   1104            pSrcAddr = pBuf;
   1105            pBuf += Z_EXTADDR_LEN;
   1106          
   1107            /* SrcEPInt */
   1108            srcEPInt = *pBuf++;
   1109          
   1110            /* ClusterID */
   1111            clusterID = osal_build_uint16( pBuf );
   \                     ??CrossCallReturnLabel_0:
   \   000031   12....       LCALL   `??osal_build_uint16::?relay`; Banked call to: osal_build_uint16
   \   000034   8A..         MOV     ?V4,R2
   \   000036   8B..         MOV     ?V5,R3
   1112            pBuf += 2;
   1113          
   1114            /* Destination Address mode */
   1115            devAddr.addrMode = *pBuf++;
   \   000038   8E82         MOV     DPL,R6
   \   00003A   8F83         MOV     DPH,R7
   \   00003C   A3           INC     DPTR
   \   00003D   A3           INC     DPTR
   \   00003E   E0           MOVX    A,@DPTR
   \   00003F   F8           MOV     R0,A
   \   000040   7409         MOV     A,#0x9
   \   000042   12....       LCALL   ?XSTACK_DISP0_8
   \   000045   E8           MOV     A,R0
   \   000046   F0           MOVX    @DPTR,A
   \   000047   EE           MOV     A,R6
   \   000048   2403         ADD     A,#0x3
   \   00004A   FE           MOV     R6,A
   \   00004B   5001         JNC     ??MT_ZdoBindRequest_1
   \   00004D   0F           INC     R7
   1116          
   1117            /* Destination Address */
   1118            if ( devAddr.addrMode == Addr64Bit )
   \                     ??MT_ZdoBindRequest_1:
   \   00004E   7403         MOV     A,#0x3
   \   000050   68           XRL     A,R0
   \   000051   700E         JNZ     ??MT_ZdoBindRequest_2
   1119            {
   1120              ptr = pBuf;
   1121              osal_cpyExtAddr( devAddr.addr.extAddr, ptr );
   \   000053                ; Setup parameters for call to function sAddrExtCpy
   \   000053   EE           MOV     A,R6
   \   000054   FC           MOV     R4,A
   \   000055   EF           MOV     A,R7
   \   000056   FD           MOV     R5,A
   \   000057   7401         MOV     A,#0x1
   \   000059   12....       LCALL   ?XSTACK_DISP101_8
   \   00005C   12....       LCALL   `??sAddrExtCpy::?relay`; Banked call to: sAddrExtCpy
   \   00005F   8011         SJMP    ??MT_ZdoBindRequest_3
   1122            }
   1123            else
   1124            {
   1125              devAddr.addr.shortAddr = osal_build_uint16( pBuf );
   \                     ??MT_ZdoBindRequest_2:
   \   000061                ; Setup parameters for call to function osal_build_uint16
   \   000061   EE           MOV     A,R6
   \   000062   FA           MOV     R2,A
   \   000063   EF           MOV     A,R7
   \   000064   FB           MOV     R3,A
   \   000065   12....       LCALL   `??osal_build_uint16::?relay`; Banked call to: osal_build_uint16
   \   000068   7401         MOV     A,#0x1
   \   00006A   12....       LCALL   ?XSTACK_DISP0_8
   \   00006D   EA           MOV     A,R2
   \   00006E   F0           MOVX    @DPTR,A
   \   00006F   A3           INC     DPTR
   \   000070   EB           MOV     A,R3
   \   000071   F0           MOVX    @DPTR,A
   1126            }
   1127            /* The short address occupies LSB two bytes */
   1128            pBuf += Z_EXTADDR_LEN;
   1129          
   1130            /* DstEPInt */
   1131            dstEPInt = *pBuf;
   1132          
   1133            retValue = (uint8)ZDP_BindReq( &destAddr, pSrcAddr, srcEPInt, clusterID, &devAddr, dstEPInt, 0);
   \                     ??MT_ZdoBindRequest_3:
   \   000072                ; Setup parameters for call to function ZDP_BindUnbindReq
   \   000072   75..00       MOV     ?V6,#0x0
   \   000075   78..         MOV     R0,#?V6
   \   000077   12....       LCALL   ?PUSH_XSTACK_I_ONE
   \   00007A   8E82         MOV     DPL,R6
   \   00007C   8F83         MOV     DPH,R7
   \   00007E   A3           INC     DPTR
   \   00007F   A3           INC     DPTR
   \   000080   A3           INC     DPTR
   \   000081   A3           INC     DPTR
   \   000082   A3           INC     DPTR
   \   000083   A3           INC     DPTR
   \   000084   A3           INC     DPTR
   \   000085   A3           INC     DPTR
   \   000086   E0           MOVX    A,@DPTR
   \   000087   F5..         MOV     ?V6,A
   \   000089   78..         MOV     R0,#?V6
   \   00008B   12....       LCALL   ?PUSH_XSTACK_I_ONE
   \   00008E   7403         MOV     A,#0x3
   \   000090   12....       LCALL   ?XSTACK_DISP100_8
   \   000093   88..         MOV     ?V6,R0
   \   000095   89..         MOV     ?V7,R1
   \   000097   78..         MOV     R0,#?V6
   \   000099   12....       LCALL   ?PUSH_XSTACK_I_TWO
   \   00009C   78..         MOV     R0,#?V4
   \   00009E   12....       LCALL   ?PUSH_XSTACK_I_TWO
   \   0000A1   78..         MOV     R0,#?V2
   \   0000A3   12....       LCALL   ?PUSH_XSTACK_I_TWO
   \   0000A6   A9..         MOV     R1,?V1
   \   0000A8   7412         MOV     A,#0x12
   \   0000AA   12....       LCALL   ?XSTACK_DISP102_8
   \   0000AD   7A21         MOV     R2,#0x21
   \   0000AF                REQUIRE ?Subroutine0
   \   0000AF                ; // Fall through to label ?Subroutine0
   1134          
   1135            MT_BuildAndSendZToolResponse(((uint8)MT_RPC_CMD_SRSP | (uint8)MT_RPC_SYS_ZDO), cmdId, 1, &retValue);
   1136          }

   \                                 In  segment BANKED_CODE, align 1, keep-with-next
   \                     ?Subroutine0:
   \   000000   7B00         MOV     R3,#0x0
   \   000002   12....       LCALL   `??ZDP_BindUnbindReq::?relay`; Banked call to: ZDP_BindUnbindReq
   \   000005   7408         MOV     A,#0x8
   \   000007   12....       LCALL   ?DEALLOC_XSTACK8
   \   00000A   12....       LCALL   ?Subroutine21 & 0xFFFF
   \                     ??CrossCallReturnLabel_95:
   \   00000D   AA..         MOV     R2,?V0
   \   00000F   7965         MOV     R1,#0x65
   \   000011   12....       LCALL   `??MT_BuildAndSendZToolResponse::?relay`; Banked call to: MT_BuildAndSendZToolResponse
   \   000014   7413         MOV     A,#0x13
   \   000016   12....       LCALL   ?DEALLOC_XSTACK8
   \   000019   7F08         MOV     R7,#0x8
   \   00001B   02....       LJMP    ?BANKED_LEAVE_XDATA

   \                                 In  segment BANKED_CODE, align 1, keep-with-next
   \                     ?Subroutine21:
   \   000000   E9           MOV     A,R1
   \   000001   85..82       MOV     DPL,?XSP + 0
   \   000004   85..83       MOV     DPH,?XSP + 1
   \   000007                REQUIRE ??Subroutine41_0
   \   000007                ; // Fall through to label ??Subroutine41_0

   \                                 In  segment BANKED_CODE, align 1, keep-with-next
   \                     ??Subroutine41_0:
   \   000000   F0           MOVX    @DPTR,A
   \   000001                ; Setup parameters for call to function MT_BuildAndSendZToolResponse
   \   000001                ; Setup parameters for call to function MT_BuildAndSendZToolResponse
   \   000001                ; Setup parameters for call to function MT_BuildAndSendZToolResponse
   \   000001                ; Setup parameters for call to function MT_BuildAndSendZToolResponse
   \   000001                ; Setup parameters for call to function MT_BuildAndSendZToolResponse
   \   000001                ; Setup parameters for call to function MT_BuildAndSendZToolResponse
   \   000001                ; Setup parameters for call to function MT_BuildAndSendZToolResponse
   \   000001   AC..         MOV     R4,?XSP + 0
   \   000003   AD..         MOV     R5,?XSP + 1
   \   000005   7B01         MOV     R3,#0x1
   \   000007   22           RET

   \                                 In  segment BANKED_CODE, align 1, keep-with-next
   \                     ?Subroutine3:
   \   000000   12....       LCALL   ?Subroutine36 & 0xFFFF
   \                     ??CrossCallReturnLabel_90:
   \   000003   F5..         MOV     ?V2,A
   \   000005   E4           CLR     A
   \   000006   3F           ADDC    A,R7
   \   000007   F5..         MOV     ?V3,A
   \   000009   E5..         MOV     A,?V2
   \   00000B   2408         ADD     A,#0x8
   \   00000D   FE           MOV     R6,A
   \   00000E   E4           CLR     A
   \   00000F   35..         ADDC    A,?V3
   \   000011   FF           MOV     R7,A
   \   000012   8E82         MOV     DPL,R6
   \   000014   8F83         MOV     DPH,R7
   \   000016   E0           MOVX    A,@DPTR
   \   000017   F5..         MOV     ?V1,A
   \   000019   A3           INC     DPTR
   \   00001A   AE82         MOV     R6,DPL
   \   00001C   AF83         MOV     R7,DPH
   \   00001E                ; Setup parameters for call to function osal_build_uint16
   \   00001E                ; Setup parameters for call to function osal_build_uint16
   \   00001E   EE           MOV     A,R6
   \   00001F   FA           MOV     R2,A
   \   000020   EF           MOV     A,R7
   \   000021   FB           MOV     R3,A
   \   000022   22           RET
   1137          
   1138          /***************************************************************************************************
   1139           * @fn      MT_ZdoUnbindRequest
   1140           *
   1141           * @brief   Handle a Unbind request.
   1142           *
   1143           * @param   pBuf  - MT message data
   1144           *
   1145           * @return  void
   1146           ***************************************************************************************************/

   \                                 In  segment BANKED_CODE, align 1, keep-with-next
   1147          static void MT_ZdoUnbindRequest(uint8 *pBuf)
   \                     MT_ZdoUnbindRequest:
   1148          {
   \   000000                REQUIRE ?V0
   \   000000                REQUIRE ?V1
   \   000000                REQUIRE ?V2
   \   000000                REQUIRE ?V3
   \   000000                REQUIRE ?V4
   \   000000                REQUIRE ?V5
   \   000000                REQUIRE ?V6
   \   000000                REQUIRE ?V7
   \   000000   74F0         MOV     A,#-0x10
   \   000002   12....       LCALL   ?BANKED_ENTER_XDATA
   \   000005                ; Saved register size: 16
   \   000005                ; Auto size: 19
   \   000005   74ED         MOV     A,#-0x13
   \   000007   12....       LCALL   ?ALLOC_XSTACK8
   \   00000A   EA           MOV     A,R2
   \   00000B   FE           MOV     R6,A
   \   00000C   EB           MOV     A,R3
   \   00000D   FF           MOV     R7,A
   1149            uint8 cmdId;
   1150            uint8 retValue;
   1151            zAddrType_t destAddr, devAddr;
   1152            uint8 *pSrcAddr, *ptr;
   1153            uint8 srcEPInt, dstEPInt;
   1154            uint16 clusterID;
   1155          
   1156            /* parse header */
   1157            cmdId = pBuf[MT_RPC_POS_CMD1];
   \   00000E   8E82         MOV     DPL,R6
   \   000010   8F83         MOV     DPH,R7
   \   000012   A3           INC     DPTR
   \   000013   A3           INC     DPTR
   \   000014   E0           MOVX    A,@DPTR
   \   000015   F5..         MOV     ?V0,A
   1158            pBuf += MT_RPC_FRAME_HDR_SZ;
   \   000017   EE           MOV     A,R6
   \   000018   2403         ADD     A,#0x3
   \   00001A   FE           MOV     R6,A
   \   00001B   5001         JNC     ??MT_ZdoUnbindRequest_0
   \   00001D   0F           INC     R7
   1159          
   1160            /* dev address */
   1161            destAddr.addrMode = Addr16Bit;
   \                     ??MT_ZdoUnbindRequest_0:
   \   00001E   7412         MOV     A,#0x12
   \   000020   12....       LCALL   ?XSTACK_DISP0_8
   \   000023   12....       LCALL   ?Subroutine19 & 0xFFFF
   1162            destAddr.addr.shortAddr = osal_build_uint16( pBuf );
   \                     ??CrossCallReturnLabel_39:
   \   000026   12....       LCALL   `??osal_build_uint16::?relay`; Banked call to: osal_build_uint16
   \   000029   740A         MOV     A,#0xa
   \   00002B   12....       LCALL   ?XSTACK_DISP0_8
   \   00002E   12....       LCALL   ?Subroutine3 & 0xFFFF
   1163            pBuf += 2;
   1164          
   1165            /* SrcAddress */
   1166            pSrcAddr = pBuf;
   1167            pBuf += Z_EXTADDR_LEN;
   1168          
   1169            /* SrcEPInt */
   1170            srcEPInt = *pBuf++;
   1171          
   1172            /* ClusterID */
   1173            clusterID = osal_build_uint16( pBuf );
   \                     ??CrossCallReturnLabel_1:
   \   000031   12....       LCALL   `??osal_build_uint16::?relay`; Banked call to: osal_build_uint16
   \   000034   8A..         MOV     ?V4,R2
   \   000036   8B..         MOV     ?V5,R3
   1174            pBuf += 2;
   1175          
   1176            /* Destination Address mode */
   1177            devAddr.addrMode = *pBuf++;
   \   000038   8E82         MOV     DPL,R6
   \   00003A   8F83         MOV     DPH,R7
   \   00003C   A3           INC     DPTR
   \   00003D   A3           INC     DPTR
   \   00003E   E0           MOVX    A,@DPTR
   \   00003F   F8           MOV     R0,A
   \   000040   7409         MOV     A,#0x9
   \   000042   12....       LCALL   ?XSTACK_DISP0_8
   \   000045   E8           MOV     A,R0
   \   000046   F0           MOVX    @DPTR,A
   \   000047   EE           MOV     A,R6
   \   000048   2403         ADD     A,#0x3
   \   00004A   FE           MOV     R6,A
   \   00004B   5001         JNC     ??MT_ZdoUnbindRequest_1
   \   00004D   0F           INC     R7
   1178          
   1179            /* Destination Address */
   1180            if ( devAddr.addrMode == Addr64Bit )
   \                     ??MT_ZdoUnbindRequest_1:
   \   00004E   7403         MOV     A,#0x3
   \   000050   68           XRL     A,R0
   \   000051   700E         JNZ     ??MT_ZdoUnbindRequest_2
   1181            {
   1182              ptr = pBuf;
   1183              osal_cpyExtAddr( devAddr.addr.extAddr, ptr );
   \   000053                ; Setup parameters for call to function sAddrExtCpy
   \   000053   EE           MOV     A,R6
   \   000054   FC           MOV     R4,A
   \   000055   EF           MOV     A,R7
   \   000056   FD           MOV     R5,A
   \   000057   7401         MOV     A,#0x1
   \   000059   12....       LCALL   ?XSTACK_DISP101_8
   \   00005C   12....       LCALL   `??sAddrExtCpy::?relay`; Banked call to: sAddrExtCpy
   \   00005F   8011         SJMP    ??MT_ZdoUnbindRequest_3
   1184            }
   1185            else
   1186            {
   1187              devAddr.addr.shortAddr = osal_build_uint16( pBuf );
   \                     ??MT_ZdoUnbindRequest_2:
   \   000061                ; Setup parameters for call to function osal_build_uint16
   \   000061   EE           MOV     A,R6
   \   000062   FA           MOV     R2,A
   \   000063   EF           MOV     A,R7
   \   000064   FB           MOV     R3,A
   \   000065   12....       LCALL   `??osal_build_uint16::?relay`; Banked call to: osal_build_uint16
   \   000068   7401         MOV     A,#0x1
   \   00006A   12....       LCALL   ?XSTACK_DISP0_8
   \   00006D   EA           MOV     A,R2
   \   00006E   F0           MOVX    @DPTR,A
   \   00006F   A3           INC     DPTR
   \   000070   EB           MOV     A,R3
   \   000071   F0           MOVX    @DPTR,A
   1188            }
   1189            /* The short address occupies LSB two bytes */
   1190            pBuf += Z_EXTADDR_LEN;
   1191          
   1192            /* dstEPInt */
   1193            dstEPInt = *pBuf;
   1194          
   1195            retValue = (uint8)ZDP_UnbindReq( &destAddr, pSrcAddr, srcEPInt, clusterID, &devAddr, dstEPInt, 0);
   \                     ??MT_ZdoUnbindRequest_3:
   \   000072                ; Setup parameters for call to function ZDP_BindUnbindReq
   \   000072   75..00       MOV     ?V6,#0x0
   \   000075   78..         MOV     R0,#?V6
   \   000077   12....       LCALL   ?PUSH_XSTACK_I_ONE
   \   00007A   8E82         MOV     DPL,R6
   \   00007C   8F83         MOV     DPH,R7
   \   00007E   A3           INC     DPTR
   \   00007F   A3           INC     DPTR
   \   000080   A3           INC     DPTR
   \   000081   A3           INC     DPTR
   \   000082   A3           INC     DPTR
   \   000083   A3           INC     DPTR
   \   000084   A3           INC     DPTR
   \   000085   A3           INC     DPTR
   \   000086   E0           MOVX    A,@DPTR
   \   000087   F5..         MOV     ?V6,A
   \   000089   78..         MOV     R0,#?V6
   \   00008B   12....       LCALL   ?PUSH_XSTACK_I_ONE
   \   00008E   7403         MOV     A,#0x3
   \   000090   12....       LCALL   ?XSTACK_DISP100_8
   \   000093   88..         MOV     ?V6,R0
   \   000095   89..         MOV     ?V7,R1
   \   000097   78..         MOV     R0,#?V6
   \   000099   12....       LCALL   ?PUSH_XSTACK_I_TWO
   \   00009C   78..         MOV     R0,#?V4
   \   00009E   12....       LCALL   ?PUSH_XSTACK_I_TWO
   \   0000A1   78..         MOV     R0,#?V2
   \   0000A3   12....       LCALL   ?PUSH_XSTACK_I_TWO
   \   0000A6   A9..         MOV     R1,?V1
   \   0000A8   7412         MOV     A,#0x12
   \   0000AA   12....       LCALL   ?XSTACK_DISP102_8
   \   0000AD   7A22         MOV     R2,#0x22
   \   0000AF   02....       LJMP    ?Subroutine0 & 0xFFFF
   1196          
   1197            MT_BuildAndSendZToolResponse(((uint8)MT_RPC_CMD_SRSP | (uint8)MT_RPC_SYS_ZDO), cmdId, 1, &retValue);
   1198          }
   1199          
   1200          #if defined (MT_SYS_KEY_MANAGEMENT)
   1201          /***************************************************************************************************
   1202           * @fn      MT_ZdoSetLinkKey
   1203           *
   1204           * @brief   Set an application or trust center link key.
   1205           *
   1206           * @param   pBuf  - MT message data
   1207           *
   1208           * @return  void
   1209           ***************************************************************************************************/
   1210          static void MT_ZdoSetLinkKey(uint8 *pBuf)
   1211          {
   1212            uint8 cmdId;
   1213            uint8 retValue;
   1214            uint8 *pExtAddr;
   1215            uint8 *pKey;
   1216            uint16 shortAddr;
   1217          
   1218            /* parse header */
   1219            cmdId = pBuf[MT_RPC_POS_CMD1];
   1220            pBuf += MT_RPC_FRAME_HDR_SZ;
   1221          
   1222            /* ShortAddr */
   1223            shortAddr = osal_build_uint16( pBuf );
   1224            pBuf += 2;
   1225          
   1226            /* Extended Addr */
   1227            pExtAddr = pBuf;
   1228            pBuf += Z_EXTADDR_LEN;
   1229          
   1230            /* Key data */
   1231            pKey = pBuf;
   1232          
   1233            retValue = (uint8)ZDSecMgrAddLinkKey( shortAddr, pExtAddr, pKey);
   1234          
   1235            MT_BuildAndSendZToolResponse(((uint8)MT_RPC_CMD_SRSP | (uint8)MT_RPC_SYS_ZDO), cmdId, 1, &retValue);
   1236          }
   1237          
   1238          /***************************************************************************************************
   1239           * @fn      MT_ZdoRemoveLinkKey
   1240           *
   1241           * @brief   Remove an application or trust center link key.
   1242           *
   1243           * @param   pBuf  - MT message data
   1244           *
   1245           * @return  void
   1246           ***************************************************************************************************/
   1247          static void MT_ZdoRemoveLinkKey(uint8 *pBuf)
   1248          {
   1249            uint8 cmdId;
   1250            uint8 retValue;
   1251            uint8 *pExtAddr;
   1252          
   1253            /* parse header */
   1254            cmdId = pBuf[MT_RPC_POS_CMD1];
   1255            pBuf += MT_RPC_FRAME_HDR_SZ;
   1256          
   1257            /* ShortAddr */
   1258            pExtAddr = pBuf;
   1259          
   1260            retValue = ZDSecMgrDeviceRemoveByExtAddr( pExtAddr );
   1261          
   1262            MT_BuildAndSendZToolResponse(((uint8)MT_RPC_CMD_SRSP | (uint8)MT_RPC_SYS_ZDO), cmdId, 1, &retValue);
   1263          }
   1264          
   1265          /***************************************************************************************************
   1266           * @fn      MT_ZdoGetLinkKey
   1267           *
   1268           * @brief   Get the application link key.
   1269           *
   1270           * @param   pBuf  - MT message data
   1271           *
   1272           * @return  void
   1273           ***************************************************************************************************/
   1274          static void MT_ZdoGetLinkKey(uint8 *pBuf)
   1275          {
   1276            uint8 cmdId;
   1277            uint8 retValue;
   1278            uint8 *pExtAddr;
   1279            uint8 *retBuf = NULL;
   1280            uint8 len;
   1281            APSME_LinkKeyData_t *pApsLinkKey = NULL;
   1282            uint16 apsLinkKeyNvId;
   1283          
   1284            // parse header
   1285            len = pBuf[MT_RPC_POS_LEN];
   1286            cmdId = pBuf[MT_RPC_POS_CMD1];
   1287            pBuf += MT_RPC_FRAME_HDR_SZ;
   1288          
   1289            // Extended Address
   1290            pExtAddr = pBuf;
   1291          
   1292            // Check for illegal extended address -- indicating network address lookup
   1293            if ( ( pExtAddr[2] == 0xFE ) && ( pExtAddr[3] == 0xFF ) &&
   1294                 ( len >= Z_EXTADDR_LEN )            )
   1295            {
   1296              uint16 nwkAddr;
   1297              nwkAddr = osal_build_uint16( pExtAddr );
   1298              (void)AddrMgrExtAddrLookup( nwkAddr, pExtAddr );
   1299            }
   1300          
   1301            // Fetch the key NV ID
   1302            retValue = APSME_LinkKeyNVIdGet( pExtAddr, &apsLinkKeyNvId );
   1303          
   1304            if (retValue == ZSuccess)
   1305            {
   1306              if ((pApsLinkKey = (APSME_LinkKeyData_t *)osal_mem_alloc(sizeof(APSME_LinkKeyData_t))) != NULL)
   1307              {
   1308                // retrieve key from NV
   1309                if (osal_nv_read( apsLinkKeyNvId, 0,
   1310                                 sizeof(APSME_LinkKeyData_t), pApsLinkKey) != SUCCESS)
   1311                {
   1312                  retValue = ZNwkUnknownDevice;
   1313                }
   1314              }
   1315              else
   1316              {
   1317                retValue = ZNwkUnknownDevice;
   1318              }
   1319            }
   1320          
   1321            // Construct the response message
   1322            len = MT_ZDO_STATUS_LEN + Z_EXTADDR_LEN + SEC_KEY_LEN; // status + extAddr + key
   1323            if ((retBuf = (uint8 *)osal_mem_alloc(len)) != NULL)
   1324            {
   1325              if (retValue == ZSuccess)
   1326              {
   1327                // Extended Address
   1328                osal_memcpy( &(retBuf[1]), pExtAddr, Z_EXTADDR_LEN );
   1329          
   1330                // Key data
   1331                osal_memcpy( &(retBuf[1 + Z_EXTADDR_LEN]), pApsLinkKey->key, SEC_KEY_LEN );
   1332              }
   1333              else
   1334              {
   1335                // Failed case - set the rest fields to all FF
   1336                osal_memset( &(retBuf[1]), 0xFF, Z_EXTADDR_LEN + SEC_KEY_LEN );
   1337              }
   1338          
   1339              retBuf[0] = retValue;  // Status
   1340          
   1341              MT_BuildAndSendZToolResponse(((uint8)MT_RPC_CMD_SRSP | (uint8)MT_RPC_SYS_ZDO), cmdId, len, retBuf);
   1342          
   1343              // clear retBuf because it contains key data and free allocated memory
   1344              osal_memset(retBuf, 0x00, len);
   1345          
   1346              osal_mem_free(retBuf);
   1347            }
   1348          
   1349            // clear copy of key in RAM
   1350            if (pApsLinkKey != NULL)
   1351            {
   1352              osal_memset(pApsLinkKey, 0x00, sizeof(APSME_LinkKeyData_t));
   1353          
   1354              osal_mem_free(pApsLinkKey);
   1355            }
   1356          
   1357            return;
   1358          }
   1359          #endif // MT_SYS_KEY_MANAGEMENT
   1360          
   1361          #if defined (MT_ZDO_MGMT)
   1362          /***************************************************************************************************
   1363           * @fn      MT_ZdoMgmtNwkDiscRequest
   1364           *
   1365           * @brief   Handle a Mgmt Nwk Discovery request.
   1366           *
   1367           * @param   pBuf  - MT message data
   1368           *
   1369           * @return  void
   1370           ***************************************************************************************************/
   1371          static void MT_ZdoMgmtNwkDiscRequest(uint8 *pBuf)
   1372          {
   1373            uint8 cmdId;
   1374            uint8 retValue;
   1375            zAddrType_t destAddr;
   1376            uint32 scanChannels;
   1377            uint8 scanDuration, startIndex;
   1378          
   1379            /* parse header */
   1380            cmdId = pBuf[MT_RPC_POS_CMD1];
   1381            pBuf += MT_RPC_FRAME_HDR_SZ;
   1382          
   1383            /* Dev address */
   1384            destAddr.addrMode = Addr16Bit;
   1385            destAddr.addr.shortAddr = osal_build_uint16( pBuf );
   1386            pBuf += 2;
   1387          
   1388            /* Scan Channels */
   1389            scanChannels = osal_build_uint32(pBuf, 4);
   1390            pBuf += 4;
   1391          
   1392            /* Scan Duration */
   1393            scanDuration = *pBuf++;
   1394          
   1395            /* Start Index */
   1396            startIndex = *pBuf;
   1397          
   1398            retValue = (uint8)ZDP_MgmtNwkDiscReq( &destAddr, scanChannels, scanDuration, startIndex, 0);
   1399          
   1400            MT_BuildAndSendZToolResponse(((uint8)MT_RPC_CMD_SRSP | (uint8)MT_RPC_SYS_ZDO), cmdId, 1, &retValue);
   1401          }
   1402          
   1403          /***************************************************************************************************
   1404           * @fn      MT_ZdoMgmtLqiRequest
   1405           *
   1406           * @brief   Handle a Mgmt Lqi request.
   1407           *
   1408           * @param   pBuf  - MT message data
   1409           *
   1410           * @return  void
   1411           ***************************************************************************************************/
   1412          static void MT_ZdoMgmtLqiRequest(uint8 *pBuf)
   1413          {
   1414            uint8 cmdId;
   1415            uint8 retValue;
   1416            zAddrType_t destAddr;
   1417            uint8 startIndex;
   1418          
   1419            /* parse header */
   1420            cmdId = pBuf[MT_RPC_POS_CMD1];
   1421            pBuf += MT_RPC_FRAME_HDR_SZ;
   1422          
   1423            /* Dev address */
   1424            destAddr.addrMode = Addr16Bit;
   1425            destAddr.addr.shortAddr = osal_build_uint16( pBuf );
   1426            pBuf += 2;
   1427          
   1428            /* Start Index */
   1429            startIndex = *pBuf;
   1430          
   1431            retValue = (uint8)ZDP_MgmtLqiReq( &destAddr, startIndex, 0);
   1432          
   1433            MT_BuildAndSendZToolResponse(((uint8)MT_RPC_CMD_SRSP | (uint8)MT_RPC_SYS_ZDO), cmdId, 1, &retValue);
   1434          }
   1435          
   1436          /***************************************************************************************************
   1437           * @fn      MT_ZdoMgmtRtgRequest
   1438           *
   1439           * @brief   Handle a Mgmt Rtg request.
   1440           *
   1441           * @param   pBuf  - MT message data
   1442           *
   1443           * @return  void
   1444           ***************************************************************************************************/
   1445          static void MT_ZdoMgmtRtgRequest(uint8 *pBuf)
   1446          {
   1447            uint8 cmdId;
   1448            uint8 retValue;
   1449            zAddrType_t destAddr;
   1450            uint8 startIndex;
   1451          
   1452            /* parse header */
   1453            cmdId = pBuf[MT_RPC_POS_CMD1];
   1454            pBuf += MT_RPC_FRAME_HDR_SZ;
   1455          
   1456            /* Dev Address */
   1457            destAddr.addrMode = Addr16Bit;
   1458            destAddr.addr.shortAddr = osal_build_uint16( pBuf );
   1459            pBuf += 2;
   1460          
   1461            /* Start Index */
   1462            startIndex = *pBuf;
   1463          
   1464            retValue = (byte)ZDP_MgmtRtgReq( &destAddr, startIndex, 0);
   1465          
   1466            MT_BuildAndSendZToolResponse(((uint8)MT_RPC_CMD_SRSP | (uint8)MT_RPC_SYS_ZDO), cmdId, 1, &retValue);
   1467          }
   1468          
   1469          /***************************************************************************************************
   1470           * @fn      MT_ZdoMgmtBindRequest
   1471           *
   1472           * @brief   Handle a Mgmt Bind request.
   1473           *
   1474           * @param   pBuf  - MT message data
   1475           *
   1476           * @return  void
   1477           ***************************************************************************************************/
   1478          static void MT_ZdoMgmtBindRequest(uint8 *pBuf)
   1479          {
   1480            uint8 cmdId;
   1481            uint8 retValue;
   1482            zAddrType_t destAddr;
   1483            uint8 startIndex;
   1484          
   1485            /* parse header */
   1486            cmdId = pBuf[MT_RPC_POS_CMD1];
   1487            pBuf += MT_RPC_FRAME_HDR_SZ;
   1488          
   1489            /* Dev Address */
   1490            destAddr.addrMode = Addr16Bit;
   1491            destAddr.addr.shortAddr = osal_build_uint16( pBuf );
   1492            pBuf += 2;
   1493          
   1494            /* Start Index */
   1495            startIndex = *pBuf;
   1496          
   1497            retValue = (uint8)ZDP_MgmtBindReq( &destAddr, startIndex, 0);
   1498          
   1499            MT_BuildAndSendZToolResponse(((uint8)MT_RPC_CMD_SRSP | (uint8)MT_RPC_SYS_ZDO), cmdId, 1, &retValue);
   1500          }
   1501          
   1502          /***************************************************************************************************
   1503           * @fn      MT_ZdoMgmtLeaveRequest
   1504           *
   1505           * @brief   Handle a Mgmt Leave request.
   1506           *
   1507           * @param   pBuf  - MT message data
   1508           *
   1509           * @return  void
   1510           ***************************************************************************************************/
   1511          static void MT_ZdoMgmtLeaveRequest(uint8 *pBuf)
   1512          {
   1513            uint8 cmdId;
   1514            uint8 retValue;
   1515            zAddrType_t destAddr;
   1516            uint8 *pIEEEAddr;
   1517            uint8 removeChildren;
   1518            uint8 rejoin;
   1519          
   1520            /* parse header */
   1521            cmdId = pBuf[MT_RPC_POS_CMD1];
   1522            pBuf += MT_RPC_FRAME_HDR_SZ;
   1523          
   1524            /* Destination Address */
   1525            destAddr.addrMode = Addr16Bit;
   1526            destAddr.addr.shortAddr = osal_build_uint16( pBuf );
   1527            pBuf += 2;
   1528          
   1529            /* IEEE address */
   1530            pIEEEAddr = pBuf;
   1531            pBuf += Z_EXTADDR_LEN;
   1532          
   1533            /* Rejoin if bit0 is set */
   1534            rejoin = ( *pBuf & 0x01 ) ? TRUE : FALSE;
   1535          
   1536            /* Remove Children if bit1 is set */
   1537            removeChildren = ( *pBuf & 0x02 ) ? TRUE : FALSE;
   1538          
   1539            retValue = (byte)ZDP_MgmtLeaveReq( &destAddr, pIEEEAddr, removeChildren, rejoin, 0);
   1540          
   1541            MT_BuildAndSendZToolResponse(((uint8)MT_RPC_CMD_SRSP | (uint8)MT_RPC_SYS_ZDO), cmdId, 1, &retValue);
   1542          }
   1543          
   1544          /***************************************************************************************************
   1545           * @fn      MT_ZdoMgmtDirectJoinRequest
   1546           *
   1547           * @brief   Handle a Mgmt Direct Join request.
   1548           *
   1549           * @param   pBuf  - MT message data
   1550           *
   1551           * @return  void
   1552           ***************************************************************************************************/
   1553          static void MT_ZdoMgmtDirectJoinRequest(uint8 *pBuf)
   1554          {
   1555            uint8 cmdId;
   1556            uint8 retValue;
   1557            zAddrType_t destAddr;
   1558            uint8 *deviceAddr;
   1559            uint8 capInfo;
   1560          
   1561            /* parse header */
   1562            cmdId = pBuf[MT_RPC_POS_CMD1];
   1563            pBuf += MT_RPC_FRAME_HDR_SZ;
   1564          
   1565            /* Destination Address */
   1566            destAddr.addrMode = Addr16Bit;
   1567            destAddr.addr.shortAddr = osal_build_uint16( pBuf );
   1568            pBuf += 2;
   1569          
   1570            /* Device Address */
   1571            deviceAddr = pBuf;
   1572            pBuf += Z_EXTADDR_LEN;
   1573          
   1574            /* Capability information */
   1575            capInfo = *pBuf;
   1576          
   1577            retValue = (uint8)ZDP_MgmtDirectJoinReq( &destAddr, deviceAddr, capInfo, 0);
   1578          
   1579            MT_BuildAndSendZToolResponse(((uint8)MT_RPC_CMD_SRSP | (uint8)MT_RPC_SYS_ZDO), cmdId, 1, &retValue);
   1580          }
   1581          
   1582          /***************************************************************************************************
   1583           * @fn      MT_ZdoMgmtPermitJoinRequest
   1584           *
   1585           * @brief   Handle a Mgmt Permit Join request.
   1586           *
   1587           * @param   pBuf  - MT message data
   1588           *
   1589           * @return  void
   1590           ***************************************************************************************************/
   1591          static void MT_ZdoMgmtPermitJoinRequest(uint8 *pBuf)
   1592          {
   1593            uint8 cmdId;
   1594            uint8 dataLn;
   1595            uint8 retValue;
   1596            uint8 duration;
   1597            uint8 tcSignificance;
   1598            zAddrType_t destAddr;
   1599          
   1600            /* parse header */
   1601            dataLn = pBuf[MT_RPC_POS_LEN];
   1602            cmdId = pBuf[MT_RPC_POS_CMD1];
   1603            pBuf += MT_RPC_FRAME_HDR_SZ;
   1604          
   1605            if ( 4 == dataLn )
   1606            {
   1607              /* addrMode was hardwired up to Z-Stack 2.6.0 */
   1608              destAddr.addrMode = afAddr16Bit;
   1609            }
   1610            else
   1611            {
   1612              /* addrMode is a parameter after Z-Stack 2.6.0 */
   1613              destAddr.addrMode = *pBuf++;
   1614            }
   1615          
   1616            /* Destination Address */
   1617            destAddr.addr.shortAddr = osal_build_uint16( pBuf );
   1618            pBuf += 2;
   1619          
   1620            /* Duration */
   1621            duration = *pBuf++;
   1622          
   1623            /* Trust center significance */
   1624            tcSignificance = *pBuf;
   1625          
   1626            ignoreIndication = TRUE;
   1627            retValue = (uint8)ZDP_MgmtPermitJoinReq( &destAddr, duration, tcSignificance, 0);
   1628            ignoreIndication = FALSE;
   1629          
   1630            MT_BuildAndSendZToolResponse(((uint8)MT_RPC_CMD_SRSP | (uint8)MT_RPC_SYS_ZDO), cmdId, 1, &retValue);
   1631          }
   1632          
   1633          /***************************************************************************************************
   1634           * @fn      MT_ZdoMgmtNwkUpdateRequest
   1635           *
   1636           * @brief   Handle a Mgmt Nwk Update request.
   1637           *
   1638           * @param   pBuf  - MT message data
   1639           *
   1640           * @return  void
   1641           ***************************************************************************************************/
   1642          static void MT_ZdoMgmtNwkUpdateRequest(uint8 *pBuf)
   1643          {
   1644            uint8 cmdId;
   1645            uint8 retValue;
   1646            zAddrType_t destAddr;
   1647            uint32 channelMask;
   1648            uint8 scanDuration, scanCount;
   1649            uint16 nwkManagerAddr;
   1650          
   1651              /* parse header */
   1652            cmdId = pBuf[MT_RPC_POS_CMD1];
   1653            pBuf += MT_RPC_FRAME_HDR_SZ;
   1654          
   1655            /* Destination address */
   1656            destAddr.addr.shortAddr = osal_build_uint16( pBuf );
   1657            pBuf += 2;
   1658          
   1659            /* Destination address mode */
   1660            destAddr.addrMode = *pBuf++;
   1661          
   1662            channelMask = osal_build_uint32(pBuf, 4);
   1663            pBuf += 4;
   1664          
   1665            /* Scan duration */
   1666            scanDuration = *pBuf++;
   1667          
   1668            /* Scan count */
   1669            scanCount = *pBuf++;
   1670          
   1671            /* NWK manager address */
   1672            nwkManagerAddr = osal_build_uint16( pBuf );
   1673          
   1674            /* Send the Management Network Update request */
   1675            retValue = (uint8)ZDP_MgmtNwkUpdateReq( &destAddr, channelMask, scanDuration,
   1676                                                    scanCount, _NIB.nwkUpdateId+1, nwkManagerAddr );
   1677          
   1678            /*
   1679              Since we don't recevied our own broadcast messages, we should
   1680              send a unicast copy of the message to ourself.
   1681            */
   1682            if ( destAddr.addrMode == AddrBroadcast )
   1683            {
   1684              destAddr.addrMode = Addr16Bit;
   1685              destAddr.addr.shortAddr = _NIB.nwkDevAddress;
   1686              retValue = (uint8) ZDP_MgmtNwkUpdateReq( &destAddr, channelMask, scanDuration,
   1687                                                       scanCount, _NIB.nwkUpdateId+1, nwkManagerAddr );
   1688            }
   1689          
   1690            MT_BuildAndSendZToolResponse(((uint8)MT_RPC_CMD_SRSP | (uint8)MT_RPC_SYS_ZDO), cmdId, 1, &retValue);
   1691          }
   1692          #endif /* MT_ZDO_MGMT */
   1693          
   1694          /***************************************************************************************************
   1695           * @fn      MT_ZdoSendData
   1696           *
   1697           * @brief   Handle a ZDO Send Data request.
   1698           *
   1699           * @param   pBuf  - MT message data
   1700           *
   1701           * @return  void
   1702           ***************************************************************************************************/

   \                                 In  segment BANKED_CODE, align 1, keep-with-next
   1703          static void MT_ZdoSendData( uint8 *pBuf )
   \                     MT_ZdoSendData:
   1704          {
   \   000000                REQUIRE ?V0
   \   000000                REQUIRE ?V1
   \   000000                REQUIRE ?V2
   \   000000                REQUIRE ?V3
   \   000000                REQUIRE ?V4
   \   000000                REQUIRE ?V5
   \   000000   74F2         MOV     A,#-0xe
   \   000002   12....       LCALL   ?BANKED_ENTER_XDATA
   \   000005                ; Saved register size: 14
   \   000005                ; Auto size: 11
   \   000005   74F5         MOV     A,#-0xb
   \   000007   12....       LCALL   ?ALLOC_XSTACK8
   \   00000A   8B..         MOV     ?V1,R3
   1705            uint8 cmdId;
   1706            uint8 retValue;
   1707            zAddrType_t destAddr;
   1708            uint8 transSeq;
   1709            uint8 len;
   1710            uint16 cmd;
   1711          
   1712              /* parse header */
   1713            cmdId = pBuf[MT_RPC_POS_CMD1];
   \   00000C   8A82         MOV     DPL,R2
   \   00000E   8B83         MOV     DPH,R3
   \   000010   A3           INC     DPTR
   \   000011   A3           INC     DPTR
   \   000012   E0           MOVX    A,@DPTR
   \   000013   FF           MOV     R7,A
   1714            pBuf += MT_RPC_FRAME_HDR_SZ;
   \   000014   EA           MOV     A,R2
   \   000015   2403         ADD     A,#0x3
   \   000017   F5..         MOV     ?V0,A
   \   000019   5002         JNC     ??MT_ZdoSendData_0
   \   00001B   05..         INC     ?V1
   1715          
   1716            /* Destination address */
   1717            destAddr.addrMode = Addr16Bit;
   \                     ??MT_ZdoSendData_0:
   \   00001D   740A         MOV     A,#0xa
   \   00001F   12....       LCALL   ?XSTACK_DISP0_8
   \   000022   7402         MOV     A,#0x2
   \   000024   F0           MOVX    @DPTR,A
   1718            destAddr.addr.shortAddr = osal_build_uint16( pBuf );
   \   000025                ; Setup parameters for call to function osal_build_uint16
   \   000025   0A           INC     R2
   \   000026   0A           INC     R2
   \   000027   0A           INC     R2
   \   000028   AB..         MOV     R3,?V1
   \   00002A   12....       LCALL   `??osal_build_uint16::?relay`; Banked call to: osal_build_uint16
   \   00002D   7402         MOV     A,#0x2
   \   00002F   12....       LCALL   ?XSTACK_DISP0_8
   \   000032   EA           MOV     A,R2
   \   000033   F0           MOVX    @DPTR,A
   \   000034   A3           INC     DPTR
   \   000035   EB           MOV     A,R3
   \   000036   12....       LCALL   ?Subroutine23 & 0xFFFF
   1719            pBuf += 2;
   1720          
   1721            /* Destination address mode */
   1722            transSeq = *pBuf++;
   \                     ??CrossCallReturnLabel_50:
   \   000039   12....       LCALL   ?Subroutine17 & 0xFFFF
   \                     ??CrossCallReturnLabel_28:
   \   00003C   E5..         MOV     A,?V0
   \   00003E   2403         ADD     A,#0x3
   \   000040   F5..         MOV     ?V0,A
   \   000042   5002         JNC     ??MT_ZdoSendData_1
   \   000044   05..         INC     ?V1
   1723          
   1724            /* cmd */
   1725            cmd = osal_build_uint16( pBuf );
   \                     ??MT_ZdoSendData_1:
   \   000046                ; Setup parameters for call to function osal_build_uint16
   \   000046   FA           MOV     R2,A
   \   000047   AB..         MOV     R3,?V1
   \   000049   12....       LCALL   `??osal_build_uint16::?relay`; Banked call to: osal_build_uint16
   \   00004C   8A..         MOV     ?V2,R2
   \   00004E   8B..         MOV     ?V3,R3
   1726            pBuf += 2;
   1727            len = *pBuf++;
   \   000050   85..82       MOV     DPL,?V0
   \   000053   85..83       MOV     DPH,?V1
   \   000056   A3           INC     DPTR
   \   000057   A3           INC     DPTR
   \   000058   E0           MOVX    A,@DPTR
   \   000059   FE           MOV     R6,A
   \   00005A   E5..         MOV     A,?V0
   \   00005C   2403         ADD     A,#0x3
   \   00005E   F5..         MOV     ?V0,A
   \   000060   5002         JNC     ??MT_ZdoSendData_2
   \   000062   05..         INC     ?V1
   1728          
   1729            /* Send the Generic ZDO message request */
   1730            retValue = (uint8)ZDP_SendData( &transSeq, &destAddr, cmd, len, pBuf, 0 );
   \                     ??MT_ZdoSendData_2:
   \   000064                ; Setup parameters for call to function ZDP_SendData
   \   000064   75..00       MOV     ?V4,#0x0
   \   000067   78..         MOV     R0,#?V4
   \   000069   12....       LCALL   ?PUSH_XSTACK_I_ONE
   \   00006C   78..         MOV     R0,#?V0
   \   00006E   12....       LCALL   ?PUSH_XSTACK_I_TWO
   \   000071   78..         MOV     R0,#?V2
   \   000073   12....       LCALL   ?PUSH_XSTACK_I_TWO
   \   000076   EE           MOV     A,R6
   \   000077   F9           MOV     R1,A
   \   000078   7407         MOV     A,#0x7
   \   00007A   12....       LCALL   ?XSTACK_DISP102_8
   \   00007D   7405         MOV     A,#0x5
   \   00007F   12....       LCALL   ?XSTACK_DISP101_8
   \   000082   12....       LCALL   `??ZDP_SendData::?relay`; Banked call to: ZDP_SendData
   \   000085   7405         MOV     A,#0x5
   \   000087   12....       LCALL   ?DEALLOC_XSTACK8
   \   00008A   7401         MOV     A,#0x1
   \   00008C   12....       LCALL   ?XSTACK_DISP0_8
   \   00008F   E9           MOV     A,R1
   \   000090   F0           MOVX    @DPTR,A
   1731            /*
   1732              Since we don't recevied our own broadcast messages, we should
   1733              send a unicast copy of the message to ourself.
   1734            */
   1735            if ( destAddr.addrMode == AddrBroadcast )
   \   000091   740A         MOV     A,#0xa
   \   000093   12....       LCALL   ?XSTACK_DISP0_8
   \   000096   E0           MOVX    A,@DPTR
   \   000097   640F         XRL     A,#0xf
   \   000099   7037         JNZ     ??MT_ZdoSendData_3
   1736            {
   1737              destAddr.addrMode = Addr16Bit;
   \   00009B   12....       LCALL   ?Subroutine25 & 0xFFFF
   1738              destAddr.addr.shortAddr = _NIB.nwkDevAddress;
   \                     ??CrossCallReturnLabel_54:
   \   00009E   7402         MOV     A,#0x2
   \   0000A0   12....       LCALL   ?XSTACK_DISP0_8
   \   0000A3   E8           MOV     A,R0
   \   0000A4   F0           MOVX    @DPTR,A
   \   0000A5   A3           INC     DPTR
   \   0000A6   E9           MOV     A,R1
   \   0000A7   F0           MOVX    @DPTR,A
   1739              retValue = (uint8)ZDP_SendData( &transSeq, &destAddr, cmd, len, pBuf, 0 );
   \   0000A8                ; Setup parameters for call to function ZDP_SendData
   \   0000A8   78..         MOV     R0,#?V4
   \   0000AA   12....       LCALL   ?PUSH_XSTACK_I_ONE
   \   0000AD   78..         MOV     R0,#?V0
   \   0000AF   12....       LCALL   ?PUSH_XSTACK_I_TWO
   \   0000B2   78..         MOV     R0,#?V2
   \   0000B4   12....       LCALL   ?PUSH_XSTACK_I_TWO
   \   0000B7   EE           MOV     A,R6
   \   0000B8   F9           MOV     R1,A
   \   0000B9   7407         MOV     A,#0x7
   \   0000BB   12....       LCALL   ?XSTACK_DISP102_8
   \   0000BE   7405         MOV     A,#0x5
   \   0000C0   12....       LCALL   ?XSTACK_DISP101_8
   \   0000C3   12....       LCALL   `??ZDP_SendData::?relay`; Banked call to: ZDP_SendData
   \   0000C6   7405         MOV     A,#0x5
   \   0000C8   12....       LCALL   ?DEALLOC_XSTACK8
   \   0000CB   7401         MOV     A,#0x1
   \   0000CD   12....       LCALL   ?XSTACK_DISP0_8
   \   0000D0   E9           MOV     A,R1
   \   0000D1   F0           MOVX    @DPTR,A
   1740            }
   1741          
   1742            MT_BuildAndSendZToolResponse(((uint8)MT_RPC_CMD_SRSP | (uint8)MT_RPC_SYS_ZDO), cmdId, 1, &retValue);
   \                     ??MT_ZdoSendData_3:
   \   0000D2                ; Setup parameters for call to function MT_BuildAndSendZToolResponse
   \   0000D2   7401         MOV     A,#0x1
   \   0000D4   12....       LCALL   ?XSTACK_DISP102_8
   \   0000D7   7B01         MOV     R3,#0x1
   \   0000D9   EF           MOV     A,R7
   \   0000DA   FA           MOV     R2,A
   \   0000DB   7965         MOV     R1,#0x65
   \   0000DD   12....       LCALL   `??MT_BuildAndSendZToolResponse::?relay`; Banked call to: MT_BuildAndSendZToolResponse
   1743          }
   \   0000E0   740B         MOV     A,#0xb
   \   0000E2                REQUIRE ?Subroutine1
   \   0000E2                ; // Fall through to label ?Subroutine1

   \                                 In  segment BANKED_CODE, align 1, keep-with-next
   \                     ?Subroutine1:
   \   000000   12....       LCALL   ?DEALLOC_XSTACK8
   \   000003   7F06         MOV     R7,#0x6
   \   000005   02....       LJMP    ?BANKED_LEAVE_XDATA

   \                                 In  segment BANKED_CODE, align 1, keep-with-next
   \                     ?Subroutine23:
   \   000000   F0           MOVX    @DPTR,A
   \   000001                ; Setup parameters for call to function osal_memcpy
   \   000001   85..82       MOV     DPL,?V0
   \   000004   85..83       MOV     DPH,?V1
   \   000007   A3           INC     DPTR
   \   000008   A3           INC     DPTR
   \   000009   22           RET

   \                                 In  segment BANKED_CODE, align 1, keep-with-next
   \                     ?Subroutine25:
   \   000000   7402         MOV     A,#0x2
   \   000002   F0           MOVX    @DPTR,A
   \   000003   90....       MOV     DPTR,#_NIB + 20
   \   000006   E0           MOVX    A,@DPTR
   \   000007   F8           MOV     R0,A
   \   000008   A3           INC     DPTR
   \   000009   E0           MOVX    A,@DPTR
   \   00000A   F9           MOV     R1,A
   \   00000B   22           RET

   \                                 In  segment BANKED_CODE, align 1, keep-with-next
   \                     ?Subroutine17:
   \   000000   E0           MOVX    A,@DPTR
   \   000001   85..82       MOV     DPL,?XSP + 0
   \   000004   85..83       MOV     DPH,?XSP + 1
   \   000007   F0           MOVX    @DPTR,A
   \   000008   22           RET
   1744          
   1745          /***************************************************************************************************
   1746           * @fn      MT_ZdoNwkAddrOfInterestReq
   1747           *
   1748           * @brief   Handle a ZDO Network Address of Interest request.
   1749           *
   1750           * @param   pBuf  - MT message data
   1751           *
   1752           * @return  void
   1753           ***************************************************************************************************/

   \                                 In  segment BANKED_CODE, align 1, keep-with-next
   1754          static void MT_ZdoNwkAddrOfInterestReq( uint8 *pBuf )
   \                     MT_ZdoNwkAddrOfInterestReq:
   1755          {
   \   000000                REQUIRE ?V0
   \   000000                REQUIRE ?V1
   \   000000                REQUIRE ?V2
   \   000000                REQUIRE ?V3
   \   000000                REQUIRE ?V4
   \   000000                REQUIRE ?V5
   \   000000   74F2         MOV     A,#-0xe
   \   000002   12....       LCALL   ?BANKED_ENTER_XDATA
   \   000005                ; Saved register size: 14
   \   000005                ; Auto size: 10
   \   000005   74F6         MOV     A,#-0xa
   \   000007   12....       LCALL   ?ALLOC_XSTACK8
   \   00000A   EA           MOV     A,R2
   \   00000B   FE           MOV     R6,A
   \   00000C   EB           MOV     A,R3
   \   00000D   FF           MOV     R7,A
   1756            uint8 cmdId;
   1757            uint8 retValue;
   1758            zAddrType_t destAddr;
   1759            uint16 nwkAddr;
   1760            uint8 cmd;
   1761          
   1762              /* parse header */
   1763            cmdId = pBuf[MT_RPC_POS_CMD1];
   \   00000E   8E82         MOV     DPL,R6
   \   000010   8F83         MOV     DPH,R7
   \   000012   A3           INC     DPTR
   \   000013   A3           INC     DPTR
   \   000014   E0           MOVX    A,@DPTR
   \   000015   F5..         MOV     ?V2,A
   1764            pBuf += MT_RPC_FRAME_HDR_SZ;
   \   000017   EE           MOV     A,R6
   \   000018   2403         ADD     A,#0x3
   \   00001A   FE           MOV     R6,A
   \   00001B   5001         JNC     ??MT_ZdoNwkAddrOfInterestReq_0
   \   00001D   0F           INC     R7
   1765          
   1766            /* Destination address */
   1767            destAddr.addrMode = Addr16Bit;
   \                     ??MT_ZdoNwkAddrOfInterestReq_0:
   \   00001E   7409         MOV     A,#0x9
   \   000020   12....       LCALL   ?XSTACK_DISP0_8
   \   000023   12....       LCALL   ?Subroutine19 & 0xFFFF
   1768            destAddr.addr.shortAddr = osal_build_uint16( pBuf );
   \                     ??CrossCallReturnLabel_40:
   \   000026   12....       LCALL   `??osal_build_uint16::?relay`; Banked call to: osal_build_uint16
   \   000029   7401         MOV     A,#0x1
   \   00002B   12....       LCALL   ?XSTACK_DISP0_8
   \   00002E   12....       LCALL   ??Subroutine40_0 & 0xFFFF
   1769            pBuf += 2;
   \                     ??CrossCallReturnLabel_87:
   \   000031   5001         JNC     ??MT_ZdoNwkAddrOfInterestReq_1
   \   000033   0F           INC     R7
   1770          
   1771            /* Network Address of Interest */
   1772            nwkAddr = osal_build_uint16( pBuf );
   \                     ??MT_ZdoNwkAddrOfInterestReq_1:
   \   000034                ; Setup parameters for call to function osal_build_uint16
   \   000034   FA           MOV     R2,A
   \   000035   EF           MOV     A,R7
   \   000036   FB           MOV     R3,A
   \   000037   12....       LCALL   `??osal_build_uint16::?relay`; Banked call to: osal_build_uint16
   \   00003A   8A..         MOV     ?V0,R2
   \   00003C   8B..         MOV     ?V1,R3
   1773            pBuf += 2;
   1774          
   1775            cmd = *pBuf++;
   \   00003E   8E82         MOV     DPL,R6
   \   000040   8F83         MOV     DPH,R7
   \   000042   A3           INC     DPTR
   \   000043   A3           INC     DPTR
   \   000044   E0           MOVX    A,@DPTR
   \   000045   FE           MOV     R6,A
   1776          
   1777            /* Send the Generic ZDO message request */
   1778            retValue = (uint8)ZDP_NWKAddrOfInterestReq( &destAddr, nwkAddr, cmd, 0 );
   \   000046                ; Setup parameters for call to function ZDP_NWKAddrOfInterestReq
   \   000046   75..00       MOV     ?V3,#0x0
   \   000049   78..         MOV     R0,#?V3
   \   00004B   12....       LCALL   ?PUSH_XSTACK_I_ONE
   \   00004E   EE           MOV     A,R6
   \   00004F   F9           MOV     R1,A
   \   000050   AC..         MOV     R4,?V0
   \   000052   AD..         MOV     R5,?V1
   \   000054   7402         MOV     A,#0x2
   \   000056   12....       LCALL   ?XSTACK_DISP101_8
   \   000059   12....       LCALL   `??ZDP_NWKAddrOfInterestReq::?relay`; Banked call to: ZDP_NWKAddrOfInterestReq
   \   00005C   7401         MOV     A,#0x1
   \   00005E   12....       LCALL   ?DEALLOC_XSTACK8
   \   000061   E9           MOV     A,R1
   \   000062   85..82       MOV     DPL,?XSP + 0
   \   000065   85..83       MOV     DPH,?XSP + 1
   \   000068   F0           MOVX    @DPTR,A
   1779          
   1780          
   1781            /*
   1782              Since we don't recevied our own broadcast messages, we should
   1783              send a unicast copy of the message to ourself.
   1784            */
   1785            if ( destAddr.addrMode == AddrBroadcast )
   \   000069   7409         MOV     A,#0x9
   \   00006B   12....       LCALL   ?XSTACK_DISP0_8
   \   00006E   E0           MOVX    A,@DPTR
   \   00006F   640F         XRL     A,#0xf
   \   000071   702D         JNZ     ??MT_ZdoNwkAddrOfInterestReq_2
   1786            {
   1787              destAddr.addrMode = Addr16Bit;
   \   000073   12....       LCALL   ?Subroutine25 & 0xFFFF
   1788              destAddr.addr.shortAddr = _NIB.nwkDevAddress;
   \                     ??CrossCallReturnLabel_55:
   \   000076   7401         MOV     A,#0x1
   \   000078   12....       LCALL   ?XSTACK_DISP0_8
   \   00007B   E8           MOV     A,R0
   \   00007C   F0           MOVX    @DPTR,A
   \   00007D   A3           INC     DPTR
   \   00007E   E9           MOV     A,R1
   \   00007F   F0           MOVX    @DPTR,A
   1789              retValue = (uint8)ZDP_NWKAddrOfInterestReq( &destAddr, nwkAddr, cmd, 0 );
   \   000080                ; Setup parameters for call to function ZDP_NWKAddrOfInterestReq
   \   000080   78..         MOV     R0,#?V3
   \   000082   12....       LCALL   ?PUSH_XSTACK_I_ONE
   \   000085   EE           MOV     A,R6
   \   000086   F9           MOV     R1,A
   \   000087   AC..         MOV     R4,?V0
   \   000089   AD..         MOV     R5,?V1
   \   00008B   7402         MOV     A,#0x2
   \   00008D   12....       LCALL   ?XSTACK_DISP101_8
   \   000090   12....       LCALL   `??ZDP_NWKAddrOfInterestReq::?relay`; Banked call to: ZDP_NWKAddrOfInterestReq
   \   000093   7401         MOV     A,#0x1
   \   000095   12....       LCALL   ?DEALLOC_XSTACK8
   \   000098   E9           MOV     A,R1
   \   000099   85..82       MOV     DPL,?XSP + 0
   \   00009C   85..83       MOV     DPH,?XSP + 1
   \   00009F   F0           MOVX    @DPTR,A
   1790            }
   1791          
   1792            MT_BuildAndSendZToolResponse(((uint8)MT_RPC_CMD_SRSP | (uint8)MT_RPC_SYS_ZDO), cmdId, 1, &retValue);
   \                     ??MT_ZdoNwkAddrOfInterestReq_2:
   \   0000A0                ; Setup parameters for call to function MT_BuildAndSendZToolResponse
   \   0000A0   AC..         MOV     R4,?XSP + 0
   \   0000A2   AD..         MOV     R5,?XSP + 1
   \   0000A4   7B01         MOV     R3,#0x1
   \   0000A6   AA..         MOV     R2,?V2
   \   0000A8   7965         MOV     R1,#0x65
   \   0000AA   12....       LCALL   `??MT_BuildAndSendZToolResponse::?relay`; Banked call to: MT_BuildAndSendZToolResponse
   1793          }
   \   0000AD   740A         MOV     A,#0xa
   \   0000AF   02....       LJMP    ?Subroutine1 & 0xFFFF
   1794          
   1795          /***************************************************************************************************
   1796           * @fn      MT_ZdoStartupFromApp
   1797           *
   1798           * @brief   Handle a Startup from App request.
   1799           *
   1800           * @param   pBuf  - MT message data
   1801           *
   1802           * @return  void
   1803           ***************************************************************************************************/
   1804          static void MT_ZdoStartupFromApp(uint8 *pBuf)
   1805          {
   1806            uint8 cmd0, cmd1, retValue;
   1807          
   1808            /* parse header */
   1809            cmd0 = pBuf[MT_RPC_POS_CMD0];
   1810            cmd1 = pBuf[MT_RPC_POS_CMD1];
   1811            pBuf += MT_RPC_FRAME_HDR_SZ;
   1812          
   1813            retValue = ZDOInitDevice(100);
   1814          
   1815            if (MT_RPC_CMD_SREQ == (cmd0 & MT_RPC_CMD_TYPE_MASK))
   1816            {
   1817              MT_BuildAndSendZToolResponse(((uint8)MT_RPC_CMD_SRSP|(uint8)MT_RPC_SYS_ZDO), cmd1,1, &retValue);
   1818            }
   1819          }
   1820          
   1821          
   1822          /***************************************************************************************************
   1823           * @fn      MT_ZdoNetworkDiscoveryReq
   1824           *
   1825           * @brief   Handle a ZDO Network Discovery request.
   1826           *
   1827           * @param   pBuf  - MT message data
   1828           *
   1829           * @return  void
   1830           ***************************************************************************************************/
   1831          static void MT_ZdoNetworkDiscoveryReq(uint8 *pBuf)
   1832          {
   1833            uint8  retValue = ZFailure;
   1834            uint8  cmdId;
   1835            uint32 scanChannels;
   1836          
   1837            /* parse header */
   1838            cmdId = pBuf[MT_RPC_POS_CMD1];
   1839            pBuf += MT_RPC_FRAME_HDR_SZ;
   1840          
   1841            /* Packet format */
   1842            /* scan channels (4) | scan duration (1) */
   1843          
   1844            /* Scan channels */
   1845            scanChannels = osal_build_uint32(pBuf, 4);
   1846            pBuf += 4;
   1847          
   1848            retValue = ZDApp_NetworkDiscoveryReq(scanChannels, *pBuf);
   1849          
   1850            // Register ZDO callback for MT to handle the network discovery confirm
   1851            // and beacon notification confirm
   1852            ZDO_RegisterForZdoCB( ZDO_NWK_DISCOVERY_CNF_CBID, &MT_ZdoNwkDiscoveryCnfCB );
   1853            ZDO_RegisterForZdoCB( ZDO_BEACON_NOTIFY_IND_CBID, &MT_ZdoBeaconIndCB );
   1854          
   1855            /* Build and send back the response */
   1856            MT_BuildAndSendZToolResponse(((uint8)MT_RPC_CMD_SRSP | (uint8)MT_RPC_SYS_ZDO), cmdId, 1, &retValue );
   1857          }
   1858          
   1859          
   1860          /***************************************************************************************************
   1861           * @fn      MT_ZdoJoinReq
   1862           *
   1863           * @brief   Handle a ZDO Join request.
   1864           *
   1865           * @param   pBuf  - MT message data
   1866           *
   1867           * @return  void
   1868           ***************************************************************************************************/
   1869          static void MT_ZdoJoinReq(uint8 *pBuf)
   1870          {
   1871            uint8  retValue = ZFailure;
   1872            uint8  cmdId;
   1873            uint16 panId;
   1874            uint16 chosenParent;
   1875          
   1876            /* parse header */
   1877            cmdId = pBuf[MT_RPC_POS_CMD1];
   1878            pBuf += MT_RPC_FRAME_HDR_SZ;
   1879          
   1880            /* Packet format */
   1881            /* channel     (1) | panID (2) | extendedPanID (8) | chosenParent (2) |
   1882             * parentDepth (1) | stackProfile  (1)
   1883             */
   1884          
   1885            panId        = osal_build_uint16( &pBuf[1] );
   1886            chosenParent = osal_build_uint16( &pBuf[11] );
   1887          
   1888            retValue = ZDApp_JoinReq(pBuf[0], panId, &(pBuf[3]), chosenParent, pBuf[13], pBuf[14]);
   1889          
   1890            /* Register for MT to receive Join Confirm */
   1891            ZDO_RegisterForZdoCB( ZDO_JOIN_CNF_CBID, &MT_ZdoJoinCnfCB );
   1892          
   1893            /* Build and send back the response */
   1894            MT_BuildAndSendZToolResponse(((uint8)MT_RPC_CMD_SRSP | (uint8)MT_RPC_SYS_ZDO), cmdId, 1, &retValue );
   1895          
   1896          }
   1897          
   1898          
   1899          /***************************************************************************************************
   1900           * @fn          MT_ZdoNwkDiscoveryCnfCB
   1901           *
   1902           * @brief       Send an indication to inform host device the completion of
   1903           *              network discovery scan
   1904           *
   1905           * @param       pStr - pointer to a parameter and a structure of parameters
   1906           *
   1907           * @return      void
   1908           ***************************************************************************************************/

   \                                 In  segment BANKED_CODE, align 1, keep-with-next
   1909          void *MT_ZdoNwkDiscoveryCnfCB ( void *pStr )
   \                     MT_ZdoNwkDiscoveryCnfCB:
   1910          {
   \   000000   74F7         MOV     A,#-0x9
   \   000002   12....       LCALL   ?BANKED_ENTER_XDATA
   \   000005                ; Saved register size: 9
   \   000005                ; Auto size: 0
   \   000005   EA           MOV     A,R2
   \   000006   FE           MOV     R6,A
   \   000007   EB           MOV     A,R3
   \   000008   FF           MOV     R7,A
   1911            /* pStr: status (uint8) */
   1912            /* Packet Format */
   1913            /* Status (1) */
   1914          
   1915            // Scan completed. De-register the callback with ZDO
   1916            ZDO_DeregisterForZdoCB( ZDO_NWK_DISCOVERY_CNF_CBID );
   \   000009                ; Setup parameters for call to function ZDO_DeregisterForZdoCB
   \   000009   7902         MOV     R1,#0x2
   \   00000B   12....       LCALL   `??ZDO_DeregisterForZdoCB::?relay`; Banked call to: ZDO_DeregisterForZdoCB
   1917            ZDO_DeregisterForZdoCB( ZDO_BEACON_NOTIFY_IND_CBID );
   \   00000E                ; Setup parameters for call to function ZDO_DeregisterForZdoCB
   \   00000E   7903         MOV     R1,#0x3
   \   000010   12....       LCALL   `??ZDO_DeregisterForZdoCB::?relay`; Banked call to: ZDO_DeregisterForZdoCB
   1918          
   1919            // Send the buffered beacon indication
   1920            MT_ZdoBeaconIndCB ( NULL );
   \   000013                ; Setup parameters for call to function MT_ZdoBeaconIndCB
   \   000013   7A00         MOV     R2,#0x0
   \   000015   7B00         MOV     R3,#0x0
   \   000017   12....       LCALL   `??MT_ZdoBeaconIndCB::?relay`; Banked call to: MT_ZdoBeaconIndCB
   1921          
   1922            MT_BuildAndSendZToolResponse(((uint8)MT_RPC_CMD_AREQ | (uint8)MT_RPC_SYS_ZDO),
   1923                                                   MT_ZDO_NWK_DISCOVERY_CNF, 1, pStr);
   \   00001A                ; Setup parameters for call to function MT_BuildAndSendZToolResponse
   \   00001A   EE           MOV     A,R6
   \   00001B   FC           MOV     R4,A
   \   00001C   EF           MOV     A,R7
   \   00001D   FD           MOV     R5,A
   \   00001E   7B01         MOV     R3,#0x1
   \   000020   7AC7         MOV     R2,#-0x39
   \   000022   7945         MOV     R1,#0x45
   \   000024   12....       LCALL   `??MT_BuildAndSendZToolResponse::?relay`; Banked call to: MT_BuildAndSendZToolResponse
   1924            return NULL;
   \   000027   7A00         MOV     R2,#0x0
   \   000029   7B00         MOV     R3,#0x0
   \   00002B                REQUIRE ?Subroutine2
   \   00002B                ; // Fall through to label ?Subroutine2
   1925          }

   \                                 In  segment BANKED_CODE, align 1, keep-with-next
   \                     ?Subroutine2:
   \   000000   7F01         MOV     R7,#0x1
   \   000002   02....       LJMP    ?BANKED_LEAVE_XDATA
   1926          
   1927          /***************************************************************************************************
   1928           * @fn          MT_ZdoBeaconIndCB
   1929           *
   1930           * @brief       Send an indication to host device of a beacon notification
   1931           *
   1932           * @param       pStr -  pointer to a parameter and a structure of parameters
   1933           *
   1934           * @return      void
   1935           ***************************************************************************************************/

   \                                 In  segment BANKED_CODE, align 1, keep-with-next
   1936          void *MT_ZdoBeaconIndCB ( void *pStr )
   \                     MT_ZdoBeaconIndCB:
   1937          {
   \   000000                REQUIRE ?V0
   \   000000                REQUIRE ?V1
   \   000000                REQUIRE ?V2
   \   000000   74F5         MOV     A,#-0xb
   \   000002   12....       LCALL   ?BANKED_ENTER_XDATA
   \   000005                ; Saved register size: 11
   \   000005                ; Auto size: 0
   \   000005   EA           MOV     A,R2
   \   000006   FE           MOV     R6,A
   \   000007   EB           MOV     A,R3
   \   000008   FF           MOV     R7,A
   1938            zdoBeaconInd_t *pBeacon = pStr;
   1939            uint8 *pTmp;
   1940          
   1941            /* Packet Format */
   1942            /* devCnt (1) | device #1 (21) | device #2 (21) |... | device #n (21) */
   1943          
   1944            if( pStr != NULL)
   \   000009   EE           MOV     A,R6
   \   00000A   4F           ORL     A,R7
   \   00000B   90....       MOV     DPTR,#pBeaconIndBuf
   \   00000E   7003         JNZ     $+5
   \   000010   02....       LJMP    ??MT_ZdoBeaconIndCB_0 & 0xFFFF
   1945            {
   1946              if( pBeaconIndBuf == NULL )
   \   000013   12....       LCALL   ??Subroutine44_0 & 0xFFFF
   \                     ??CrossCallReturnLabel_108:
   \   000016   701C         JNZ     ??MT_ZdoBeaconIndCB_1
   1947              {
   1948                // If pBeaconIndBuf has not been allocated yet
   1949                // allocate memory now with MAX_UART_TX_BUFF
   1950                if( NULL == (pBeaconIndBuf = (uint8 *)osal_mem_alloc(MT_ZDO_BEACON_IND_PACK_LEN)))
   \   000018                ; Setup parameters for call to function osal_mem_alloc
   \   000018   7A7B         MOV     R2,#0x7b
   \   00001A   7B00         MOV     R3,#0x0
   \   00001C   12....       LCALL   `??osal_mem_alloc::?relay`; Banked call to: osal_mem_alloc
   \   00001F   90....       MOV     DPTR,#pBeaconIndBuf
   \   000022   EA           MOV     A,R2
   \   000023   F0           MOVX    @DPTR,A
   \   000024   A3           INC     DPTR
   \   000025   EB           MOV     A,R3
   \   000026   F0           MOVX    @DPTR,A
   \   000027   12....       LCALL   ?Subroutine6 & 0xFFFF
   \                     ??CrossCallReturnLabel_110:
   \   00002A   7003         JNZ     $+5
   \   00002C   02....       LJMP    ??MT_ZdoBeaconIndCB_2 & 0xFFFF
   1951                {
   1952                  // Memory failure
   1953                  return NULL;
   1954                }
   1955                pBeaconIndBuf[0] = 0; // First byte is devCnt. Initialize to 0.
   \   00002F   12....       LCALL   ??Subroutine43_0 & 0xFFFF
   1956              }
   \                     ??CrossCallReturnLabel_104:
   \   000032   E4           CLR     A
   \   000033   F0           MOVX    @DPTR,A
   1957          
   1958              // Fill in the buffer with the beacon indication
   1959              pTmp = pBeaconIndBuf + (1 + pBeaconIndBuf[0] * MT_ZDO_BEACON_IND_LEN);
   \                     ??MT_ZdoBeaconIndCB_1:
   \   000034   12....       LCALL   ?Subroutine7 & 0xFFFF
   \                     ??CrossCallReturnLabel_9:
   \   000037   75F015       MOV     B,#0x15
   \   00003A   A4           MUL     AB
   \   00003B   F8           MOV     R0,A
   \   00003C   A9F0         MOV     R1,B
   \   00003E   90....       MOV     DPTR,#pBeaconIndBuf
   \   000041   E0           MOVX    A,@DPTR
   \   000042   28           ADD     A,R0
   \   000043   FA           MOV     R2,A
   \   000044   A3           INC     DPTR
   \   000045   E0           MOVX    A,@DPTR
   \   000046   39           ADDC    A,R1
   \   000047   8A82         MOV     DPL,R2
   \   000049   F583         MOV     DPH,A
   \   00004B   A3           INC     DPTR
   \   00004C   AA82         MOV     R2,DPL
